:100000000C94F7000C941F010C941F010C94560AD9
:100010000C942C0A0C94020A0C941F010C941F01DE
:100020000C941F010C941F010C941F010C941F01D0
:100030000C941F010C941F010C941F010C941F01C0
:100040000C94610F0C941F010C94DF100C942D1173
:100050000C941F010C941F010C941F010C941F01A0
:100060000C941F010C941F0141540041542B434731
:100070005245473F00504F57455220444F574E007E
:1000800041542B434F4C503D3100415445300041C9
:10009000542B434C49503D310041542B434D47466E
:1000A0003D310041542B4946433D312C31002B4317
:1000B000475245473A20302C35002B43475245479D
:1000C0003A20302C310041542B4350494E3D000022
:1000D000C201000100110011000C0000E100000A43
:1000E0000025002500210000960000190039003984
:1000F000003600127A00001F0046004600440080CF
:1001000070000022004D004D004A00004B000036F8
:1001100000750075007200403800004A009C009C89
:10012000009900802500007200EC00EC00E900C09E
:10013000120000E900DA01DA01D70160090000D7F6
:1001400001B603B603B303B0040000B3036E076E39
:10015000076B072C010000DC0EC11DC11DBE1D4137
:10016000542B434D47443D0041542B434D474C3D98
:100170002252454320554E52454144222C310041E4
:10018000542B434D47533D2200000000002400271C
:10019000002A0000000000250028002B00000000BD
:1001A00000230026002900040404040404040402BB
:1001B0000202020202030303030303010204081004
:1001C00020408001020408102001020408102000D1
:1001D0000000070002010000030406000000000008
:1001E0000000000021019806EB069B12FD1211246D
:1001F0001FBECFEFD8E0DEBFCDBF12E0A0E0B1E080
:10020000E4E0FAE202C005900D92AE32B107D9F7F0
:1002100013E0AEE2B2E001C01D92A83CB107E1F7E5
:1002200011E0CEEED1E004C02297FE010E94FC1442
:10023000C43ED107C9F70E944E130C9400150C94CC
:1002400000000F938FE392E060E040E020E000E0E8
:100250000E94F1128EE292E060E00E94FE0182E3D1
:1002600092E061E00E949D060F9108950F931F9305
:10027000CF93DF938C01C0E0D0E01BC080EA93E015
:100280000E9420128A3071F4C00FD11F188280EAB8
:1002900093E00E94491280E090E0DF91CF911F919E
:1002A0000F9108958D3029F0F801EC0FFD1F808328
:1002B000219680EA93E00E94EF1118161906CCF7F8
:1002C000DDCFAF92BF92CF92DF92EF92FF920F936A
:1002D0001F93DF93CF93CDB7DEB7CC5DD0400FB681
:1002E000F894DEBF0FBECDBF90EAE92E93E0F92E61
:1002F000C70160E071E00E94A3145E010894A11C94
:10030000B11CC5010E943601C701B5010E94A614A7
:10031000C70168E171E00E94A31485E1C82ED12CC9
:10032000CC0EDD1EC6010E943601C70161E371E0FB
:100330000E94A614C7010E948F13C70169E371E0F0
:100340000E94A614C701B6010E94A61402E312E09F
:10035000C801B5010E947807C801B6010E94A31424
:10036000C8010E946207C70162E471E00E94A614FE
:10037000C452DF4F0FB6F894DEBF0FBECDBFCF9192
:10038000DF911F910F91FF90EF90DF90CF90BF9082
:10039000AF90089580EA93E040E855E260E070E0B5
:1003A0000E94681180EA93E00E9499128823D1F399
:1003B00080EA93E06EE471E00E94A6140CC080EA2B
:1003C00093E062E671E00E94A61468EE73E080E0BC
:1003D00090E00E94B70F8EE292E060E771E041E0AA
:1003E00021E00E94A104039751F780EA93E065E7BA
:1003F00071E00E94A614089580E00895FC0189EB45
:1004000091E0918380830E9693838283609353025D
:10041000089502960E94EF04089581E090E0909381
:1004200057028093560287E061E00E948A1060EDD7
:1004300077E080E090E00E94B70F87E060E00E94E4
:100440008A1081E090E0089581E090E09093570257
:100450008093560287E061E00E948A1060EE7EE29F
:1004600080E090E00E94B70F87E060E00E948A1071
:1004700068EE73E080E090E00E94B70F81E090E0CA
:1004800008959F92AF92BF92CF92DF92EF92FF9228
:100490000F931F93DF93CF93CDB7DEB763970FB65C
:1004A000F894DEBF0FBECDBF8C0187E061E00E94F3
:1004B0004B1087E061E00E948A106CED75E080E0EF
:1004C00090E00E94B70F87E060E00E948A1081E010
:1004D00090E0909357028093560284E692E00E9447
:1004E00000080E94A90F5B016C0182E0E82EF12C4C
:1004F000EC0EFD1EC801029665E770E0A7010E94A0
:10050000E1049E2CEF2C8E010F5F1F4F13C061E0A2
:1005100070E080E090E00E94B70F85E492E0B801BF
:10052000492D5E2D20E030E00E944106882311F025
:1005300089810CC00E94A90F6A197B098C099D0949
:10054000685873418040904010F380E063960FB686
:10055000F894DEBF0FBECDBFCF91DF911F910F91F9
:10056000FF90EF90DF90CF90BF90AF909F90089555
:10057000DF93CF930F92CDB7DEB7809150028130D9
:1005800019F0823039F50BC085E492E068E670E03E
:1005900041E00E94260682E0809350021BC085E461
:1005A00092E0BE016F5F7F4F40E050E020E030E01E
:1005B0000E944106882371F08981882329F085E40F
:1005C00092E061E070E004C085E492E063E070E0F6
:1005D0000E94F7040F90CF91DF9108950F931F931E
:1005E0008C0110924F0281E080935002B8016E5F3F
:1005F0007F4F85E492E043E050E00E945B05C80134
:100600000E94B80280914F0290E01F910F910895CF
:10061000CF92DF92EF92FF920F931F93DF93CF93CE
:10062000CDB7DEB769970FB6F894DEBF0FBECDBF6A
:10063000AC0180915002282F30E02130310541F487
:1006400082E08093500285E492E068E670E033C176
:100650002230310589F585E492E0BE016F5F7F4F5E
:1006600040E050E020E030E00E944106882309F499
:1006700025C18981882309F40CC1E0914B02F091D6
:100680004C02309709F40CC18081882309F408C119
:1006900085E492E066EC70E040E00E94260683E08C
:1006A0008093500260914B0270914C0285E492E07D
:1006B00041E00E94080602C123303105D1F485E4EF
:1006C00092E0BE016F5F7F4F40E050E020E030E0FD
:1006D0000E944106882309F4F1C08981882309F426
:1006E000D8C084E08093500285E492E00E948B059C
:1006F0003EC02430310509F043C08A010E5F1F4F10
:1007000022E0C22ED12CCC0EDD1EC8016AEB70E0B7
:10071000A6010E94E1049EE0E92EF12CEC0EFD1EE4
:10072000C8016EEA70E0A7010E94E10485E492E04E
:10073000BE016F5F7F4FA60197010E94410688238B
:1007400009F4BCC08981882341F085E08093500280
:1007500085E492E063EA70E0AEC085E492E00E9436
:100760008B05695873418040904008F092C085E441
:1007700092E040ED57E060E070E00E94660597C0AF
:1007800025303105F1F485E492E0BE016F5F7F4FC3
:1007900040E050E020E030E00E944106882309F468
:1007A0008DC085E492E040ED57E060E070E00E948B
:1007B000660586E08093500285E492E069E970E086
:1007C0007AC026303105B1F485E492E0BE016F5F56
:1007D0007F4F40E050E020E030E00E944106882357
:1007E00009F46CC087E08093500285E492E06FE8E2
:1007F00070E061C027303105B1F485E492E0BE01BC
:100800006F5F7F4F40E050E020E030E00E94410603
:10081000882309F453C088E08093500285E492E075
:100820006AE870E048C028303105A9F485E492E018
:10083000BE016F5F7F4F40E050E020E030E00E945B
:1008400041068823D9F189E08093500285E492E043
:1008500060E870E030C02930310581F585E492E030
:10086000BE016F5F7F4F40E050E020E030E00E942B
:100870004106882319F18981882359F083E090E0AB
:10088000909357028093560285E492E061E070E015
:1008900004C085E492E063E070E00E94F7040EC0BB
:1008A00084E08093500285E492E00E948B0585E409
:1008B00092E06BE670E041E00E94260669960FB672
:1008C000F894DEBF0FBECDBFCF91DF911F910F9186
:1008D000FF90EF90DF90CF9008950F931F938C01BE
:1008E00070934C0260934B02BC016E5F7F4F85E4B6
:1008F00092E042E050E00E945B0582E090E090933D
:10090000570280935602C8010E94080380914F024B
:1009100090E01F910F91089502970E94900408950E
:1009200020915102309152022230310521F02330C2
:10093000310531F403C00E94080308950E94B802F3
:100940000895EF92FF920F931F93CF93DF93EC01E3
:100950007B01142F022F87E061E00E944B101123CE
:1009600021F0CE010E94240203C0CE010E940D029C
:1009700084E692E040E855E260E070E00E948E0775
:10098000CE01B7010E946D04002339F40FC068EE58
:1009900073E080E090E00E94B70FE881F981068063
:1009A000F781E02DCE010995892B89F380915602BC
:1009B00090915702DF91CF911F910F91FF90EF908F
:1009C000089580E090E0FB01E80FF91FE491DA015F
:1009D000A80FB91FEC930196EE23A9F7089585E4BB
:1009E00092E00E94F00580914F0290E00895FC0192
:1009F0006130710551F0809151029091520202973D
:100A000021F41092570210925602628781E090E022
:100A100095878487128E118E81E083870895CF9207
:100A2000DF92EF92FF920F931F93CF93DF937C019E
:100A3000D62EC42E8C01C0E0D0E0F801A389B48981
:100A4000109711F480E009C0ED91FC91119702809C
:100A5000F381E02DCD016D2D09952196C330D1058F
:100A600029F00E5F1F4F882341F311C0882379F4CA
:100A7000F701A18DB28D109751F0ED91FC91119776
:100A80000190F081E02DCD016D2D4C2D0995DF9168
:100A9000CF911F910F91FF90EF90DF90CF9008952D
:100AA000FC018685882319F06787408B0895CF0164
:100AB0000E940F050895FC01728F618F128681E0FC
:100AC0008387558744871786108A0895AF92BF920F
:100AD000CF92DF92EF92FF920F931F935A016B0117
:100AE000EE24FF24870109C088EE93E00E94AD0840
:100AF0000894E11CF11C011D111DEA14FB040C05F6
:100B00001D0590F31F910F91FF90EF90DF90CF9014
:100B1000BF90AF900895CF92DF92EF92FF920F9324
:100B20001F938C010E94A90FF801238D348D458DF0
:100B3000568D6B017C01C21AD30AE40AF50AA7019B
:100B40009601638F748F858F968FB601CA011F91AE
:100B50000F91FF90EF90DF90CF90089502970E9441
:100B6000B20508951F93CF93DF93EC01162F8E8566
:100B7000882319F0862F0E94740CCE014F96612FA6
:100B80000E940508DF91CF911F910895EF92FF9287
:100B90000F931F93CF93DF937C01042FEB01FE0192
:100BA0001491112349F0D701ED91FC910280F3815A
:100BB000E02DC701612F09952196112381F70023AC
:100BC00031F0C701029665E871E00E94A31481E04C
:100BD00090E0DF91CF911F910F91FF90EF900895DA
:100BE000CF93DF93EC018E85882379F09F858889E8
:100BF000981759F0CE01C2960E94900CCE016F85D5
:100C000048890E940F051F86188ADF91CF910895A9
:100C1000DF92EF92FF920F931F938C017B01D42EF2
:100C2000C2960E94330B0E5F1F4FC801B7010E948E
:100C3000A314DD2029F0C80165E871E00E94A31427
:100C40001F910F91FF90EF90DF900895DF92EF9248
:100C5000FF920F931F938C017B01D42EC2960E94AA
:100C6000330BD801ED91FC910480F581E02DC80192
:100C7000B7014D2D09951F910F91FF90EF90DF90D7
:100C80000895EF92FF920F931F93CF93DF937B0111
:100C9000E9014115510539F42115310521F440913F
:100CA000B3015091B4018C010E5C1F4FC801BA0111
:100CB0000E94CF0BF7018083882341F4209731F005
:100CC000C801BE010E94CF0BF701808381E0DF9154
:100CD000CF911F910F91FF90EF9008950F931F9365
:100CE0008C01FC01158214828FEC91E0918380834A
:100CF0000A9693838283C8014F960E94C60AF80120
:100D000010A707A31786108A81E08287138681E0E7
:100D100090E095878487C8010E948B05F801148AAA
:100D2000138A168A158A108E178A1F910F910895BB
:100D300085E492E00E946E060895FC0113821282FF
:100D400088EE93E0A0E0B0E084839583A683B78328
:100D500081EE91E091838083662319F08485816020
:100D600084870895E0910D03F0910E03A081B18175
:100D700050962D913C915197CF01F9010995089515
:100D8000A0910D03B0910E03ED91FC91119702809B
:100D9000F381E02DCD01099581E090E00895E09187
:100DA0000D03F0910E03A081B1811E962D913C910F
:100DB0001F97CF01F90109950895E0910D03F09176
:100DC0000E03A081B18118962D913C911997CF0106
:100DD000F901099508950F9385E093E060E040E004
:100DE00020E000E00E94F1128BEF92E00E94C80C1C
:100DF0000F910895EF92FF920F931F93CF93DF937C
:100E0000EC018C8580FF1BC00E94A90F7B018C0127
:100E10000E94A90F6E197F09800B910B60517742D8
:100E200080409040C0F4CE010E94B206892B99F414
:100E300064E670E080E090E00E94B70FE9CFCE0159
:100E40000E94B2069C01C901DF91CF911F910F91C1
:100E5000FF90EF900895CE010E94B20620E030E0AE
:100E6000019789F721E030E0EECF0F931F938C01BB
:100E7000A0910D03B0910E03ED91FC9111970680A6
:100E8000F781E02DCD010995BC01C8010E94FA0649
:100E90001F910F9108950F931F938C01A0910D0343
:100EA000B0910E03ED91FC9111970284F385E02D32
:100EB000CD010995C80161E070E00E94FA061F911A
:100EC0000F9108950F931F938C01A0910D03B09182
:100ED0000E03ED91FC9111970480F581E02DCD0179
:100EE0000995BC01C8010E94FA061F910F9108954F
:100EF0000F931F938C01A0910D03B0910E03ED9100
:100F0000FC9111970190F081E02DCD010995BC0174
:100F1000C8010E94FA061F910F910895CF92DF92A7
:100F2000EF92FF920F931F93CF93DF93EC017A011F
:100F30008B01198A188A1F861E861D861C861B86B1
:100F40001A8620E030E06901CC0CDD1CC20ED31EF5
:100F5000B601660F771F660F771FAB0141535F4FD6
:100F6000FA0185919591A591B4918E159F05A007E1
:100F7000B107E9F4FB01ED52FF4F859194919B87F6
:100F80008A87FB01EB52FF4F859194919D878C8757
:100F9000FB01E952FF4F859194919F878E87FB015A
:100FA000E752FF4F85919491998B888B06C02F5FF4
:100FB0003F4F2C30310509F0C6CF8E859F85892B98
:100FC00091F08091680084608093680080916D004A
:100FD000846080936D008889998920E001972FEFC4
:100FE0008F3F9207D9F7D0930C03C0930B03DF9187
:100FF000CF911F910F91FF90EF90DF90CF900895C8
:1010000010920C0310920B030895CF93DF93EC0121
:1010100088899989892B19F420E030E03BC061313F
:1010200081F4E881F9810280F381E02DCE0167E748
:101030000995E881F9810280F381E02DCE016EEE01
:1010400027C0633181F4E881F9810280F381E02DCA
:10105000CE0167E70995E881F9810280F381E02DEF
:10106000CE016CEE15C0E881F981673769F4028022
:10107000F381E02DCE010995E881F9810280F381A9
:10108000E02DCE0168E804C00280F381E02DCE019E
:1010900009959C01C901DF91CF9108950F931F938A
:1010A000DC011FB7F8941696ED91FC91179790818B
:1010B00015968C91159780958923808350968D91F4
:1010C0009C915197059620E001972FEF8F3F920753
:1010D000D9F731E040E050E070E000E0832F90E08D
:1010E000862397231696ED91FC91179715962C91D0
:1010F0001597892B21F08081822B808304C0808109
:1011000020952823208350968D919C915197202FD4
:1011100001972FEF8F3F9207D9F7330F4F5F5F4F44
:1011200048305105D9F61696ED91FC9117978081BC
:1011300015969C911597892B80831FBF50968D9192
:101140009C91519720E001972FEF8F3F9207D9F79D
:1011500081E090E01F910F91089520E001972FEF1B
:101160008F3F9207D9F70895FC01DB012C912F3FA7
:1011700039F4928991FF0BC082E09827928B05C0C9
:10118000273729F482898160828B80E008958289E3
:1011900080FD02C081E008952E3E11F481E107C078
:1011A0002C3E11F483E103C0283811F487E78C93B7
:1011B000828991E08927828B81E00895FC01A081DA
:1011C000B18112962D913C91139761E1F901099536
:1011D00008954F925F926F927F929F92AF92BF92CB
:1011E000CF92DF92EF92FF920F931F93DF93CF93F3
:1011F0000F92CDB7DEB78C012F933F934F935F9340
:101200006F937F93AF93BF931982DC011396ED9197
:10121000FC911497808112969C91892309F0CDC08E
:1012200033E1A32EB12CA00EB11E99249394EE2489
:10123000CC242E010894411C511C21E0622E712CFB
:10124000F8018489828593852C2D01972FEF8F3F9C
:101250009207D9F7D80153969C91539754968C9145
:101260005497FF248095890F8F77863070F4FF2480
:10127000F394EE2051F41696ED91FC91179790811E
:1012800015968C9180958923808331E040E050E071
:10129000F801848595852C2D01972FEF8F3F9207BC
:1012A000D9F7D8011396ED91FC911497808112968D
:1012B0009C9189239981882311F0932B03C0832F5C
:1012C000809598239983FF20A9F0EE2099F4832F2D
:1012D0008371D8011696ED91FC91179715969C9104
:1012E000882321F08081892B808304C080819095A0
:1012F00098239083330F4F5F5F4F4830510541F67D
:10130000FF2009F473C0EE2099F4F80184859585D7
:101310002E2D01972FEF8F3F9207D9F7D801169600
:10132000ED91FC911797808115969C91892B808374
:10133000F80182898260828BEE24E394C801B201B5
:101340000E94B408882351F0C50169810E94EA0A0D
:10135000992021F0D8015496DC909924D801139655
:10136000ED91FC91149712965C9120E030E0C3015E
:101370004C2D01974FEF8F3F9407D9F7808185233C
:1013800009F45ECF2F5F3F4F2233310581F7FF20F5
:1013900029F489818A3011F0803279F4F801A0852E
:1013A000B185109751F04489ED91FC91119701900E
:1013B000F081E02DCD016D2D0995BF91AF917F9109
:1013C0006F915F914F913F912F910F90CF91DF914E
:1013D0001F910F91FF90EF90DF90CF90BF90AF9053
:1013E0009F907F906F905F904F900895D8011E96C8
:1013F0008D919C911F972F2D01972FEF8F3F920773
:10140000D9F79CCF1F920F920FB60F9211242F93F2
:101410003F934F935F936F937F938F939F93AF937C
:10142000BF93EF93FF9380910B0390910C03009770
:1014300011F00E94E908FF91EF91BF91AF919F9148
:101440008F917F916F915F914F913F912F910F906D
:101450000FBE0F901F9018951F920F920FB60F920C
:1014600011242F933F934F935F936F937F938F93A9
:101470009F93AF93BF93EF93FF9380910B03909152
:101480000C03009711F00E94E908FF91EF91BF91C2
:10149000AF919F918F917F916F915F914F913F910C
:1014A0002F910F900FBE0F901F9018951F920F92C3
:1014B0000FB60F9211242F933F934F935F936F9327
:1014C0007F938F939F93AF93BF93EF93FF938091FD
:1014D0000B0390910C03009711F00E94E908FF9113
:1014E000EF91BF91AF919F918F917F916F915F919C
:1014F0004F913F912F910F900FBE0F901F90189515
:101500000F931F938C0182E060E00E944B1082E0F9
:1015100061E00E948A10EDEBF1E0E491D8011296AF
:10152000EC931297E9EAF1E0E491F0E0EE0FFF1F8F
:10153000E356FE4F8591949114969C938E93139746
:101540001F910F9108950F931F938C0183E061E029
:101550000E944B1083E061E00E948A10EEEBF1E004
:10156000E491D8011596EC931597EAEAF1E0E4913D
:10157000F0E0EE0FFF1FED56FE4F85919491179608
:101580009C938E9316971F910F9108950F931F931D
:101590008C0181EF91E0F80191838083138612869C
:1015A0001586148617861686118A108AC8014396F6
:1015B000B8010E94E40AC8010E94A30AC8010E945F
:1015C000800A1F910F910895FC011082118273838C
:1015D00062830895DC0111969C9111979F5F9F771C
:1015E0008C91981719F420E030E00FC011968C917F
:1015F0001197FD01E80FF11D6483FD01E90FF11D55
:10160000148211969C9321E030E0C9010895DC0119
:101610009C9111968C911197981711F490E009C044
:101620008C91FD01E80FF11D94818C918F5F8F7774
:101630008C93892F0895FC0191818081891718F47A
:101640009181808103C0918180819058981B892F5E
:1016500090E06817790714F080E008958081E80F22
:10166000F11D84810895FC01818180830895BF92DA
:10167000CF92DF92EF92FF920F931F93CF93DF935E
:101680006C01EB01B22F88818823E1F160E070E00A
:10169000A0E034C0542FF601E50FF11D248130E0A5
:1016A000FE01E60FF71F8081992787FD9095281787
:1016B0003907C1F4AA2309F4B52E6F5F7F4FFE01ED
:1016C000E60FF71F8081882311F0A1E011C00115FA
:1016D000110511F0F801B082E114F10499F0F7015D
:1016E000508310C0AA2321F060E070E0A0E004C0A5
:1016F0005F5F5F775B1779F64F5F4F774B1751F658
:1017000080E001C081E0DF91CF911F910F91FF90A8
:10171000EF90DF90CF90BF900895AF92BF92CF929D
:10172000DF92EF92FF920F931F93DF93CF9300D03E
:10173000CDB7DEB76C01B42EA22EFC014081218111
:101740008E010F5F1F4F32E0E32EF12CEC0EFD1ED9
:101750000E94370B8823B1F0AA2051F0BB2021F062
:101760008A818F5F8F7701C08981F601808309C0EC
:10177000BB2021F08A818F5F8F7701C08981F601BC
:10178000818381E00F900F90CF91DF911F910F9196
:10179000FF90EF90DF90CF90BF90AF900895EF92C1
:1017A000FF920F931F93FC014081218100E010E024
:1017B000EE24FF240E94370B1F910F91FF90EF90B2
:1017C00008958F929F92AF92BF92CF92DF92EF9245
:1017D000FF920F931F93DF93CF9300D0CDB7DEB767
:1017E0006C015A014901FC014081218100E010E0B7
:1017F0007E010894E11CF11C0E94370B882359F1EB
:1018000049814F5F4983F6012181C601B5018E01EF
:101810000E5F1F4FEE24FF240E94370B8823D9F060
:10182000498120E030E008C0EC0DFD1D84818C93DF
:101830002F5F3F4F4F5F4F77E42FF0E08A8190E0BA
:101840008F779070D401A20FB31FE817F90761F7E3
:101850001C9281E001C080E00F900F90CF91DF914A
:101860001F910F91FF90EF90DF90CF90BF90AF90BE
:101870009F908F900895DC014C914F5F20E030E005
:1018800090E060E025C0FD01E40FF11D548150326D
:1018900019F4992329F41AC05D3211F49923A1F0A7
:1018A000852F80538A30C8F4C901E3E0880F991F5F
:1018B000EA95E1F7220F331F280F391F20533040DC
:1018C000250F311D91E002C091E061E04F5F4F773D
:1018D00011968C9111974817B1F6662319F030953F
:1018E00021953F4FC90108951F93182F80528F35BE
:1018F00020F480EA93E0612F0FC080EA93E065E274
:101900000E94871380EA93E0612F4AE050E00E9432
:101910003E1480EA93E065E20E9487131F910895C8
:101920000F931F93CF93DF93EC011881098180EA15
:1019300093E00E948F1380EA93E0612F4AE050E029
:101940000E943E1480EA93E06AE871E00E94A314CA
:1019500080EA93E0602F4AE050E00E943E1480EA63
:1019600093E06EE30E94871308C0FE01E10FF11DB2
:1019700084810E94740C1F5F1F771017B1F780EAF3
:1019800093E00E948F13DF91CF911F910F910895E3
:10199000FC018BEF91E0918380834896938382834F
:1019A000F0930E03E0930D03089502960E94EF0456
:1019B000089585E492E00E94B20508950F931F9365
:1019C000DF93CF930F92CDB7DEB78C018091500299
:1019D000813019F08230B1F51AC082E08093500254
:1019E00085E492E06FE571E040E00E942606F80190
:1019F0006481758187E492E04AE050E00E9490148F
:101A000087E492E06CE871E00E94A3141BC085E4B7
:101A100092E0BE016F5F7F4F40E050E020E030E099
:101A20000E944106882371F08981882329F085E48A
:101A300092E061E070E004C085E492E063E070E071
:101A40000E94F7040F90CF91DF911F910F9108959D
:101A5000DF93CF930F92CDB7DEB7809150028130E4
:101A600019F0823059F50FC082E08093500285E46E
:101A700092E06AE10E94B20587E492E06CE871E0CE
:101A80000E94A3141BC085E492E0BE016F5F7F4FEC
:101A900040E050E020E030E00E944106882371F0F1
:101AA0008981882329F085E492E061E070E004C038
:101AB00085E492E063E070E00E94F7040F90CF911C
:101AC000DF9108950F931F938C01BC016E5F7F4FD0
:101AD00085E492E045E050E00E945B05C8010E9469
:101AE000280D80914F0290E01F910F910895DF9390
:101AF000CF930F92CDB7DEB780915002813019F0AD
:101B00008230A9F519C082E08093500285E492E00A
:101B10006FE771E040E00E94260660914B027091F1
:101B20004C0287E492E00E94A31487E492E06EE8FE
:101B300071E00E94A3141BC085E492E0BE016F5FB8
:101B40007F4F41E951E020E030E00E9441068823C8
:101B500071F08981882329F085E492E061E070E0EA
:101B600004C085E492E063E070E00E94F7040F9007
:101B7000CF91DF910895CF93DF93EC0180915602CE
:101B8000909157028330910541F0049731F022E0A3
:101B900030E0C901DF91CF91089570934C026093BA
:101BA0004B02BE016E5F7F4F85E492E044E050E05F
:101BB0000E945B05CE010E94770D80914F02282F75
:101BC00030E0E7CF0F931F93CF93DF938C01C0E0FA
:101BD000D0E087E792E00E94330B84E692E00E9417
:101BE000DE086AE070E080E090E00E94B70F219686
:101BF000C530D10571F7B8016E5F7F4F85E492E083
:101C000047E050E00E945B05C8010E94DE0CDF91B6
:101C1000CF911F910F910895FC018681882351F483
:101C200081E0868387E792E063E971E041E021E0AB
:101C30000E948D0B87E792E060E070E00E941B0B32
:101C4000282F332727FD3095C90108950F931F933F
:101C5000CF93DF93EC018E81882351F481E08E8352
:101C600087E792E063E971E041E021E00E948D0B9B
:101C700087E792E00E94070B182F8985882341F09F
:101C8000198687E792E065E971E00E94CF0B8887AB
:101C90008885882359F58F81882369F1909177028F
:101CA000809178028095890F8F77012F112707FD8A
:101CB00010958F3709F045C087E792E00E94330BFB
:101CC0001F8281E08987229685E492E0BE0140E090
:101CD00050E00E945B0584E692E00E94DE086AE024
:101CE00070E080E090E00E94B70F2BC087E792E0A1
:101CF00065E971E004C087E792E06BE971E00E945A
:101D0000CF0B882329F0212F332727FD30951AC0C8
:101D100087E792E00E94330B229685E492E0BE01B1
:101D200040E050E00E945B0584E692E00E94DE08FD
:101D30006AE070E080E090E00E94B70F20E030E0C1
:101D400001C09801C901DF91CF911F910F910895B2
:101D50000F931F939B018A0187E792E062EA71E08B
:101D60004AEA51E00E94E10B81E090E01F910F915F
:101D700008950F931F93CF93DF93EC018B01909104
:101D80007702809178021F828095890F8F77853046
:101D900010F481E08F8387E792E06CEA71E041E024
:101DA00021E00E948D0B882319F4F801108203C0F2
:101DB00081E0F801808387E792E00E943B0C9D83DD
:101DC0008C8387E792E065E971E00E94CF0B8887FA
:101DD000198681E0DF91CF911F910F910895DF93D4
:101DE000CF930F92CDB7DEB720915002213019F07A
:101DF000223009F50BC085E492E068E671E041E02D
:101E00000E94260682E08093500215C0BE016F5FDB
:101E10007F4F0E94B90E882371F08981882329F4AD
:101E200085E492E064E070E004C085E492E061E063
:101E300070E00E94F7040F90CF91DF910895029710
:101E40000E94230F089520915102309152022530B3
:101E50003105B9F0263031053CF42130310559F017
:101E600024303105B1F40AC02630310569F027303D
:101E7000310579F40CC06093780208950E94770DC3
:101E800008950E94280D08950E94EF0E08950E9463
:101E9000DE0C08950F931F938C01FC011682BC0188
:101EA0006E5F7F4F85E492E046E050E00E945B0564
:101EB000C8010E94EF0E80914F0290E01F910F9198
:101EC00008951F920F920FB60F9211242F933F93F4
:101ED0008F939F93AF93BF938091130390911403BB
:101EE000A0911503B0911603309117030196A11D1F
:101EF000B11D232F2D5F2D3720F02D570196A11DE9
:101F0000B11D209317038093130390931403A093A0
:101F10001503B093160380910F0390911003A091C5
:101F20001103B09112030196A11DB11D80930F03FF
:101F300090931003A0931103B0931203BF91AF913C
:101F40009F918F913F912F910F900FBE0F901F90F7
:101F500018958FB7F8942091130330911403409192
:101F60001503509116038FBFB901CA0108959B0153
:101F7000AC017FB7F89480910F0390911003A0916A
:101F80001103B091120366B5A89B05C06F3F19F00D
:101F90000196A11DB11D7FBFBA2FA92F982F8827A9
:101FA000860F911DA11DB11D62E0880F991FAA1F08
:101FB000BB1F6A95D1F7BC012DC0FFB7F894809183
:101FC0000F0390911003A0911103B0911203E6B595
:101FD000A89B05C0EF3F19F00196A11DB11DFFBFE1
:101FE000BA2FA92F982F88278E0F911DA11DB11DE3
:101FF000E2E0880F991FAA1FBB1FEA95D1F7861B45
:10200000970B885E9340C8F22150304040405040CA
:1020100068517C4F211531054105510571F6089530
:10202000789484B5826084BD84B5816084BD85B5B3
:10203000826085BD85B5816085BDEEE6F0E080817A
:1020400081608083E1E8F0E010828081826080839B
:10205000808181608083E0E8F0E08081816080831E
:10206000E1EBF0E0808184608083E0EBF0E0808150
:1020700081608083EAE7F0E08081846080838081F2
:10208000826080838081816080838081806880839A
:102090001092C1000895CF93DF93482F50E0CA01FA
:1020A00085549E4FFC01349149555E4FFA0184914D
:1020B000882369F190E0880F991FFC01E757FE4FD4
:1020C000A591B491FC01ED56FE4FC591D4916623C4
:1020D00051F42FB7F8948C91932F909589238C937A
:1020E000888189230BC0623061F42FB7F8948C91FA
:1020F000932F909589238C938881832B88832FBF7E
:1021000006C09FB7F8948C91832B8C939FBFDF916F
:10211000CF910895482F50E0CA0181539E4FFC0192
:102120002491CA0185549E4FFC01949149555E4FFC
:10213000FA013491332309F440C0222351F12330B2
:1021400071F0243028F42130A1F0223011F514C0B0
:102150002630B1F02730C1F02430D9F404C080918A
:1021600080008F7703C0809180008F7D80938000F6
:1021700010C084B58F7702C084B58F7D84BD09C03F
:102180008091B0008F7703C08091B0008F7D8093E5
:10219000B000E32FF0E0EE0FFF1FED56FE4FA591CC
:1021A000B4912FB7F894662321F48C9190958923EC
:1021B00002C08C91892B8C932FBF089508951F9294
:1021C0000F920FB60F9211242F933F934F938F933B
:1021D0009F93EF93FF938091C00082FD1DC04091BB
:1021E000C60020915803309159032F5F3F4F2F7342
:1021F000307080915A0390915B032817390771F072
:10220000E0915803F0915903E85EFC4F408330930E
:1022100059032093580302C08091C600FF91EF91AB
:102220009F918F914F913F912F910F900FBE0F90E3
:102230001F901895E091AC03F091AD03E05CFF4F67
:102240008191919120813181821B930B8F739070CA
:10225000892B11F00E94DE1008951F920F920FB685
:102260000F9211242F933F938F939F93EF93FF939C
:1022700020919C0330919D0380919E0390919F0338
:102280002817390731F48091C1008F7D8093C100F8
:1022900014C0E0919E03F0919F03E45AFC4F20810B
:1022A00080919E0390919F0301968F7390709093FD
:1022B0009F0380939E032093C600FF91EF919F910F
:1022C0008F913F912F910F900FBE0F901F901895F7
:1022D000AF92BF92DF92EF92FF920F931F93CF9333
:1022E000DF93EC017A018B01DD24403081EE580749
:1022F00080E0680780E0780711F0DD24D39491E056
:10230000A92EB12CEC89FD89DD2069F0C50108A05A
:1023100002C0880F991F0A94E2F7808360E079E099
:102320008DE390E005C0108260E874E88EE190E0F3
:10233000A80197010E94D8142150304040405040DD
:10234000569547953795279580E12030380720F03E
:10235000DD2011F0DD24D6CFE889F9893083EA89C0
:10236000FB89208319A2EE89FF89408121E030E0BA
:10237000C9010C8C02C0880F991F0A94E2F7482B00
:102380004083EE89FF894081C9010D8C02C0880F0E
:10239000991F0A94E2F7482B4083EE89FF89408118
:1023A000C9010E8C02C0880F991F0A94E2F7482BCE
:1023B0004083EE89FF8980810F8C02C0220F331F7A
:1023C0000A94E2F7209528232083DF91CF911F9173
:1023D0000F91FF90EF90DF90BF90AF900895DC01D8
:1023E0001C96ED91FC911D97E05CFF4F219131917E
:1023F00080819181281B390B2F733070C90108959A
:10240000DC011C96ED91FC911D97E05CFF4F208153
:102410003181E054F040DF01AE5BBF4F8D919C9164
:1024200011972817390719F42FEF3FEF07C08D9147
:102430009C91E80FF91F8081282F30E0C901089591
:10244000DC011C96ED91FC911D97E05CFF4F208113
:102450003181E054F040DF01AE5BBF4F8D919C9124
:1024600011972817390719F42FEF3FEF10C08D91FE
:102470009C911197E80FF91F20818D919C911197E4
:1024800001968F73907011969C938E9330E0C901E2
:102490000895DC0191968C919197882339F0549698
:1024A000ED91FC915597808186FFF9CF91961C9212
:1024B0000895CF93DF93EC01EE85FF85E05CFF4F3D
:1024C00020813181E054F0402F5F3F4F2F733070F7
:1024D000DF01AE5BBF4F8D919C9111972817390793
:1024E000D1F3E05CFF4F80819181E054F040E80F30
:1024F000F91F6083EE85FF85E05CFF4F3183208309
:10250000EE89FF89208181E090E00F8C02C0880F66
:10251000991F0A94E2F7282B208381E089A3EC8994
:10252000FD8980818064808381E090E0DF91CF919C
:10253000089581E008951092A3031092A20388EEFB
:1025400093E0A0E0B0E08093A4039093A503A09350
:10255000A603B093A7038BE192E09093A10380932D
:10256000A00388E193E09093AD038093AC038CE5E6
:1025700093E09093AF038093AE0385EC90E090934B
:10258000B1038093B00384EC90E09093B303809305
:10259000B20380EC90E09093B5038093B40381EC98
:1025A00090E09093B7038093B60382EC90E0909311
:1025B000B9038093B80386EC90E09093BB038093BB
:1025C000BA0384E08093BC0383E08093BD0387E07B
:1025D0008093BE0385E08093BF0381E08093C003B6
:1025E00008950F93FC018BE292E0918380836283D4
:1025F0004383248305830F9108958BE292E09093A7
:10260000C3038093C2031092C4031092C5031092B7
:10261000C6031092C70308958F929F92AF92BF9204
:10262000CF92DF92EF92FF920F931F93CF93DF939E
:102630004C016B017C01AA24BB24C0E0D0E0C601A0
:10264000F70162814AE050E00E943E148C01C6010D
:102650006EE20E948713080F191FA00EB11E21966B
:102660000894E11CF11CC330D10549F7C601F401FF
:1026700065814AE050E00E943E149501280F391F01
:10268000C901DF91CF911F910F91FF90EF90DF90E3
:10269000CF90BF90AF909F908F900895CF93DF938E
:1026A0000E9410100E94CA01CAE1D1E10E9461019A
:1026B0002097E1F30E941A11F9CFCF92DF92EF92A7
:1026C000FF920F931F93CF93DF937C016B018A01DD
:1026D000C0E0D0E00FC0D6016D916D01D701ED9142
:1026E000FC910190F081E02DC7010995C80FD91F19
:1026F000015010400115110571F7CE01DF91CF9106
:102700001F910F91FF90EF90DF90CF900895DC0123
:10271000ED91FC910190F081E02D09950895EF92E3
:10272000FF920F931F938C01DC01ED91FC910190BE
:10273000F081E02D6DE009957C01D801ED91FC91CF
:102740000190F081E02DC8016AE009959C012E0DF1
:102750003F1DC9011F910F91FF90EF900895CF93F6
:10276000DF93EC016115710519F420E030E00FC032
:10277000DB010D900020E9F71197A61BB70BE8814C
:10278000F9810280F381E02DAD0109959C01C90119
:10279000DF91CF9108954F925F927F928F929F9297
:1027A000AF92BF92CF92DF92EF92FF920F931F935F
:1027B000DF93CF93CDB7DEB7A1970FB6F894DEBF06
:1027C0000FBECDBF2C01742ECB01223008F42AE0BD
:1027D00019A231E2C32ED12CCC0EDD1E822E9924FB
:1027E000AA24BB24672D752FA50194010E94D8143B
:1027F00079018A01C801B701A50194010E94B914A9
:10280000472D461B0894C108D1084A3014F4405D96
:1028100001C0495CF6014083E114F1040105110592
:1028200021F07E2C5F2DC801DDCFC201B6010E94D0
:10283000AF13A1960FB6F894DEBF0FBECDBFCF91F8
:10284000DF911F910F91FF90EF90DF90CF90BF909D
:10285000AF909F908F907F905F904F900895DC0194
:102860002115310541F4ED91FC910190F081E02DAD
:10287000642F099508950E94CB130895EF92FF925B
:102880000F931F939A01E62EFF2400E010E0B80199
:10289000A7010E942F141F910F91FF90EF900895B0
:1028A000CF92DF92EF92FF920F931F93CF93DF931C
:1028B000EC016A017B012115310541F4E881F981C0
:1028C0000190F081E02D642F09951FC02A30310559
:1028D000D1F477FF17C0E881F9810190F081E02DF4
:1028E0006DE209958C0144275527BA014C195D0901
:1028F0006E097F09CE012AE00E94CB139801280FB0
:10290000391F04C02AE00E94CB139C01C901DF914A
:10291000CF911F910F91FF90EF90DF90CF9008958E
:10292000EF92FF920F931F937B019A010027F7FC10
:102930000095102FB801A7010E9450141F910F910C
:10294000FF90EF9008950E94AF130895EF92FF92C9
:102950000F931F937C010E94AF138C01C7010E944B
:102960008F13080F191FC8011F910F91FF90EF904F
:102970000895629FD001739FF001829FE00DF11DC9
:10298000649FE00DF11D929FF00D839FF00D749FE9
:10299000F00D659FF00D9927729FB00DE11DF91F95
:1029A000639FB00DE11DF91FBD01CF0111240895F2
:1029B000A1E21A2EAA1BBB1BFD010DC0AA1FBB1F43
:1029C000EE1FFF1FA217B307E407F50720F0A21BB5
:1029D000B30BE40BF50B661F771F881F991F1A9422
:1029E00069F760957095809590959B01AC01BD014C
:1029F000CF010895EE0FFF1F0590F491E02D09948B
:042A0000F894FFCF78
:102A0400456E7465722061206D6F62696C65206E1D
:102A1400756D6265723A20004E6F772C20656E7476
:102A2400657220534D5320636F6E74656E743A2043
:102A34000053454E44494E47004D657373616765C5
:102A44003A000A434F4D504C455445210A00534D1A
:102A540053204D657373616765732053656E6465B8
:102A640072004E6F7420636F6E6E656374656400EC
:102A7400343232310047534D20696E697469616C98
:102A8400697A6564000D004F4B0020000D00220D93
:102A9400003E000A000D0A0D0A2B000D0A0D0A4F14
:102AA4004B0052454144222C220022002B434D4727
:102AB4004C3A00870100000000A104EE0241020923
:102AC400029004FEFF00008C04FC01000000005092
:102AD40005B205C605FEFF0000AE055D130000004B
:102AE40000C0065D133507CF06DD064B0700000066
:102AF40000DE084E08050800000000BB0DD90C627A
:102B04000D4A0F0C0EE20DA80E260ED50C230FFE57
:102B1400FF00001F0FFC010000000059125D13EFBD
:0E2B240011201200124912000000000C1300D4
:00000001FF
