:100000000C9498010C94C5010C94C5010C94C50185
:100010000C94C5010C94C5010C94C5010C94C50148
:100020000C94C5010C94040B0C94D60A0C94A80AE9
:100030000C94C5010C94C5010C94C5010C94C50128
:100040000C94C5010C94C5010C94C5010C94C50118
:100050000C94C5010C94C5010C94C5010C941510A9
:100060000C94C5010C940D120C9455130C94C501FD
:100070000C94C5010C94C5010C94C5010C94C501E8
:100080000C94C5010C94C5010C94C5010C94C501D8
:100090000C944D120C9494130C94C5010C94C5014E
:1000A0000C94C5010C94C5010C94C5010C94C501B8
:1000B0000C94C5010C94C5010C94C5010C94C501A8
:1000C0000C94C5010C94C5010C94C5010C948D12BF
:1000D0000C94D3130C94C5010C94CD120C941214EF
:1000E0000C94C50141540041542B43475245473FAE
:1000F00000504F57455220444F574E0041542B4318
:100100004F4C503D3100415445300041542B434C3D
:1001100049503D310041542B434D47463D3100414C
:10012000542B4946433D312C31002B434752454720
:100130003A20302C35002B43475245473A20302C8B
:10014000310041542B4350494E3D0000C201000193
:1001500000110011000C0000E100000A002500253C
:100160000021000096000019003900390036001205
:100170007A00001F00460046004400807000002204
:10018000004D004D004A00004B0000360075007520
:10019000007200403800004A009C009C00990080DA
:1001A0002500007200EC00EC00E900C0120000E93C
:1001B00000DA01DA01D70160090000D701B603B601
:1001C00003B303B0040000B3036E076E076B072C84
:1001D000010000DC0EC11DC11DBE1D41542B434D4D
:1001E00047443D0041542B434D474C3D225245432B
:1001F00020554E52454144222C310041542B434D51
:1002000047533D220000002100240027002A002D32
:10021000003000330001010000040107010A010061
:10022000002200250028002B002E0031003400029F
:10023000010000050108010B010000200023002639
:100240000029002C002F00320000010000030106ED
:10025000010901050505050705080808080202024D
:10026000020A0A0808040404040101010101010151
:10027000010303030303030303040707070C0C0C28
:100280000C0C0C0C0C020202020606060606060600
:10029000060B0B0B0B0B0B0B0B010210202008089D
:1002A00010204010204080020102010804020101D8
:1002B00002040810204080804020100804020180C1
:1002C0000402018040201008040201080402010118
:1002D0000204081020408001020408102040800021
:1002E00000090A02080B0C0D0706030401000000B8
:1002F00000000000000000000000000000000000FE
:10030000000000000000000000000011100F0000BD
:1003100000000000000000000000000000000000DD
:10032000000000000000C7013E0791078415C616B3
:1003300011241FBECFEFD1E2DEBFCDBF00E00CBF66
:1003400013E0A0E0B2E0E6E9F1E300E00BBF02C099
:1003500007900D92AE32B107D9F71BBE16E0AEE2A0
:10036000B3E001C01D92A63CB107E1F713E0C0E382
:10037000D3E004C02297FE010E94C518C632D107FF
:10038000C9F70E9417170C94C9180C9400000F931A
:100390008FE393E060E040E020E000E00E94BA16C6
:1003A0008EE293E060E00E94A40282E393E061E0C9
:1003B0000E9443070F9108950F931F93CF93DF93EC
:1003C0008C01C0E0D0E01BC088E396E00E940915D4
:1003D0008A3071F4C00FD11F188288E396E00E9422
:1003E000321580E090E0DF91CF911F910F91089539
:1003F0008D3029F0F801EC0FFD1F8083219688E3F2
:1004000096E00E94D81418161906CCF7DDCFAF92EB
:10041000BF92CF92DF92EF92FF920F931F93DF93E1
:10042000CF93CDB7DEB7CC5DD0400FB6F894DEBF2A
:100430000FBECDBF98E3E92E96E0F92EC70160E02C
:1004400072E00E946C185E010894A11CB11CC501E9
:100450000E94DC01C701B5010E946F18C70168E165
:1004600072E00E946C1885E1C82ED12CCC0EDD1EE6
:10047000C6010E94DC01C70161E372E00E946F18AF
:10048000C7010E945817C70169E372E00E946F1804
:10049000C701B6010E946F1802E313E0C801B5015D
:1004A0000E941E08C801B6010E946C18C8010E9473
:1004B0000808C70162E472E00E946F18C452DF4F5F
:1004C0000FB6F894DEBF0FBECDBFCF91DF911F9165
:1004D0000F91FF90EF90DF90CF90BF90AF90089575
:1004E00088E396E040E855E260E070E00E94511435
:1004F00088E396E00E9482158823D1F388E396E092
:100500006EE472E00E946F180CC088E396E062E629
:1005100072E00E946F1868EE73E080E090E00E9445
:100520006B108EE293E060E772E041E021E00E9410
:100530004705039751F788E396E065E772E00E946C
:100540006F18089580E00895FC0189EB92E0918393
:1005500080830E969383828360935303089502965B
:100560000E949505089581E090E090935703809351
:10057000560387E061E00E94D91160ED77E080E0EA
:1005800090E00E946B1087E060E00E94D91181E04A
:1005900090E0089581E090E0909357038093560394
:1005A00087E061E00E94D91160EE7EE280E090E099
:1005B0000E946B1087E060E00E94D91168EE73E042
:1005C00080E090E00E946B1081E090E008959F929F
:1005D000AF92BF92CF92DF92EF92FF920F931F9351
:1005E000DF93CF93CDB7DEB763970FB6F894DEBF36
:1005F0000FBECDBF8C0187E061E00E94261187E02D
:1006000061E00E94D9116CED75E080E090E00E94FD
:100610006B1087E060E00E94D91181E090E0909338
:1006200057038093560384E693E00E94A6080E9435
:100630005D105B016C0182E0E82EF12CEC0EFD1EDA
:10064000C801029661EF70E0A7010E9487059E2C09
:10065000EF2C8E010F5F1F4F13C061E070E080E050
:1006600090E00E946B1085E493E0B801492D5E2D67
:1006700020E030E00E94E706882311F089810CC059
:100680000E945D106A197B098C099D0968587341A5
:100690008040904010F380E063960FB6F894DEBF80
:1006A0000FBECDBFCF91DF911F910F91FF90EF90C3
:1006B000DF90CF90BF90AF909F900895DF93CF933E
:1006C0000F92CDB7DEB780915003813019F08230A0
:1006D00039F50BC085E493E064EE70E041E00E94E0
:1006E000CC0682E0809350031BC085E493E0BE01FA
:1006F0006F5F7F4F40E050E020E030E00E94E7066F
:10070000882371F08981882329F085E493E061E0F2
:1007100070E004C085E493E063E070E00E949D0512
:100720000F90CF91DF9108950F931F938C0110923A
:100730004F0381E080935003B8016E5F7F4F85E4E3
:1007400093E043E050E00E940106C8010E945E036E
:1007500080914F0390E01F910F910895CF92DF9207
:10076000EF92FF920F931F93DF93CF93CDB7DEB736
:1007700069970FB6F894DEBF0FBECDBFAC01809174
:100780005003282F30E02130310541F482E080937E
:10079000500385E493E064EE70E033C1223031050C
:1007A00089F585E493E0BE016F5F7F4F40E050E044
:1007B00020E030E00E94E706882309F425C1898102
:1007C000882309F40CC1E0914B03F0914C0330975E
:1007D00009F40CC18081882309F408C185E493E001
:1007E00062E471E040E00E94CC0683E08093500315
:1007F00060914B0370914C0385E493E041E00E94CB
:10080000AE0602C123303105D1F485E493E0BE0188
:100810006F5F7F4F40E050E020E030E00E94E7064D
:10082000882309F4F1C08981882309F4D8C084E0C1
:100830008093500385E493E00E9431063EC024304B
:10084000310509F043C08A010E5F1F4F22E0C22E1E
:10085000D12CCC0EDD1EC80166E371E0A6010E941A
:1008600087059EE0E92EF12CEC0EFD1EC8016AE220
:1008700071E0A7010E94870585E493E0BE016F5FE8
:100880007F4FA60197010E94E706882309F4BCC0A8
:100890008981882341F085E08093500385E493E0CB
:1008A0006FE171E0AEC085E493E00E9431066958C3
:1008B00073418040904008F092C085E493E040EDA1
:1008C00057E060E070E00E940C0697C025303105CB
:1008D000F1F485E493E0BE016F5F7F4F40E050E0AC
:1008E00020E030E00E94E706882309F48DC085E40B
:1008F00093E040ED57E060E070E00E940C0686E077
:100900008093500385E493E065E171E07AC026307E
:100910003105B1F485E493E0BE016F5F7F4F40E0A5
:1009200050E020E030E00E94E706882309F46CC024
:1009300087E08093500385E493E06BE071E061C051
:1009400027303105B1F485E493E0BE016F5F7F4F3E
:1009500040E050E020E030E00E94E706882309F400
:1009600053C088E08093500385E493E066E071E033
:1009700048C028303105A9F485E493E0BE016F5FDB
:100980007F4F40E050E020E030E00E94E7068823FF
:10099000D9F189E08093500385E493E06CEF70E037
:1009A00030C02930310581F585E493E0BE016F5FE9
:1009B0007F4F40E050E020E030E00E94E7068823CF
:1009C00019F18981882359F083E090E090935703CF
:1009D0008093560385E493E061E070E004C085E411
:1009E00093E063E070E00E949D050EC084E0809378
:1009F000500385E493E00E94310685E493E067EEBE
:100A000070E041E00E94CC0669960FB6F894DEBF14
:100A10000FBECDBFCF91DF911F910F91FF90EF904F
:100A2000DF90CF9008950F931F938C0170934C0328
:100A300060934B03BC016E5F7F4F85E493E042E01F
:100A400050E00E94010682E090E09093570380936B
:100A50005603C8010E94AE0380914F0390E01F919E
:100A60000F91089502970E94360508952091510331
:100A7000309152032230310521F02330310531F419
:100A800003C00E94AE0308950E945E030895EF9292
:100A9000FF920F931F93CF93DF93EC017B01142FF1
:100AA000022F87E061E00E942611112321F0CE0180
:100AB0000E94CA0203C0CE010E94B30284E693E002
:100AC00040E855E260E070E00E943408CE01B701D2
:100AD0000E941305002339F40FC068EE73E080E034
:100AE00090E00E946B10E881F9810680F781E02D8B
:100AF000CE011995892B89F3809156039091570364
:100B0000DF91CF911F910F91FF90EF90089580E0BA
:100B100090E0FB01E80FF91FE491DA01A80FB91F7B
:100B2000EC930196EE23A9F7089585E493E00E94E3
:100B3000960680914F0390E00895FC0161307105A5
:100B400051F08091510390915203029721F4109239
:100B5000570310925603628781E090E0958784875F
:100B6000128E118E81E083870895CF92DF92EF92EB
:100B7000FF920F931F93CF93DF937C01D62EC42E49
:100B80008C01C0E0D0E0F801A389B489109711F47A
:100B900080E009C0ED91FC9111970280F381E02D76
:100BA000CD016D2D19952196C330D10529F00E5F29
:100BB0001F4F882341F311C0882379F4F701A18DD9
:100BC000B28D109751F0ED91FC9111970190F08149
:100BD000E02DCD016D2D4C2D1995DF91CF911F91F9
:100BE0000F91FF90EF90DF90CF900895FC018685E4
:100BF000882319F06787408B0895CF010E94B505BF
:100C00000895FC01728F618F128681E0838755877A
:100C100044871786108A0895AF92BF92CF92DF92D1
:100C2000EF92FF920F931F935A016B01EE24FF2462
:100C3000870109C088EE93E00E9453090894E11CE3
:100C4000F11C011D111DEA14FB040C051D0590F398
:100C50001F910F91FF90EF90DF90CF90BF90AF90DA
:100C60000895CF92DF92EF92FF920F931F938C0122
:100C70000E945D10F801238D348D458D568D6B01DA
:100C80007C01C21AD30AE40AF50AA7019601638F10
:100C9000748F858F968FB601CA011F910F91FF90B7
:100CA000EF90DF90CF90089502970E945806089524
:100CB0001F93CF93DF93EC01162F8E85882319F0B5
:100CC000862F0E94280DCE014F96612F0E94AB08FF
:100CD000DF91CF911F910895EF92FF920F931F9391
:100CE000CF93DF937C01042FEB01FE0114911123BC
:100CF00049F0D701ED91FC910280F381E02DC7010D
:100D0000612F19952196112381F7002331F0C70136
:100D1000029665E872E00E946C1881E090E0DF9135
:100D2000CF911F910F91FF90EF900895CF93DF9394
:100D3000EC018E85882379F09F858889981759F072
:100D4000CE01C2960E94440DCE016F8548890E9453
:100D5000B5051F86188ADF91CF910895DF92EF9233
:100D6000FF920F931F938C017B01D42EC2960E9499
:100D7000E50B0E5F1F4FC801B7010E946C18DD2004
:100D800029F0C80165E872E00E946C181F910F916C
:100D9000FF90EF90DF900895DF92EF92FF920F9314
:100DA0001F938C017B01D42EC2960E94E50BD801C3
:100DB000ED91FC910480F581E02DC801B7014D2D26
:100DC00019951F910F91FF90EF90DF900895EF928A
:100DD000FF920F931F93CF93DF937B01E90141159E
:100DE000510539F42115310521F44091B302509198
:100DF000B4028C010E5C1F4FC801BA010E94820C24
:100E0000F7018083882341F4209731F0C801BE01A7
:100E10000E94820CF701808381E0DF91CF911F91C6
:100E20000F91FF90EF9008950F931F938C01FC0199
:100E3000158214828FEC92E0918380830A969383CB
:100E40008283C8014F960E94780BF80110A707A370
:100E50001786108A81E08287138681E090E095876B
:100E60008487C8010E943106F801148A138A168A01
:100E7000158A108E178A1F910F91089585E493E0CB
:100E80000E9414070895FC011382128288EE93E0F9
:100E9000A0E0B0E084839583A683B78381EE92E0DF
:100EA00091838083662319F0848581608487089507
:100EB000E0910D04F0910E04A081B18150962D9126
:100EC0003C915197CF01F90119950895A0910D0416
:100ED000B0910E04ED91FC9111970280F381E02D09
:100EE000CD01199581E090E00895E0910D04F09115
:100EF0000E04A081B1811E962D913C911F97CF01C8
:100F0000F90119950895E0910D04F0910E04A08166
:100F1000B18118962D913C911997CF01F90119953E
:100F200008950F9385E094E060E040E020E000E069
:100F30000E94BA168BEF93E00E947C0D0F910895EA
:100F4000EF92FF920F931F93CF93DF93EC018C8569
:100F500080FF1BC00E945D107B018C010E945D1010
:100F60006E197F09800B910B605177428040904051
:100F7000C0F4CE010E945807892B99F464E670E012
:100F800080E090E00E946B10E9CFCE010E945807EC
:100F90009C01C901DF91CF911F910F91FF90EF90BC
:100FA0000895CE010E94580720E030E0019789F7AC
:100FB00021E030E0EECF0F931F938C01A0910D0440
:100FC000B0910E04ED91FC9111970680F781E02D10
:100FD000CD011995BC01C8010E94A0071F910F9176
:100FE00008950F931F938C01A0910D04B0910E04EE
:100FF000ED91FC9111970284F385E02DCD011995B7
:10100000C80161E070E00E94A0071F910F91089550
:101010000F931F938C01A0910D04B0910E04ED91DC
:10102000FC9111970480F581E02DCD011995BC014B
:10103000C8010E94A0071F910F9108950F931F935D
:101040008C01A0910D04B0910E04ED91FC911197CB
:101050000190F081E02DCD011995BC01C8010E94DD
:10106000A0071F910F910895CF92DF92EF92FF9208
:101070000F931F93CF93DF93EC017A018B01198AB1
:10108000188A1F861E861D861C861B861A8620E0EF
:1010900030E06901CC0CDD1CC20ED31EB601660F18
:1010A000771F660F771FAB01455B5E4FFA01859195
:1010B0009591A591B4918E159F05A007B107E9F40C
:1010C000FB01E15BFE4F859194919B878A87FB0131
:1010D000EF5AFE4F859194919D878C87FB01ED5AC5
:1010E000FE4F859194919F878E87FB01EB5AFE4FAF
:1010F00085919491998B888B06C02F5F3F4F2C3040
:10110000310509F0C6CF8E859F85892B91F080919E
:10111000680081608093680080916B00806180939B
:101120006B008889998920E001972FEF8F3F920704
:10113000D9F7D0930C04C0930B04DF91CF911F918A
:101140000F91FF90EF90DF90CF90089510920C04D4
:1011500010920B040895CF93DF93EC01888999894D
:10116000892B19F420E030E03BC0613181F4E88143
:10117000F9810280F381E02DCE0167E71995E881BE
:10118000F9810280F381E02DCE016EEE27C063313C
:1011900081F4E881F9810280F381E02DCE0167E7D7
:1011A0001995E881F9810280F381E02DCE016CEE82
:1011B00015C0E881F981673769F40280F381E02D79
:1011C000CE011995E881F9810280F381E02DCE01ED
:1011D00068E804C00280F381E02DCE0119959C01DE
:1011E000C901DF91CF9108950F931F93DC011FB7C1
:1011F000F8941696ED91FC911797908115968C9125
:10120000159780958923808350968D919C91519755
:10121000059620E001972FEF8F3F9207D9F731E035
:1012200040E050E070E000E0832F90E086239723B9
:101230001696ED91FC91179715962C911597892B81
:1012400021F08081822B808304C080812095282317
:10125000208350968D919C915197202F01972FEFCD
:101260008F3F9207D9F7330F4F5F5F4F48305105DB
:10127000D9F61696ED91FC911797808115969C9161
:101280001597892B80831FBF50968D919C91519704
:1012900020E001972FEF8F3F9207D9F781E090E090
:1012A0001F910F91089520E001972FEF8F3F920734
:1012B000D9F70895FC01DB012C912F3F39F4928975
:1012C00091FF0BC082E09827928B05C0273729F445
:1012D00082898160828B80E00895828980FD02C0CE
:1012E00081E008952E3E11F481E107C02C3E11F4F7
:1012F00083E103C0283811F487E78C93828991E059
:101300008927828B81E00895FC01A081B18112962A
:101310002D913C91139761E1F901199508954F9230
:101320005F926F927F929F92AF92BF92CF92DF9225
:10133000EF92FF920F931F93DF93CF930F92CDB74E
:10134000DEB78C012F933F934F935F936F937F93FF
:10135000AF93BF931982DC011396ED91FC91149722
:10136000808112969C91892309F0CDC033E1A32E90
:10137000B12CA00EB11E99249394EE24CC242E01FE
:101380000894411C511C21E0622E712CF8018489C3
:10139000828593852C2D01972FEF8F3F9207D9F7E8
:1013A000D80153969C91539754968C915497FF244F
:1013B0008095890F8F77863070F4FF24F394EE20A8
:1013C00051F41696ED91FC911797908115968C919A
:1013D00080958923808331E040E050E0F8018485E6
:1013E00095852C2D01972FEF8F3F9207D9F7D801C4
:1013F0001396ED91FC911497808112969C9189230C
:101400009981882311F0932B03C0832F8095982313
:101410009983FF20A9F0EE2099F4832F8371D801DE
:101420001696ED91FC91179715969C91882321F0C3
:101430008081892B808304C080819095982390833C
:10144000330F4F5F5F4F4830510541F6FF2009F4DD
:1014500073C0EE2099F4F801848595852E2D0197AF
:101460002FEF8F3F9207D9F7D8011696ED91FC9197
:101470001797808115969C91892B8083F80182892A
:101480008260828BEE24E394C801B2010E945A0963
:10149000882351F0C50169810E949C0B992021F09D
:1014A000D8015496DC909924D8011396ED91FC91C3
:1014B000149712965C9120E030E0C3014C2D019707
:1014C0004FEF8F3F9407D9F78081852309F45ECFD2
:1014D0002F5F3F4F2233310581F7FF2029F48981A7
:1014E0008A3011F0803279F4F801A085B185109727
:1014F00051F04489ED91FC9111970190F081E02D1C
:10150000CD016D2D1995BF91AF917F916F915F9135
:101510004F913F912F910F90CF91DF911F910F919C
:10152000FF90EF90DF90CF90BF90AF909F907F9013
:101530006F905F904F900895D8011E968D919C9169
:101540001F972F2D01972FEF8F3F9207D9F79CCF31
:101550001F920F920FB60F920BB60F9211242F937A
:101560003F934F935F936F937F938F939F93AF932B
:10157000BF93EF93FF9380910B0490910C0400971D
:1015800011F00E948F09FF91EF91BF91AF919F9150
:101590008F917F916F915F914F913F912F910F901C
:1015A0000BBE0F900FBE0F901F9018951F920F92B9
:1015B0000FB60F920BB60F9211242F933F934F93B8
:1015C0005F936F937F938F939F93AF93BF93EF93AB
:1015D000FF9380910B0490910C04009711F00E94EE
:1015E0008F09FF91EF91BF91AF919F918F917F9163
:1015F0006F915F914F913F912F910F900BBE0F9084
:101600000FBE0F901F9018951F920F920FB60F925A
:101610000BB60F9211242F933F934F935F936F93C9
:101620007F938F939F93AF93BF93EF93FF9380919B
:101630000B0490910C04009711F00E948F09FF9108
:10164000EF91BF91AF919F918F917F916F915F913A
:101650004F913F912F910F900BBE0F900FBE0F90A7
:101660001F9018950F931F938C018AE060E00E94F1
:1016700026118AE061E00E94D911E3EAF2E0E491E8
:10168000D8011296EC931297EDE5F2E0E491F0E0C8
:10169000EE0FFF1FE75CFD4F8591949114969C938C
:1016A0008E9313971F910F9108950F931F938C01A1
:1016B00083E061E00E94261183E061E00E94D9117D
:1016C000ECE9F2E0E491D8011596EC931597E6E584
:1016D000F2E0E491F0E0EE0FFF1FE15EFD4F859137
:1016E000949117969C938E9316971F910F9108953E
:1016F0000F931F938C0181EF92E0F8019183808317
:10170000138612861586148617861686118A108A05
:10171000C8014396B8010E94960BC8010E94550B60
:10172000C8010E94320B1F910F910895FC01108295
:101730001182738362830895DC0111969C91119745
:101740009F5F9F778C91981719F420E030E00FC0CD
:1017500011968C911197FD01E80FF11D6483FD0135
:10176000E90FF11D148211969C9321E030E0C9012C
:101770000895DC019C9111968C911197981711F4A2
:1017800090E009C08C91FD01E80FF11D94818C91CE
:101790008F5F8F778C93892F0895FC0191818081D1
:1017A000891718F49181808103C0918180819058BC
:1017B000981B892F90E06817790714F080E008954E
:1017C0008081E80FF11D84810895FC01818180836F
:1017D0000895BF92CF92DF92EF92FF920F931F93E3
:1017E000CF93DF936C01EB01B22F88818823E1F165
:1017F00060E070E0A0E034C0542FF601E50FF11D69
:10180000248130E0FE01E60FF71F8081992787FDD4
:10181000909528173907C1F4AA2309F4B52E6F5FF4
:101820007F4FFE01E60FF71F8081882311F0A1E0B2
:1018300011C00115110511F0F801B082E114F10495
:1018400099F0F701508310C0AA2321F060E070E006
:10185000A0E004C05F5F5F775B1779F64F5F4F775B
:101860004B1751F680E001C081E0DF91CF911F91CD
:101870000F91FF90EF90DF90CF90BF900895AF92BF
:10188000BF92CF92DF92EF92FF920F931F93DF935D
:10189000CF930F920F92CDB7DEB76C01B42EA22E6C
:1018A000FC01408121818E010F5F1F4F32E0E32E4A
:1018B000F12CEC0EFD1E0E94E90B8823B1F0AA204A
:1018C00051F0BB2021F08A818F5F8F7701C0898121
:1018D000F601808309C0BB2021F08A818F5F8F775A
:1018E00001C08981F601818381E00F900F90CF9133
:1018F000DF911F910F91FF90EF90DF90CF90BF90FD
:10190000AF900895EF92FF920F931F93FC014081D7
:10191000218100E010E0EE24FF240E94E90B1F91DA
:101920000F91FF90EF9008958F929F92AF92BF9288
:10193000CF92DF92EF92FF920F931F93DF93CF939B
:101940000F920F92CDB7DEB76C015A014901FC012D
:101950004081218100E010E07E010894E11CF11C2F
:101960000E94E90B882359F149814F5F4983F601B1
:101970002181C601B5018E010E5F1F4FEE24FF24A9
:101980000E94E90B8823D9F0498120E030E008C0AB
:10199000EC0DFD1D84818C932F5F3F4F4F5F4F7780
:1019A000E42FF0E08A8190E08F779070D401A20F4D
:1019B000B31FE817F90761F71C9281E001C080E0CE
:1019C0000F900F90CF91DF911F910F91FF90EF90AB
:1019D000DF90CF90BF90AF909F908F900895DC01E3
:1019E0004C914F5F20E030E090E060E025C0FD01C9
:1019F000E40FF11D5481503219F4992329F41AC0CF
:101A00005D3211F49923A1F0852F80538A30C8F4F8
:101A1000C901E3E0880F991FEA95E1F7220F331F10
:101A2000280F391F20533040250F311D91E002C08F
:101A300091E061E04F5F4F7711968C9111974817B5
:101A4000B1F6662319F0309521953F4FC9010895ED
:101A50001F93182F80528F3520F488E396E0612F72
:101A60000FC088E396E065E20E94501788E396E095
:101A7000612F4AE050E00E94071888E396E065E293
:101A80000E9450171F9108950F931F93CF93DF93D8
:101A9000EC011881098188E396E00E94581788E3D9
:101AA00096E0612F4AE050E00E94071888E396E034
:101AB0006AE872E00E946C1888E396E0602F4AE0C2
:101AC00050E00E94071888E396E06EE30E945017EA
:101AD00008C0FE01E10FF11D84810E94280D1F5FE7
:101AE0001F771017B1F788E396E00E945817DF912F
:101AF000CF911F910F910895FC018BEF92E091839C
:101B00008083489693838283F0930E04E0930D04C0
:101B1000089502960E949505089585E493E00E9439
:101B2000580608950F931F93DF93CF930F92CDB76D
:101B3000DEB78C0180915003813019F08230B1F50D
:101B40001AC082E08093500385E493E06BED71E06E
:101B500040E00E94CC06F8016481758187E493E03F
:101B60004AE050E00E94591887E493E06CE872E084
:101B70000E946C181BC085E493E0BE016F5F7F4F2D
:101B800040E050E020E030E00E94E706882371F05A
:101B90008981882329F085E493E061E070E004C046
:101BA00085E493E063E070E00E949D050F90CF9183
:101BB000DF911F910F910895DF93CF930F92CDB7CF
:101BC000DEB780915003813019F0823059F50FC093
:101BD00082E08093500385E493E06AE10E94580616
:101BE00087E493E06CE872E00E946C181BC085E407
:101BF00093E0BE016F5F7F4F40E050E020E030E0B7
:101C00000E94E706882371F08981882329F085E402
:101C100093E061E070E004C085E493E063E070E08D
:101C20000E949D050F90CF91DF9108950F931F9310
:101C30008C01BC016E5F7F4F85E493E045E050E08E
:101C40000E940106C8010E94DC0D80914F0390E0C4
:101C50001F910F910895DF93CF930F92CDB7DEB709
:101C600080915003813019F08230A9F519C082E0CB
:101C70008093500385E493E06BEF71E040E00E94B5
:101C8000CC0660914B0370914C0387E493E00E9473
:101C90006C1887E493E06EE872E00E946C181BC039
:101CA00085E493E0BE016F5F7F4F41E952E020E0A1
:101CB00030E00E94E706882371F08981882329F0AB
:101CC00085E493E061E070E004C085E493E063E0C4
:101CD00070E00E949D050F90CF91DF910895CF9302
:101CE000DF93EC0180915603909157038330910567
:101CF00041F0049731F022E030E0C901DF91CF914B
:101D0000089570934C0360934B03BE016E5F7F4F49
:101D100085E493E044E050E00E940106CE010E9479
:101D20002B0E80914F03282F30E0E7CF0F931F93A6
:101D3000CF93DF938C01C0E0D0E087E793E00E946F
:101D4000E50B84E693E00E9484096AE070E080E09D
:101D500090E00E946B102196C530D10571F7B80153
:101D60006E5F7F4F85E493E047E050E00E940106FC
:101D7000C8010E94920DDF91CF911F910F9108959C
:101D8000FC018681882351F481E0868387E793E014
:101D900063E972E041E021E00E943F0C87E793E0B5
:101DA00060E070E00E94CD0B282F332727FD30958F
:101DB000C90108950F931F93CF93DF93EC018E8198
:101DC000882351F481E08E8387E793E063E972E032
:101DD00041E021E00E943F0C87E793E00E94B90BAD
:101DE000182F8985882341F0198687E793E065E9F4
:101DF00072E00E94820C88878885882359F58F813C
:101E0000882369F190917703809178038095890FF9
:101E10008F77012F112707FD10958F3709F045C0E7
:101E200087E793E00E94E50B1F8281E08987229675
:101E300085E493E0BE0140E050E00E94010684E6A4
:101E400093E00E9484096AE070E080E090E00E94E4
:101E50006B102BC087E793E065E972E004C087E769
:101E600093E06BE972E00E94820C882329F0212F15
:101E7000332727FD30951AC087E793E00E94E50BD2
:101E8000229685E493E0BE0140E050E00E94010606
:101E900084E693E00E9484096AE070E080E090E0CC
:101EA0000E946B1020E030E001C09801C901DF9171
:101EB000CF911F910F9108950F931F939B018A015A
:101EC00087E793E062EA72E04AEA52E00E94940CEB
:101ED00081E090E01F910F9108950F931F93CF938E
:101EE000DF93EC018B0190917703809178031F823F
:101EF0008095890F8F77853010F481E08F8387E795
:101F000093E06CEA72E041E021E00E943F0C8823FC
:101F100019F4F801108203C081E0F801808387E79B
:101F200093E00E94EF0C9D838C8387E793E065E943
:101F300072E00E94820C8887198681E0DF91CF9140
:101F40001F910F910895DF93CF930F92CDB7DEB716
:101F500020915003213019F0223009F50BC085E49F
:101F600093E064EE71E041E00E94CC0682E0809351
:101F7000500315C0BE016F5F7F4F0E946D0F882315
:101F800071F08981882329F485E493E064E070E0AE
:101F900004C085E493E061E070E00E949D050F902D
:101FA000CF91DF91089502970E94D70F0895209155
:101FB00051033091520325303105B9F026303105F7
:101FC0003CF42130310559F024303105B1F40AC018
:101FD0002630310569F02730310579F40CC0609363
:101FE000780308950E942B0E08950E94DC0D089539
:101FF0000E94A30F08950E94920D08950F931F93BE
:102000008C01FC011682BC016E5F7F4F85E493E07A
:1020100046E050E00E940106C8010E94A30F809193
:102020004F0390E01F910F9108951F920F920FB6EA
:102030000F9211242F933F938F939F93AF93BF934E
:102040008091130490911404A0911504B09116048A
:10205000309117040196A11DB11D232F2D5F2D373F
:1020600020F02D570196A11DB11D209317048093D8
:10207000130490931404A0931504B0931604809154
:102080000F0490911004A0911104B09112040196D4
:10209000A11DB11D80930F0490931004A09311040F
:1020A000B0931204BF91AF919F918F913F912F9167
:1020B0000F900FBE0F901F9018958FB7F894209136
:1020C00013043091140440911504509116048FBFED
:1020D000B901CA0108959B01AC017FB7F8948091C2
:1020E0000F0490911004A0911104B091120466B5F0
:1020F000A89B05C06F3F19F00196A11DB11D7FBFC0
:10210000BA2FA92F982F8827860F911DA11DB11DC9
:1021100062E0880F991FAA1FBB1F6A95D1F7BC0107
:102120002DC0FFB7F89480910F0490911004A091F6
:102130001104B0911204E6B5A89B05C0EF3F19F059
:102140000196A11DB11DFFBFBA2FA92F982F882777
:102150008E0F911DA11DB11DE2E0880F991FAA1FCE
:10216000BB1FEA95D1F7861B970B885E9340C8F298
:10217000215030404040504068517C4F211531057E
:102180004105510571F60895789484B5826084BD47
:1021900084B5816084BD85B5826085BD85B581606B
:1021A00085BDEEE6F0E0808181608083E1E8F0E0CB
:1021B0001082808182608083808181608083E0E8FA
:1021C000F0E0808181608083E1EBF0E080818460D9
:1021D0008083E0EBF0E0808181608083E1E9F0E0E2
:1021E000808182608083808181608083E0E9F0E08B
:1021F000808181608083E1EAF0E080818260808379
:10220000808181608083E0EAF0E08081816080836A
:10221000E1E2F1E08081826080838081816080835F
:10222000E0E2F1E0808181608083EAE7F0E0808194
:1022300084608083808182608083808181608083EC
:102240008081806880831092C1000895CF93DF93CE
:10225000482F50E0CA0187569D4FFC0134914D5ADA
:102260005D4FFA018491882369F190E0880F991FEE
:10227000FC01EB5FFD4FA591B491FC01E15EFD4FC8
:10228000C591D491662351F42FB7F8948C91932F74
:10229000909589238C93888189230BC0623061F4E7
:1022A0002FB7F8948C91932F909589238C938881E4
:1022B000832B88832FBF06C09FB7F8948C91832B04
:1022C0008C939FBFDF91CF910895893009F449C065
:1022D0008A30A0F4843051F1853040F4823079F1B5
:1022E000833000F5813009F063C026C0873079F172
:1022F000883098F5863009F05BC025C08D3009F430
:1023000042C08E3028F48B30B1F18C30C0F52DC036
:10231000803109F442C0813109F445C08F3009F0A1
:1023200047C037C0809180008F7703C080918000C4
:102330008F7D80938000089584B58F7702C084B527
:102340008F7D84BD08958091B0008F7703C0809108
:10235000B0008F7D8093B0000895809190008F77BA
:1023600007C0809190008F7D03C080919000877F8F
:102370008093900008958091A0008F7707C080918E
:10238000A0008F7D03C08091A000877F8093A00074
:102390000895809120018F7703C0809120018F7D67
:1023A00080932001089580912001877F80932001F0
:1023B0000895FF920F931F93F62E482F50E0CA0105
:1023C00081529D4FFC012491CA0187569D4FFC010B
:1023D00014914D5A5D4FFA0104910023C9F0222354
:1023E00019F0822F0E946511E02FF0E0EE0FFF1F21
:1023F000E15EFD4FA591B4919FB7F894FF2021F4C1
:102400008C911095812302C08C91812B8C939FBF5E
:102410001F910F91FF90089508951F920F920FB68C
:102420000F920BB60F9211242F933F934F938F93DC
:102430009F93EF93FF938091C00082FD1DC0409158
:10244000C60020915804309159042F5F3F4F2F73DD
:10245000307080915A0490915B042817390771F00D
:10246000E0915804F0915904E85EFB4F40833093AB
:1024700059042093580402C08091C600FF91EF9147
:102480009F918F914F913F912F910F900BBE0F9085
:102490000FBE0F901F90189508951F920F920FB6C0
:1024A0000F920BB60F9211242F933F934F938F935C
:1024B0009F93EF93FF938091C80082FD1DC04091D0
:1024C000CE002091E0043091E1042F5F3F4F2F7345
:1024D00030708091E2049091E3042817390771F07D
:1024E000E091E004F091E104E056FB4F408330932B
:1024F000E1042093E00402C08091CE00FF91EF91AF
:102500009F918F914F913F912F910F900BBE0F9004
:102510000FBE0F901F90189508951F920F920FB63F
:102520000F920BB60F9211242F933F934F938F93DB
:102530009F93EF93FF938091D00082FD1DC0409147
:10254000D60020916805309169052F5F3F4F2F73AA
:10255000307080916A0590916B052817390771F0EA
:10256000E0916805F0916905E85DFA4F408330938A
:1025700069052093680502C08091D600FF91EF9114
:102580009F918F914F913F912F910F900BBE0F9084
:102590000FBE0F901F90189508951F920F920FB6BF
:1025A0000F920BB60F9211242F933F934F938F935B
:1025B0009F93EF93FF938091300182FD1DC0409166
:1025C00036012091F0053091F1052F5F3F4F2F73B9
:1025D00030708091F2059091F3052817390771F05A
:1025E000E091F005F091F105E055FA4F408330930A
:1025F000F1052093F00502C080913601FF91EF9123
:102600009F918F914F913F912F910F900BBE0F9003
:102610000FBE0F901F901895E0914406F09145066B
:10262000E05CFF4F8191919120813181821B930B5E
:102630008F739070892B11F00E940C12E091660646
:10264000F0916706E05CFF4F81919191208131818B
:10265000821B930B8F739070892B11F00E944C1288
:10266000E0918806F0918906E05CFF4F819191919D
:1026700020813181821B930B8F739070892B11F015
:102680000E948C12E091AA06F091AB06E05CFF4F2D
:102690008191919120813181821B930B8F73907076
:1026A000892B11F00E94CC1208951F920F920FB641
:1026B0000F920BB60F9211242F933F938F939F93FA
:1026C000EF93FF9320919C0430919D0480919E0490
:1026D00090919F042817390731F48091C1008F7DB4
:1026E0008093C10014C0E0919E04F0919F04E45ACD
:1026F000FB4F208180919E0490919F0401968F73DF
:10270000907090939F0480939E042093C600FF9145
:10271000EF919F918F913F912F910F900BBE0F9052
:102720000FBE0F901F9018951F920F920FB60F9229
:102730000BB60F9211242F933F938F939F93EF9398
:10274000FF932091240530912505809126059091D5
:1027500027052817390731F48091C9008F7D8093B0
:10276000C90014C0E0912605F0912705EC51FB4FFC
:102770002081809126059091270501968F73907096
:1027800090932705809326052093CE00FF91EF912B
:102790009F918F913F912F910F900BBE0F900FBE85
:1027A0000F901F9018951F920F920FB60F920BB6B5
:1027B0000F9211242F933F938F939F93EF93FF9347
:1027C0002091AC053091AD058091AE059091AF059B
:1027D0002817390731F48091D1008F7D8093D10083
:1027E00014C0E091AE05F091AF05E459FA4F208195
:1027F0008091AE059091AF0501968F739070909384
:10280000AF058093AE052093D600FF91EF919F9185
:102810008F913F912F910F900BBE0F900FBE0F9095
:102820001F9018951F920F920FB60F920BB60F9232
:1028300011242F933F938F939F93EF93FF932091B6
:102840003406309135068091360690913706281768
:10285000390731F4809131018F7D8093310114C0AB
:10286000E0913606F0913706EC50FA4F20818091C6
:1028700036069091370601968F73907090933706C5
:102880008093360620933601FF91EF919F918F91AF
:102890003F912F910F900BBE0F900FBE0F901F9086
:1028A0001895AF92BF92DF92EF92FF920F931F9312
:1028B000CF93DF93EC017A018B01DD24403081EE70
:1028C000580780E0680780E0780711F0DD24D39492
:1028D00091E0A92EB12CEC89FD89DD2069F0C501BC
:1028E00008A002C0880F991F0A94E2F7808360E075
:1028F00079E08DE390E005C0108260E874E88EE135
:1029000090E0A80197010E94A1182150304040405A
:102910005040569547953795279580E120303807E8
:1029200020F0DD2011F0DD24D6CFE889F98930834D
:10293000EA89FB89208319A2EE89FF89408121E081
:1029400030E0C9010C8C02C0880F991F0A94E2F78D
:10295000482B4083EE89FF894081C9010D8C02C05C
:10296000880F991F0A94E2F7482B4083EE89FF896C
:102970004081C9010E8C02C0880F991F0A94E2F7AA
:10298000482B4083EE89FF8980810F8C02C0220F83
:10299000331F0A94E2F7209528232083DF91CF91FB
:1029A0001F910F91FF90EF90DF90BF90AF9008952F
:1029B000DC011C96ED91FC911D97E05CFF4F21918D
:1029C000319180819181281B390B2F733070C9019F
:1029D0000895DC011C96ED91FC911D97E05CFF4F82
:1029E00020813181E054F040DF01AE5BBF4F8D911B
:1029F0009C9111972817390719F42FEF3FEF07C063
:102A00008D919C91E80FF91F8081282F30E0C9013A
:102A10000895DC011C96ED91FC911D97E05CFF4F41
:102A200020813181E054F040DF01AE5BBF4F8D91DA
:102A30009C9111972817390719F42FEF3FEF10C019
:102A40008D919C911197E80FF91F20818D919C9198
:102A5000119701968F73907011969C938E9330E02E
:102A6000C9010895DC0191968C919197882339F0E2
:102A70005496ED91FC915597808186FFF9CF919600
:102A80001C920895CF93DF93EC01EE85FF85E05C07
:102A9000FF4F20813181E054F0402F5F3F4F2F7373
:102AA0003070DF01AE5BBF4F8D919C91119728175D
:102AB0003907D1F3E05CFF4F80819181E054F04011
:102AC000E80FF91F6083EE85FF85E05CFF4F3183DF
:102AD0002083EE89FF89208181E090E00F8C02C085
:102AE000880F991F0A94E2F7282B208381E089A39D
:102AF000EC89FD8980818064808381E090E0DF91B2
:102B0000CF91089581E008951F9310923B06109293
:102B10003A0628EE33E040E050E020933C06309344
:102B20003D0640933E0650933F066BE173E0709381
:102B300039066093380688E194E0909345068093C7
:102B400044068CE594E0909347068093460685EC16
:102B500090E0909349068093480684EC90E090932F
:102B60004B0680934A0680EC90E090934D0680934C
:102B70004C0681EC90E090934F0680934E0682ECD9
:102B800090E0909351068093500686EC90E09093ED
:102B900053068093520614E010935406B3E0B093AA
:102BA0005506A7E0A0935606F5E0F0935706E1E03E
:102BB000E093580610925D0610925C0620935E0624
:102BC00030935F06409360065093610670935B06F6
:102BD00060935A0680EA94E09093670680936606B5
:102BE00084EE94E090936906809368068DEC90E003
:102BF00090936B0680936A068CEC90E090936D0640
:102C000080936C0688EC90E090936F0680936E063C
:102C100089EC90E090937106809370068AEC90E0C6
:102C200090937306809372068EEC90E090937506F5
:102C30008093740610937606B0937706A093780677
:102C4000F0937906E0937A0610927F0610927E0642
:102C5000209380063093810640938206509383062A
:102C600070937D0660937C0688E295E090938906D8
:102C7000809388068CE695E090938B0680938A0675
:102C800085ED90E090938D0680938C0684ED90E026
:102C900090938F0680938E0680ED90E0909391063E
:102CA0008093900681ED90E0909393068093920636
:102CB00082ED90E0909395068093940686ED90E0E7
:102CC000909397068093960610939806B093990672
:102CD000A0939A06F0939B06E0939C061092A1069F
:102CE0001092A0062093A2063093A3064093A40658
:102CF0005093A50670939F0660939E0680EB95E027
:102D00009093AB068093AA0684EF95E09093AD066E
:102D10008093AC0685E391E09093AF068093AE0676
:102D200084E391E09093B1068093B00680E391E054
:102D30009093B3068093B20681E391E09093B50639
:102D40008093B40682E391E09093B7068093B60631
:102D500086E391E09093B9068093B8061093BA0683
:102D6000B093BB06A093BC06F093BD06E093BE06ED
:102D70001F9108950F93FC018BE293E09183808370
:102D800062834383248305830F9108958BE293E04C
:102D90009093C1068093C0061092C2061092C3069B
:102DA0001092C4061092C50608958F929F92AF921A
:102DB000BF92CF92DF92EF92FF920F931F93CF9328
:102DC000DF934C016B017C01AA24BB24C0E0D0E05E
:102DD000C601F70162814AE050E00E9407188C01A9
:102DE000C6016EE20E945017080F191FA00EB11EF7
:102DF00021960894E11CF11CC330D10549F7C601A6
:102E0000F40165814AE050E00E9407189501280FFF
:102E1000391FC901DF91CF911F910F91FF90EF9062
:102E2000DF90CF90BF90AF909F908F900895CF93F9
:102E3000DF930E94C4100E947002CCE0D3E10E9494
:102E400007022097E1F30E940C13F9CFCF92DF9293
:102E5000EF92FF920F931F93CF93DF937C016B014F
:102E60008A01C0E0D0E00FC0D6016D916D01D7019D
:102E7000ED91FC910190F081E02DC7011995C80FEB
:102E8000D91F015010400115110571F7CE01DF91D6
:102E9000CF911F910F91FF90EF90DF90CF90089509
:102EA000DC01ED91FC910190F081E02D19950895E0
:102EB000EF92FF920F931F938C01DC01ED91FC9137
:102EC0000190F081E02D6DE019957C01D801ED9124
:102ED000FC910190F081E02DC8016AE019959C01F8
:102EE0002E0D3F1DC9011F910F91FF90EF90089586
:102EF000CF93DF93EC016115710519F420E030E008
:102F00000FC0DB010D900020E9F71197A61BB70B4E
:102F1000E881F9810280F381E02DAD0119959C01D2
:102F2000C901DF91CF9108954F925F927F928F9266
:102F30009F92AF92BF92CF92DF92EF92FF920F9348
:102F40001F93DF93CF93CDB7DEB7A1970FB6F89459
:102F5000DEBF0FBECDBF2C01742ECB01223008F492
:102F60002AE019A231E2C32ED12CCC0EDD1E822E16
:102F70009924AA24BB24672D752FA50194010E94D2
:102F8000A11879018A01C801B701A50194010E9425
:102F90008218472D461B0894C108D1084A3014F402
:102FA000405D01C0495CF6014083E114F104010574
:102FB000110521F07E2C5F2DC801DDCFC201B601C5
:102FC0000E947817A1960FB6F894DEBF0FBECDBF52
:102FD000CF91DF911F910F91FF90EF90DF90CF90F5
:102FE000BF90AF909F908F907F905F904F9008958B
:102FF000DC012115310541F4ED91FC910190F08146
:10300000E02D642F199508950E9494170895EF926A
:10301000FF920F931F939A01E62EFF2400E010E029
:10302000B801A7010E94F8171F910F91FF90EF9030
:103030000895CF92DF92EF92FF920F931F93CF9359
:10304000DF93EC016A017B012115310541F4E88130
:10305000F9810190F081E02D642F19951FC02A306D
:103060003105D1F477FF17C0E881F9810190F08133
:10307000E02D6DE219958C0144275527BA014C19B2
:103080005D096E097F09CE012AE00E94941798011C
:10309000280F391F04C02AE00E9494179C01C9011F
:1030A000DF91CF911F910F91FF90EF90DF90CF9024
:1030B0000895EF92FF920F931F937B019A010027CF
:1030C000F7FC0095102FB801A7010E9419181F9155
:1030D0000F91FF90EF9008950E9478170895EF9256
:1030E000FF920F931F937C010E9478178C01C701F8
:1030F0000E945817080F191FC8011F910F91FF90C8
:10310000EF900895629FD001739FF001829FE00DC0
:10311000F11D649FE00DF11D929FF00D839FF00D56
:10312000749FF00D659FF00D9927729FB00DE11D02
:10313000F91F639FB00DE11DF91FBD01CF011124DF
:103140000895A1E21A2EAA1BBB1BFD010DC0AA1FE8
:10315000BB1FEE1FFF1FA217B307E407F50720F000
:10316000A21BB30BE40BF50B661F771F881F991F7B
:103170001A9469F760957095809590959B01AC01C4
:10318000BD01CF010895EE0FFF1F0590F491E02DD2
:063190001994F894FFCF32
:10319600456E7465722061206D6F62696C65206E84
:1031A600756D6265723A20004E6F772C20656E74DD
:1031B600657220534D5320636F6E74656E743A20AA
:1031C6000053454E44494E47004D6573736167652C
:1031D6003A000A434F4D504C455445210A00534D81
:1031E60053204D657373616765732053656E64651F
:1031F60072004E6F7420636F6E6E65637465640053
:10320600343232310047534D20696E697469616CFE
:10321600697A6564000D004F4B0020000D00220DF9
:10322600003E000A000D0A0D0A2B000D0A0D0A4F7A
:103236004B0052454144222C220022002B434D478D
:103246004C3A0087020000000047059403E702AFEE
:10325600023605FEFF00003205A20200000000F65D
:103266000558066C06FEFF000054062617000000EF
:103276000066072617DB0775078307F107000000BE
:10328600008409F408AB08000000006F0E8D0D16CF
:103296000EFE0FC00E960E5C0FDA0E890DD70FFECE
:1032A600FF0000D30FA2020000000042152617D827
:0E32B600140915E914321500000000D51600A9
:00000001FF
