:100000000C9462000C948A000C948A000C948A0070
:100010000C948A000C948A000C948A000C948A0038
:100020000C948A000C948A000C948A000C948A0028
:100030000C948A000C948A000C948A000C948A0018
:100040000C94C0010C948A000C9491030C94DF036F
:100050000C948A000C948A000C948A000C948A00F8
:100060000C948A000C948A000000000024002700F1
:100070002A0000000000250028002B0000000000DE
:1000800023002600290004040404040404040202DA
:100090000202020203030303030301020408102007
:1000A0004080010204081020010204081020000012
:1000B0000007000201000003040600000000000029
:1000C00000004B0511241FBECFEFD8E0DEBFCDBF2F
:1000D00011E0A0E0B1E0E6E9FEE002C005900D927B
:1000E000AC32B107D9F713E0ACE2B1E001C01D9228
:1000F000AC37B107E1F710E0C4ECD0E004C02297C0
:10010000FE010E944507C23CD107C9F70E94A10524
:100110000C9449070C9400000F931F93CF93DF9327
:100120008DE00E943D0300E010E0892B11F401E016
:1001300010E080912C0190912D010817190709F406
:1001400076C08AE593E060E071E00E94EC061092D0
:10015000C402C091C202D091C302FE01EE0FFF1F84
:10016000EE0FFF1FE05DFE4F118300831C161D067E
:100170001CF060E070E008C00E9408022091C502F7
:100180003091C602621B730BCC0FDD1FCC0FDD1F3D
:10019000CE5CDE4F79836883E091C202F091C302A6
:1001A000EE0FFF1FEE0FFF1FE05DFE4F60817181BC
:1001B0008AE593E04AE050E00E94BA068AE593E0BF
:1001C0006BE071E00E94EC06E091C202F091C30284
:1001D000EE0FFF1FEE0FFF1FEE5CFE4F608171817F
:1001E0008AE593E04AE050E00E94BA068AE593E08F
:1001F0006BE071E00E94EF060E9408026093C50266
:100200007093C6028093C7029093C8028091C20285
:100210009091C30201969093C1028093C002909383
:10022000C3028093C2028BE0602F0E94E9020E9409
:1002300008022091C5023091C6024091C702509138
:10024000C802621B730B840B950B20911701309130
:1002500018014091190150911A01261737074807D4
:10026000590780F40130110569F08091C002909126
:10027000C10203973CF081E08093C4021092C30254
:100280001092C20210932D0100932C018091C402A0
:10029000882309F45FC0C0E3D1E000E010E03AC079
:1002A0008BE068810E94E9028AE593E06DE071E0ED
:1002B0000E94EC068AE593E0B8014AE050E00E9413
:1002C000BA068AE593E06BE071E00E94EC0660916B
:1002D000C0027091C1028AE593E04AE050E00E94BA
:1002E000BA068AE593E06BE071E00E94EC066A8151
:1002F0007B818AE593E04AE050E00E94CD066A8166
:100300007B81882777FD8095982F0E9416020F5FCA
:100310001F4F24968091C0029091C10208171907BF
:100320000CF4BECF10922F0110922E011092C40235
:100330001092C1021092C0028BE060E00E94E902BC
:1003400080E991E0E0E3F1E0DF019C011D922150A2
:100350003040E1F7DF91CF911F910F9108958AE529
:1003600093E040E855E260E070E00E941A048BE000
:1003700061E00E94AA028DE062E00E94AA02089554
:100380001F920F920FB60F9211242F933F938F93CA
:100390009F93AF93BF938091CD029091CE02A09195
:1003A000CF02B091D0023091D1020196A11DB11DB2
:1003B000232F2D5F2D3720F02D570196A11DB11D44
:1003C0002093D1028093CD029093CE02A093CF02CE
:1003D000B093D0028091C9029091CA02A091CB0241
:1003E000B091CC020196A11DB11D8093C9029093DA
:1003F000CA02A093CB02B093CC02BF91AF919F9160
:100400008F913F912F910F900FBE0F901F901895D5
:100410008FB7F8942091CD023091CE024091CF0257
:100420005091D0028FBFB901CA0108959B01AC0160
:100430007FB7F8948091C9029091CA02A091CB0233
:10044000B091CC0266B5A89B05C06F3F19F001962C
:10045000A11DB11D7FBFBA2FA92F982F8827860F06
:10046000911DA11DB11D62E0880F991FAA1FBB1F1E
:100470006A95D1F7BC012DC0FFB7F8948091C902ED
:100480009091CA02A091CB02B091CC02E6B5A89B94
:1004900005C0EF3F19F00196A11DB11DFFBFBA2F96
:1004A000A92F982F88278E0F911DA11DB11DE2E065
:1004B000880F991FAA1FBB1FEA95D1F7861B970BC0
:1004C000885E9340C8F2215030404040504068510F
:1004D0007C4F211531054105510571F60895789439
:1004E00084B5826084BD84B5816084BD85B5826039
:1004F00085BD85B5816085BDEEE6F0E080818160D7
:100500008083E1E8F0E010828081826080838081D6
:1005100081608083E0E8F0E0808181608083E1EBAE
:10052000F0E0808184608083E0EBF0E08081816096
:100530008083EAE7F0E0808184608083808182604C
:100540008083808181608083808180688083109235
:10055000C1000895CF93DF93482F50E0CA0186561B
:100560009F4FFC0134914A575F4FFA0184918823D1
:1005700069F190E0880F991FFC01E859FF4FA591A0
:10058000B491FC01EE58FF4FC591D491662351F40C
:100590002FB7F8948C91932F909589238C93888111
:1005A00089230BC0623061F42FB7F8948C91932F9C
:1005B000909589238C938881832B88832FBF06C0D5
:1005C0009FB7F8948C91832B8C939FBFDF91CF9131
:1005D0000895482F50E0CA0182559F4FFC01249195
:1005E000CA0186569F4FFC0194914A575F4FFA010A
:1005F0003491332309F440C0222351F1233071F0A8
:10060000243028F42130A1F0223011F514C0263016
:10061000B1F02730C1F02430D9F404C080918000BB
:100620008F7703C0809180008F7D8093800010C001
:1006300084B58F7702C084B58F7D84BD09C0809159
:10064000B0008F7703C08091B0008F7D8093B000A1
:10065000E32FF0E0EE0FFF1FEE58FF4FA591B4918E
:100660002FB7F894662321F48C919095892302C0CA
:100670008C91892B8C932FBF0895682F70E0CB014C
:1006800082559F4FFC012491CB0186569F4FFC0160
:1006900044916A577F4FFB019491992319F420E00C
:1006A00030E03CC0222351F1233071F0243028F493
:1006B0002130A1F0223011F514C02630B1F02730DE
:1006C000C1F02430D9F404C0809180008F7703C03A
:1006D000809180008F7D8093800010C084B58F77DB
:1006E00002C084B58F7D84BD09C08091B0008F7732
:1006F00003C08091B0008F7D8093B000892F90E07F
:10070000880F991F84589F4FFC01A591B4918C913B
:1007100020E030E0842311F021E030E0C9010895A9
:1007200008951F920F920FB60F9211242F933F93AB
:100730004F938F939F93EF93FF938091C00082FD1F
:100740001DC04091C60020911203309113032F5F0A
:100750003F4F2F7330708091140390911503281729
:10076000390771F0E0911203F0911303EE52FD4F3F
:100770004083309313032093120302C08091C6007C
:10078000FF91EF919F918F914F913F912F910F90FA
:100790000FBE0F901F901895E0916603F0916703CC
:1007A000E05CFF4F8191919120813181821B930BFD
:1007B0008F739070892B11F00E94900308951F92FF
:1007C0000F920FB60F9211242F933F938F939F9305
:1007D000EF93FF9320915603309157038091580374
:1007E000909159032817390731F48091C1008F7D0A
:1007F0008093C10014C0E0915803F0915903EA5E60
:10080000FC4F2081809158039091590301968F737A
:10081000907090935903809358032093C600FF91E2
:10082000EF919F918F913F912F910F900FBE0F905D
:100830001F901895AF92BF92DF92EF92FF920F93A5
:100840001F93CF93DF93EC017A018B01DD244030BD
:1008500081EE580780E0680780E0780711F0DD241A
:10086000D39491E0A92EB12CEC89FD89DD2069F0AB
:10087000C50108A002C0880F991F0A94E2F780837F
:1008800060E079E08DE390E005C0108260E874E8F4
:100890008EE190E0A80197010E942107215030408D
:1008A00040405040569547953795279580E1203038
:1008B000380720F0DD2011F0DD24D6CFE889F98952
:1008C0003083EA89FB89208319A2EE89FF89408160
:1008D00021E030E0C9010C8C02C0880F991F0A94F6
:1008E000E2F7482B4083EE89FF894081C9010D8CD6
:1008F00002C0880F991F0A94E2F7482B4083EE89C3
:10090000FF894081C9010E8C02C0880F991F0A948B
:10091000E2F7482B4083EE89FF8980810F8C02C06B
:10092000220F331F0A94E2F7209528232083DF91BA
:10093000CF911F910F91FF90EF90DF90BF90AF90FC
:100940000895DC011C96ED91FC911D97E05CFF4F32
:100950002191319180819181281B390B2F73307047
:10096000C9010895DC011C96ED91FC911D97E05C96
:10097000FF4F20813181E054F040DF01AE5BBF4F7B
:100980008D919C9111972817390719F42FEF3FEF9C
:1009900007C08D919C91E80FF91F8081282F30E0CE
:1009A000C9010895DC011C96ED91FC911D97E05C56
:1009B000FF4F20813181E054F040DF01AE5BBF4F3B
:1009C0008D919C9111972817390719F42FEF3FEF5C
:1009D00010C08D919C911197E80FF91F20818D9186
:1009E0009C91119701968F73907011969C938E93A2
:1009F00030E0C9010895DC0191968C91919788238C
:100A000039F05496ED91FC915597808186FFF9CF8E
:100A100091961C920895CF93DF93EC01EE85FF85AC
:100A2000E05CFF4F20813181E054F0402F5F3F4F69
:100A30002F733070DF01AE5BBF4F8D919C9111978A
:100A400028173907D1F3E05CFF4F80819181E05492
:100A5000F040E80FF91F6083EE85FF85E05CFF4FF3
:100A600031832083EE89FF89208181E090E00F8C23
:100A700002C0880F991F0A94E2F7282B208381E097
:100A800089A3EC89FD8980818064808381E090E086
:100A9000DF91CF91089510925D0310925C0388EE70
:100AA00093E0A0E0B0E080935E0390935F03A09397
:100AB0006003B09361038FE191E090935B038093B7
:100AC0005A0382ED92E0909367038093660386E178
:100AD00093E0909369038093680385EC90E0909392
:100AE0006B0380936A0384EC90E090936D03809392
:100AF0006C0380EC90E090936F0380936E0381EC25
:100B000090E0909371038093700382EC90E0909357
:100B100073038093720386EC90E090937503809347
:100B2000740384E08093760383E08093770387E007
:100B30008093780385E08093790381E080937A0342
:100B40000895CF93DF930E946F020E94AF01CCEC17
:100B5000D3E00E948C002097E1F30E94CC03F9CFF0
:100B6000CF92DF92EF92FF920F931F93CF93DF9379
:100B70007C016B018A01C0E0D0E00FC0D6016D910D
:100B80006D01D701ED91FC910190F081E02DC7013D
:100B90000995C80FD91F015010400115110571F7B3
:100BA000CE01DF91CF911F910F91FF90EF90DF90D9
:100BB000CF900895EF92FF920F931F938C01DC0169
:100BC000ED91FC910190F081E02D6DE009957C01A3
:100BD000D801ED91FC910190F081E02DC8016AE00F
:100BE00009959C012E0D3F1DC9011F910F91FF908A
:100BF000EF900895CF93DF93EC016115710519F41F
:100C000020E030E00FC0DB010D900020E9F71197E4
:100C1000A61BB70BE881F9810280F381E02DAD01BD
:100C200009959C01C901DF91CF9108954F925F9280
:100C30007F928F929F92AF92BF92CF92DF92EF926C
:100C4000FF920F931F93DF93CF93CDB7DEB7A1979A
:100C50000FB6F894DEBF0FBECDBF2C01742ECB01B2
:100C6000223008F42AE019A231E2C32ED12CCC0E96
:100C7000DD1E822E9924AA24BB24672D752FA50181
:100C800094010E94210779018A01C801B701A501D9
:100C900094010E940207472D461B0894C108D10801
:100CA0004A3014F4405D01C0495CF6014083E11410
:100CB000F1040105110521F07E2C5F2DC801DDCF67
:100CC000C201B6010E94FA05A1960FB6F894DEBFE4
:100CD0000FBECDBFCF91DF911F910F91FF90EF908D
:100CE000DF90CF90BF90AF909F908F907F905F905C
:100CF0004F900895CF92DF92EF92FF920F931F9340
:100D0000CF93DF93EC016A017B012115310541F49A
:100D1000E881F9810190F081E02D642F09951FC0D1
:100D20002A303105D1F477FF17C0E881F9810190AD
:100D3000F081E02D6DE209958C0144275527BA0119
:100D40004C195D096E097F09CE012AE00E94160642
:100D50009801280F391F04C02AE00E9416069C0142
:100D6000C901DF91CF911F910F91FF90EF90DF901C
:100D7000CF900895EF92FF920F931F937B019A01FA
:100D80000027F7FC0095102FB801A7010E947A06F2
:100D90001F910F91FF90EF900895CF92DF92EF9205
:100DA000FF920F931F936C017B019A010027F7FCC0
:100DB0000095102FB801A7010E947A068C01C60188
:100DC0000E94DA05080F191FC8011F910F91FF90AB
:100DD000EF90DF90CF9008950E94FA050895EF926A
:100DE000FF920F931F937C010E94FA058C01C701AB
:100DF0000E94DA05080F191FC8011F910F91FF907B
:100E0000EF900895629FD001739FF001829FE00DE3
:100E1000F11D649FE00DF11D929FF00D839FF00D79
:100E2000749FF00D659FF00D9927729FB00DE11D25
:100E3000F91F639FB00DE11DF91FBD01CF01112402
:100E40000895A1E21A2EAA1BBB1BFD010DC0AA1F0B
:100E5000BB1FEE1FFF1FA217B307E407F50720F023
:100E6000A21BB30BE40BF50B661F771F881F991F9E
:100E70001A9469F760957095809590959B01AC01E7
:100E8000BD01CF010895EE0FFF1F0590F491E02DF5
:060E90000994F894FFCF65
:100E96004E65772053746174652000200054696D97
:100EA600656F75743A2000D0070000000000000B43
:0C0EB60005B005A104D204B204FB040046
:00000001FF
