:100000000C9498010C94C5010C94C5010C94C50185
:100010000C94C5010C94C5010C94C5010C94C50148
:100020000C94C5010C94FF0A0C94D10A0C94A30AF9
:100030000C94C5010C94C5010C94C5010C94C50128
:100040000C94C5010C94C5010C94C5010C94C50118
:100050000C94C5010C94C5010C94C5010C941010AE
:100060000C94C5010C9408120C9450130C94C50107
:100070000C94C5010C94C5010C94C5010C94C501E8
:100080000C94C5010C94C5010C94C5010C94C501D8
:100090000C9448120C948F130C94C5010C94C50158
:1000A0000C94C5010C94C5010C94C5010C94C501B8
:1000B0000C94C5010C94C5010C94C5010C94C501A8
:1000C0000C94C5010C94C5010C94C5010C948812C4
:1000D0000C94CE130C94C5010C94C8120C940D14FE
:1000E0000C94C50141540041542B43475245473FAE
:1000F00000504F57455220444F574E0041542B4318
:100100004F4C503D3100415445300041542B434C3D
:1001100049503D310041542B434D47463D3100414C
:10012000542B4946433D312C31002B434752454720
:100130003A20302C35002B43475245473A20302C8B
:10014000310041542B4350494E3D0000C201000193
:1001500000110011000C0000E100000A002500253C
:100160000021000096000019003900390036001205
:100170007A00001F00460046004400807000002204
:10018000004D004D004A00004B0000360075007520
:10019000007200403800004A009C009C00990080DA
:1001A0002500007200EC00EC00E900C0120000E93C
:1001B00000DA01DA01D70160090000D701B603B601
:1001C00003B303B0040000B3036E076E076B072C84
:1001D000010000DC0EC11DC11DBE1D41542B434D4D
:1001E00047443D0041542B434D474C3D225245432B
:1001F00020554E52454144222C310041542B434D51
:1002000047533D220000002100240027002A002D32
:10021000003000330001010000040107010A010061
:10022000002200250028002B002E0031003400029F
:10023000010000050108010B010000200023002639
:100240000029002C002F00320000010000030106ED
:10025000010901050505050705080808080202024D
:10026000020A0A0808040404040101010101010151
:10027000010303030303030303040707070C0C0C28
:100280000C0C0C0C0C020202020606060606060600
:10029000060B0B0B0B0B0B0B0B010210202008089D
:1002A00010204010204080020102010804020101D8
:1002B00002040810204080804020100804020180C1
:1002C0000402018040201008040201080402010118
:1002D0000204081020408001020408102040800021
:1002E00000090A02080B0C0D0706030401000000B8
:1002F00000000000000000000000000000000000FE
:10030000000000000000000000000011100F0000BD
:1003100000000000000000000000000000000000DD
:10032000000000000000C7012C078C077F15C116D4
:1003300011241FBECFEFD1E2DEBFCDBF00E00CBF66
:1003400013E0A0E0B2E0ECE8F1E300E00BBF02C094
:1003500007900D92A232B107D9F71BBE16E0A2E2B8
:10036000B3E001C01D92AE3CB107E1F713E0C0E37A
:10037000D3E004C02297FE010E94C018C632D10704
:10038000C9F70E9412170C94C4180C9400000F9324
:1003900087E493E060E040E020E000E00E94B516D2
:1003A00082E293E060E00E94920286E293E061E0E4
:1003B0000E9431070F910895EF92FF920F931F93C0
:1003C000DF93CF93CDB7DEB7C85CD0400FB6F894BB
:1003D000DEBF0FBECDBF86E293E00E94D607892B19
:1003E00009F458C080E496E060E072E00E946A1868
:1003F00086E293E063E373E044E150E00E94630728
:1004000080E496E063E373E00E946A18FE0131968F
:1004100088ECDF011D928A95E9F707C080E496E039
:10042000602F0E944B17F70101937F0186E293E052
:100430000E947007082F882389F780E496E067E11F
:1004400072E00E946A1886E293E063E373E00E9420
:10045000190880E496E08E010F5F1F4FB8010E94DB
:100460006A1886E293E0B8010E94671886E293E07A
:100470000E94030880E496E067E272E00E946A1836
:1004800086E293E00E94EC0780E496E063E372E08A
:100490000E946A1868EE73E080E090E00E946610A7
:1004A000C853DF4F0FB6F894DEBF0FBECDBFCF915C
:1004B000DF911F910F91FF90EF90089580E496E0F7
:1004C00040E855E260E070E00E944C1480E496E061
:1004D0000E947D158823D1F380E496E063E472E006
:1004E0000E946A180CC080E496E067E572E00E9402
:1004F0006A1868EE73E080E090E00E94661082E285
:1005000093E065E672E041E021E00E943505039743
:1005100051F780E496E06AE672E00E946A18089556
:1005200080E00895FC018EEA92E0918380830E962C
:100530009383828360935B03089502960E948305F0
:10054000089581E090E090935F0380935E0387E0DD
:1005500061E00E94D41160ED77E080E090E00E94BD
:10056000661087E060E00E94D41181E090E0089579
:1005700081E090E090935F0380935E0387E061E009
:100580000E94D41160EE7EE280E090E00E9466104E
:1005900087E060E00E94D41168EE73E080E090E0B4
:1005A0000E94661081E090E008959F92AF92BF9202
:1005B000CF92DF92EF92FF920F931F93DF93CF932F
:1005C000CDB7DEB763970FB6F894DEBF0FBECDBFD1
:1005D0008C0187E061E00E94211187E061E00E94C8
:1005E000D4116CED75E080E090E00E94661087E029
:1005F00060E00E94D41181E090E090935F038093CB
:100600005E038CE693E00E94A1080E9458105B01F3
:100610006C0182E0E82EF12CEC0EFD1EC801029662
:1006200061EF70E0A7010E9475059E2CEF2C8E01F2
:100630000F5F1F4F13C061E070E080E090E00E9408
:1006400066108DE493E0B801492D5E2D20E030E086
:100650000E94D506882311F089810CC00E94581091
:100660006A197B098C099D09685873418040904044
:1006700010F380E063960FB6F894DEBF0FBECDBFD7
:10068000CF91DF911F910F91FF90EF90DF90CF906E
:10069000BF90AF909F900895DF93CF930F92CDB707
:1006A000DEB780915803813019F0823039F50BC0E4
:1006B0008DE493E064EE70E041E00E94BA0682E0CF
:1006C000809358031BC08DE493E0BE016F5F7F4FA2
:1006D00040E050E020E030E00E94D506882371F031
:1006E0008981882329F08DE493E061E070E004C003
:1006F0008DE493E063E070E00E948B050F90CF9152
:10070000DF9108950F931F938C011092570381E09E
:1007100080935803B8016E5F7F4F8DE493E043E010
:1007200050E00E94EF05C8010E944C0380915703DE
:1007300090E01F910F910895CF92DF92EF92FF9278
:100740000F931F93DF93CF93CDB7DEB769970FB6A3
:10075000F894DEBF0FBECDBFAC0180915803282FA7
:1007600030E02130310541F482E0809358038DE47C
:1007700093E064EE70E033C12230310589F58DE4F9
:1007800093E0BE016F5F7F4F40E050E020E030E03B
:100790000E94D506882309F425C18981882309F49C
:1007A0000CC1E0915303F0915403309709F40CC14C
:1007B0008081882309F408C18DE493E062E471E04C
:1007C00040E00E94BA0683E080935803609153038F
:1007D000709154038DE493E041E00E949C0602C1B5
:1007E00023303105D1F48DE493E0BE016F5F7F4F7C
:1007F00040E050E020E030E00E94D506882309F474
:10080000F1C08981882309F4D8C084E0809358031B
:100810008DE493E00E941F063EC02430310509F0AC
:1008200043C08A010E5F1F4F22E0C22ED12CCC0E96
:10083000DD1EC80166E371E0A6010E9475059EE019
:10084000E92EF12CEC0EFD1EC8016AE271E0A70151
:100850000E9475058DE493E0BE016F5F7F4FA60196
:1008600097010E94D506882309F4BCC0898188239A
:1008700041F085E0809358038DE493E06FE171E0EF
:10088000AEC08DE493E00E941F066958734180401A
:10089000904008F092C08DE493E040ED57E060E0B6
:1008A00070E00E94FA0597C025303105F1F48DE41F
:1008B00093E0BE016F5F7F4F40E050E020E030E00A
:1008C0000E94D506882309F48DC08DE493E040EDA5
:1008D00057E060E070E00E94FA0586E080935803DC
:1008E0008DE493E065E171E07AC026303105B1F422
:1008F0008DE493E0BE016F5F7F4F40E050E020E069
:1009000030E00E94D506882309F46CC087E080930C
:1009100058038DE493E06BE071E061C0273031054E
:10092000B1F48DE493E0BE016F5F7F4F40E050E093
:1009300020E030E00E94D506882309F453C088E007
:10094000809358038DE493E066E071E048C028305E
:100950003105A9F48DE493E0BE016F5F7F4F40E065
:1009600050E020E030E00E94D5068823D9F189E0EC
:10097000809358038DE493E06CEF70E030C0293031
:10098000310581F58DE493E0BE016F5F7F4F40E05C
:1009900050E020E030E00E94D506882319F18981DB
:1009A000882359F083E090E090935F0380935E0387
:1009B0008DE493E061E070E004C08DE493E063E0D7
:1009C00070E00E948B050EC084E0809358038DE494
:1009D00093E00E941F068DE493E067EE70E041E033
:1009E0000E94BA0669960FB6F894DEBF0FBECDBF5F
:1009F000CF91DF911F910F91FF90EF90DF90CF90FB
:100A000008950F931F938C017093540360935303C5
:100A1000BC016E5F7F4F8DE493E042E050E00E94A6
:100A2000EF0582E090E090935F0380935E03C8013E
:100A30000E949C038091570390E01F910F910895AD
:100A400002970E94240508952091590330915A037A
:100A50002230310521F02330310531F403C00E94EA
:100A60009C0308950E944C030895EF92FF920F9308
:100A70001F93CF93DF93EC017B01142F022F87E0AC
:100A800061E00E942111112321F0CE010E94B802E1
:100A900003C0CE010E94A1028CE693E040E855E23B
:100AA00060E070E00E942F08CE01B7010E940105AE
:100AB000002339F40FC068EE73E080E090E00E94FC
:100AC0006610E881F9810680F781E02DCE01199545
:100AD000892B89F380915E0390915F03DF91CF9121
:100AE0001F910F91FF90EF90089580E090E0FB013F
:100AF000E80FF91FE491DA01A80FB91FEC930196F2
:100B0000EE23A9F708958DE493E00E948406809176
:100B1000570390E00895FC016130710551F0809118
:100B2000590390915A03029721F410925F03109297
:100B30005E03628781E090E095878487128E118E34
:100B400081E083870895CF92DF92EF92FF920F9317
:100B50001F93CF93DF937C01D62EC42E8C01C0E06F
:100B6000D0E0F801A389B489109711F480E009C09E
:100B7000ED91FC9111970280F381E02DCD016D2D57
:100B800019952196C330D10529F00E5F1F4F882398
:100B900041F311C0882379F4F701A18DB28D10972C
:100BA00051F0ED91FC9111970190F081E02DCD0174
:100BB0006D2D4C2D1995DF91CF911F910F91FF90C5
:100BC000EF90DF90CF900895FC018685882319F07F
:100BD0006787408B0895CF010E94A3050895FC010B
:100BE000728F618F128681E08387558744871786CD
:100BF000108A0895AF92BF92CF92DF92EF92FF9248
:100C00000F931F935A016B01EE24FF24870109C043
:100C100088EE93E00E944E090894E11CF11C011D2E
:100C2000111DEA14FB040C051D0590F31F910F9193
:100C3000FF90EF90DF90CF90BF90AF900895CF924C
:100C4000DF92EF92FF920F931F938C010E94581036
:100C5000F801238D348D458D568D6B017C01C21AB0
:100C6000D30AE40AF50AA7019601638F748F858F72
:100C7000968FB601CA011F910F91FF90EF90DF9000
:100C8000CF90089502970E94460608951F93CF9330
:100C9000DF93EC01162F8E85882319F0862F0E9492
:100CA000230DCE014F96612F0E94A608DF91CF91B0
:100CB0001F910895EF92FF920F931F93CF93DF93AD
:100CC0007C01042FEB01FE011491112349F0D7019F
:100CD000ED91FC910280F381E02DC701612F199500
:100CE0002196112381F7002331F0C70102966AE7AC
:100CF00072E00E94671881E090E0DF91CF911F9130
:100D00000F91FF90EF900895CF93DF93EC018E85C4
:100D1000882379F09F858889981759F0CE01C2966B
:100D20000E943F0DCE016F8548890E94A3051F8652
:100D3000188ADF91CF910895DF92EF92FF920F937F
:100D40001F938C017B01D42EC2960E94E00B0E5F94
:100D50001F4FC801B7010E946718DD2029F0C801A4
:100D60006AE772E00E9467181F910F91FF90EF9061
:100D7000DF900895DF92EF92FF920F931F938C0103
:100D80007B01D42EC2960E94E00BD801ED91FC911C
:100D90000480F581E02DC801B7014D2D19951F91F3
:100DA0000F91FF90EF90DF900895EF92FF920F93D5
:100DB0001F93CF93DF937B01E9014115510539F46E
:100DC0002115310521F44091A8025091A9028C010E
:100DD0000E5C1F4FC801BA010E947D0CF701808391
:100DE000882341F4209731F0C801BE010E947D0C98
:100DF000F701808381E0DF91CF911F910F91FF90E8
:100E0000EF9008950F931F938C01FC0115821482BB
:100E100084EC92E0918380830A9693838283C80155
:100E20004F960E94730BF80110A707A31786108A2C
:100E300081E08287138681E090E095878487C801EE
:100E40000E941F06F801148A138A168A158A108ECA
:100E5000178A1F910F9108958DE493E00E94020775
:100E60000895FC011382128288EE93E0A0E0B0E0C6
:100E700084839583A683B78386ED92E091838083F4
:100E8000662319F08485816084870895E0911504B4
:100E9000F0911604A081B18150962D913C9151970B
:100EA000CF01F90119950895A0911504B091160488
:100EB000ED91FC9111970280F381E02DCD01199500
:100EC00081E090E00895A0911504B0911604ED9191
:100ED000FC9111970484F585E02DCD0119950895B5
:100EE000E0911504F0911604A081B1811E962D9118
:100EF0003C911F97CF01F90119950895E0911504D0
:100F0000F0911604A081B18118962D913C9119970A
:100F1000CF01F901199508950F938DE094E060E0F9
:100F200040E020E000E00E94B51683E094E00E94DB
:100F3000770D0F910895EF92FF920F931F93CF9328
:100F4000DF93EC018C8580FF1BC00E9458107B0151
:100F50008C010E9458106E197F09800B910B605113
:100F6000774280409040C0F4CE010E944607892B12
:100F700099F464E670E080E090E00E946610E9CFAA
:100F8000CE010E9446079C01C901DF91CF911F91BC
:100F90000F91FF90EF900895CE010E94460720E048
:100FA00030E0019789F721E030E0EECF0F931F93F7
:100FB0008C01A0911504B0911604ED91FC9111974C
:100FC0000680F781E02DCD011995BC01C8010E9472
:100FD0009B071F910F9108950F931F938C01A09170
:100FE0001504B0911604ED91FC9111970284F385DC
:100FF000E02DCD011995C80161E070E00E949B07CA
:101000001F910F9108950F931F938C01A0911504C8
:10101000B0911604ED91FC9111970480F581E02DBB
:10102000CD011995BC01C8010E949B071F910F912A
:1010300008950F931F938C01A0911504B09116048D
:10104000ED91FC9111970190F081E02DCD01199562
:10105000BC01C8010E949B071F910F910895CF9278
:10106000DF92EF92FF920F931F93CF93DF93EC01E8
:101070007A018B01198A188A1F861E861D861C8696
:101080001B861A8620E030E06901CC0CDD1CC20E04
:10109000D31EB601660F771F660F771FAB01455B46
:1010A0005E4FFA0185919591A591B4918E159F059A
:1010B000A007B107E9F4FB01E15BFE4F8591949134
:1010C0009B878A87FB01EF5AFE4F859194919D87FC
:1010D0008C87FB01ED5AFE4F859194919F878E87F7
:1010E000FB01EB5AFE4F85919491998B888B06C03A
:1010F0002F5F3F4F2C30310509F0C6CF8E859F857D
:10110000892B91F0809168008160809368008091C4
:101110006B00806180936B008889998920E001973A
:101120002FEF8F3F9207D9F7D0931404C093130485
:10113000DF91CF911F910F91FF90EF90DF90CF90B3
:10114000089510921404109213040895CF93DF931E
:10115000EC0188899989892B19F420E030E03BC0A3
:10116000613181F4E881F9810280F381E02DCE01C3
:1011700067E71995E881F9810280F381E02DCE01BE
:101180006EEE27C0633181F4E881F9810280F3813A
:10119000E02DCE0167E71995E881F9810280F3819E
:1011A000E02DCE016CEE15C0E881F981673769F456
:1011B0000280F381E02DCE011995E881F98102804A
:1011C000F381E02DCE0168E804C00280F381E02DB8
:1011D000CE0119959C01C901DF91CF9108950F931C
:1011E0001F93DC011FB7F8941696ED91FC911797A9
:1011F000908115968C9115978095892380835096C0
:101200008D919C915197059620E001972FEF8F3F8C
:101210009207D9F731E040E050E070E000E0832F22
:1012200090E0862397231696ED91FC9117971596DB
:101230002C911597892B21F08081822B808304C00B
:10124000808120952823208350968D919C915197E1
:10125000202F01972FEF8F3F9207D9F7330F4F5F62
:101260005F4F48305105D9F61696ED91FC911797CE
:10127000808115969C911597892B80831FBF50966E
:101280008D919C91519720E001972FEF8F3F92070E
:10129000D9F781E090E01F910F91089520E0019728
:1012A0002FEF8F3F9207D9F70895FC01DB012C91B6
:1012B0002F3F39F4928991FF0BC082E09827928BDF
:1012C00005C0273729F482898160828B80E00895E8
:1012D000828980FD02C081E008952E3E11F481E1F3
:1012E00007C02C3E11F483E103C0283811F487E7CE
:1012F0008C93828991E08927828B81E00895FC019B
:10130000A081B18112962D913C91139761E1F90171
:10131000199508954F925F926F927F929F92AF922C
:10132000BF92CF92DF92EF92FF920F931F93DF93C2
:10133000CF930F92CDB7DEB78C012F933F934F938E
:101340005F936F937F93AF93BF931982DC011396E2
:10135000ED91FC911497808112969C91892309F05C
:10136000CDC033E1A32EB12CA00EB11E99249394CD
:10137000EE24CC242E010894411C511C21E0622E45
:10138000712CF8018489828593852C2D01972FEF8C
:101390008F3F9207D9F7D80153969C915397549653
:1013A0008C915497FF248095890F8F77863070F445
:1013B000FF24F394EE2051F41696ED91FC911797CB
:1013C000908115968C9180958923808331E040E04F
:1013D00050E0F801848595852C2D01972FEF8F3FE4
:1013E0009207D9F7D8011396ED91FC91149780815B
:1013F00012969C9189239981882311F0932B03C025
:10140000832F809598239983FF20A9F0EE2099F4EB
:10141000832F8371D8011696ED91FC91179715963D
:101420009C91882321F08081892B808304C0808156
:10143000909598239083330F4F5F5F4F483051054D
:1014400041F6FF2009F473C0EE2099F4F801848579
:1014500095852E2D01972FEF8F3F9207D9F7D80151
:101460001696ED91FC911797808115969C91892B8A
:101470008083F80182898260828BEE24E394C80124
:10148000B2010E945509882351F0C50169810E946B
:10149000970B992021F0D8015496DC909924D8011B
:1014A0001396ED91FC91149712965C9120E030E038
:1014B000C3014C2D01974FEF8F3F9407D9F78081DF
:1014C000852309F45ECF2F5F3F4F2233310581F72B
:1014D000FF2029F489818A3011F0803279F4F801F3
:1014E000A085B185109751F04489ED91FC91119739
:1014F0000190F081E02DCD016D2D1995BF91AF9137
:101500007F916F915F914F913F912F910F90CF916C
:10151000DF911F910F91FF90EF90DF90CF90BF90E0
:10152000AF909F907F906F905F904F900895D801FB
:101530001E968D919C911F972F2D01972FEF8F3F16
:101540009207D9F79CCF1F920F920FB60F920BB64E
:101550000F9211242F933F934F935F936F937F9339
:101560008F939F93AF93BF93EF93FF938091130457
:1015700090911404009711F00E948A09FF91EF9155
:10158000BF91AF919F918F917F916F915F914F919B
:101590003F912F910F900BBE0F900FBE0F901F9099
:1015A00018951F920F920FB60F920BB60F9211243F
:1015B0002F933F934F935F936F937F938F939F935B
:1015C000AF93BF93EF93FF93809113049091140412
:1015D000009711F00E948A09FF91EF91BF91AF919E
:1015E0009F918F917F916F915F914F913F912F913B
:1015F0000F900BBE0F900FBE0F901F9018951F926B
:101600000F920FB60F920BB60F9211242F933F93A8
:101610004F935F936F937F938F939F93AF93BF93FA
:10162000EF93FF938091130490911404009711F0AD
:101630000E948A09FF91EF91BF91AF919F918F9185
:101640007F916F915F914F913F912F910F900BBEC2
:101650000F900FBE0F901F9018950F931F938C0142
:101660008AE060E00E9421118AE061E00E94D411CA
:10167000E3EAF2E0E491D8011296EC931297EDE5DB
:10168000F2E0E491F0E0EE0FFF1FE75CFD4F859183
:10169000949114969C938E9313971F910F91089594
:1016A0000F931F938C0183E061E00E94211183E07E
:1016B00061E00E94D411ECE9F2E0E491D8011596C2
:1016C000EC931597E6E5F2E0E491F0E0EE0FFF1FF2
:1016D000E15EFD4F8591949117969C938E9316979A
:1016E0001F910F9108950F931F938C0186EE92E046
:1016F000F8019183808313861286158614861786D7
:101700001686118A108AC8014396B8010E94910B6F
:10171000C8010E94500BC8010E942D0B1F910F9110
:101720000895FC0110821182738362830895DC01A5
:1017300011969C9111979F5F9F778C91981719F440
:1017400020E030E00FC011968C911197FD01E80F59
:10175000F11D6483FD01E90FF11D148211969C9324
:1017600021E030E0C9010895DC019C9111968C9133
:101770001197981711F490E009C08C91FD01E80FC2
:10178000F11D94818C918F5F8F778C93892F0895B1
:10179000FC0191818081891718F49181808103C0B7
:1017A000918180819058981B892F90E06817790764
:1017B00014F080E008958081E80FF11D8481089580
:1017C000FC01818180830895BF92CF92DF92EF92D6
:1017D000FF920F931F93CF93DF936C01EB01B22F16
:1017E00088818823E1F160E070E0A0E034C0542FEC
:1017F000F601E50FF11D248130E0FE01E60FF71F31
:101800008081992787FD909528173907C1F4AA236D
:1018100009F4B52E6F5F7F4FFE01E60FF71F808141
:10182000882311F0A1E011C00115110511F0F80194
:10183000B082E114F10499F0F701508310C0AA239B
:1018400021F060E070E0A0E004C05F5F5F775B17AD
:1018500079F64F5F4F774B1751F680E001C081E07A
:10186000DF91CF911F910F91FF90EF90DF90CF907C
:10187000BF900895AF92BF92CF92DF92EF92FF9206
:101880000F931F93DF93CF930F920F92CDB7DEB7D5
:101890006C01B42EA22EFC01408121818E010F5FCC
:1018A0001F4F32E0E32EF12CEC0EFD1E0E94E40BE4
:1018B0008823B1F0AA2051F0BB2021F08A818F5FEC
:1018C0008F7701C08981F601808309C0BB2021F098
:1018D0008A818F5F8F7701C08981F601818381E0E2
:1018E0000F900F90CF91DF911F910F91FF90EF908C
:1018F000DF90CF90BF90AF900895EF92FF920F933B
:101900001F93FC014081218100E010E0EE24FF24C0
:101910000E94E40B1F910F91FF90EF9008958F921A
:101920009F92AF92BF92CF92DF92EF92FF920F936E
:101930001F93DF93CF930F920F92CDB7DEB76C0159
:101940005A014901FC014081218100E010E07E0143
:101950000894E11CF11C0E94E40B882359F1498191
:101960004F5F4983F6012181C601B5018E010E5FEB
:101970001F4FEE24FF240E94E40B8823D9F04981F5
:1019800020E030E008C0EC0DFD1D84818C932F5FBA
:101990003F4F4F5F4F77E42FF0E08A8190E08F77E1
:1019A0009070D401A20FB31FE817F90761F71C92DA
:1019B00081E001C080E00F900F90CF91DF911F91E7
:1019C0000F91FF90EF90DF90CF90BF90AF909F90DE
:1019D0008F900895DC014C914F5F20E030E090E063
:1019E00060E025C0FD01E40FF11D5481503219F46F
:1019F000992329F41AC05D3211F49923A1F0852F9F
:101A000080538A30C8F4C901E3E0880F991FEA9532
:101A1000E1F7220F331F280F391F20533040250FC5
:101A2000311D91E002C091E061E04F5F4F77119668
:101A30008C9111974817B1F6662319F030952195CE
:101A40003F4FC90108951F93182F80528F3520F4FE
:101A500080E496E0612F0FC080E496E065E20E948A
:101A60004B1780E496E0612F4AE050E00E94021894
:101A700080E496E065E20E944B171F9108950F9352
:101A80001F93CF93DF93EC011881098180E496E0E6
:101A90000E94531780E496E0612F4AE050E00E94D4
:101AA000021880E496E06FE772E00E94671880E415
:101AB00096E0602F4AE050E00E94021880E496E031
:101AC0006EE30E944B1708C0FE01E10FF11D8481F7
:101AD0000E94230D1F5F1F771017B1F780E496E077
:101AE0000E945317DF91CF911F910F910895FC0130
:101AF00080EF92E091838083489693838283F09372
:101B00001604E0931504089502960E948305089533
:101B10008DE493E00E94460608950F931F93DF9390
:101B2000CF930F92CDB7DEB78C01809158038130EF
:101B300019F08230B1F51AC082E0809358038DE429
:101B400093E06BED71E040E00E94BA06F801648119
:101B500075818FE493E04AE050E00E9454188FE4CE
:101B600093E061E872E00E9467181BC08DE493E087
:101B7000BE016F5F7F4F40E050E020E030E00E9408
:101B8000D506882371F08981882329F08DE493E0BC
:101B900061E070E004C08DE493E063E070E00E94D7
:101BA0008B050F90CF91DF911F910F910895DF93D7
:101BB000CF930F92CDB7DEB780915803813019F0E3
:101BC000823059F50FC082E0809358038DE493E092
:101BD0006AE10E9446068FE493E061E872E00E94A9
:101BE00067181BC08DE493E0BE016F5F7F4F40E03C
:101BF00050E020E030E00E94D506882371F0898112
:101C0000882329F08DE493E061E070E004C08DE466
:101C100093E063E070E00E948B050F90CF91DF911D
:101C200008950F931F938C01BC016E5F7F4F8DE46D
:101C300093E045E050E00E94EF05C8010E94D70DF7
:101C40008091570390E01F910F910895DF93CF93F8
:101C50000F92CDB7DEB780915803813019F08230F2
:101C6000A9F519C082E0809358038DE493E06BEFEF
:101C700071E040E00E94BA066091530370915403F2
:101C80008FE493E00E9467188FE493E063E872E0CA
:101C90000E9467181BC08DE493E0BE016F5F7F4F09
:101CA00046E852E020E030E00E94D506882371F03B
:101CB0008981882329F08DE493E061E070E004C01D
:101CC0008DE493E063E070E00E948B050F90CF916C
:101CD000DF910895CF93DF93EC0180915E039091A3
:101CE0005F038330910541F0049731F022E030E04A
:101CF000C901DF91CF91089570935403609353030A
:101D0000BE016E5F7F4F8DE493E044E050E00E949F
:101D1000EF05CE010E94260E80915703282F30E058
:101D2000E7CF0F931F93CF93DF938C01C0E0D0E0F8
:101D30008FE793E00E94E00B8CE693E00E947F091E
:101D40006AE070E080E090E00E9466102196C53065
:101D5000D10571F7B8016E5F7F4F8DE493E047E0E6
:101D600050E00E94EF05C8010E948D0DDF91CF91D8
:101D70001F910F910895FC018681882351F481E021
:101D800086838FE793E068E872E041E021E00E94FB
:101D90003A0C8FE793E060E070E00E94C80B282FB8
:101DA000332727FD3095C90108950F931F93CF93D3
:101DB000DF93EC018E81882351F481E08E838FE7DD
:101DC00093E068E872E041E021E00E943A0C8FE77E
:101DD00093E00E94B40B182F8985882341F019865F
:101DE0008FE793E06AE872E00E947D0C888788851F
:101DF000882359F58F81882369F190917F03809121
:101E000080038095890F8F77012F112707FD10958B
:101E10008F3709F045C08FE793E00E94E00B1F82E7
:101E200081E0898722968DE493E0BE0140E050E096
:101E30000E94EF058CE693E00E947F096AE070E063
:101E400080E090E00E9466102BC08FE793E06AE884
:101E500072E004C08FE793E060E972E00E947D0CBD
:101E6000882329F0212F332727FD30951AC08FE7CB
:101E700093E00E94E00B22968DE493E0BE0140E0E7
:101E800050E00E94EF058CE693E00E947F096AE033
:101E900070E080E090E00E94661020E030E001C039
:101EA0009801C901DF91CF911F910F9108950F9370
:101EB0001F939B018A018FE793E067E972E04FE986
:101EC00052E00E948F0C81E090E01F910F910895E5
:101ED0000F931F93CF93DF93EC018B0190917F03BE
:101EE000809180031F828095890F8F77853010F451
:101EF00081E08F838FE793E061EA72E041E021E0C7
:101F00000E943A0C882319F4F801108203C081E082
:101F1000F80180838FE793E00E94EA0C9D838C8315
:101F20008FE793E06AE872E00E947D0C888719864B
:101F300081E0DF91CF911F910F910895DF93CF93AF
:101F40000F92CDB7DEB720915803213019F022301F
:101F500009F50BC08DE493E064EE71E041E00E946E
:101F6000BA0682E08093580315C0BE016F5F7F4FB1
:101F70000E94680F882371F08981882329F48DE4F9
:101F800093E064E070E004C08DE493E061E070E011
:101F90000E948B050F90CF91DF91089502970E94C8
:101FA000D20F08952091590330915A0325303105FD
:101FB000B9F0263031053CF42130310559F0243098
:101FC0003105B1F40AC02630310569F027303105FA
:101FD00079F40CC06093800308950E94260E089542
:101FE0000E94D70D08950E949E0F08950E948D0DA6
:101FF00008950F931F938C01FC011682BC016E5F44
:102000007F4F8DE493E046E050E00E94EF05C80169
:102010000E949E0F8091570390E01F910F910895A9
:102020001F920F920FB60F9211242F933F938F930D
:102030009F93AF93BF9380911B0490911C04A09138
:102040001D04B0911E0430911F040196A11DB11D05
:10205000232F2D5F2D3720F02D570196A11DB11D87
:1020600020931F0480931B0490931C04A0931D04D1
:10207000B0931E048091170490911804A091190444
:10208000B0911A040196A11DB11D8093170490937D
:102090001804A0931904B0931A04BF91AF919F91B3
:1020A0008F913F912F910F900FBE0F901F90189519
:1020B0008FB7F89420911B0430911C0440911D04AB
:1020C00050911E048FBFB901CA0108959B01AC0154
:1020D0007FB7F8948091170490911804A091190487
:1020E000B0911A0466B5A89B05C06F3F19F0019620
:1020F000A11DB11D7FBFBA2FA92F982F8827860F4A
:10210000911DA11DB11D62E0880F991FAA1FBB1F61
:102110006A95D1F7BC012DC0FFB7F89480911704E0
:1021200090911804A0911904B0911A04E6B5A89BE7
:1021300005C0EF3F19F00196A11DB11DFFBFBA2FD9
:10214000A92F982F88278E0F911DA11DB11DE2E0A8
:10215000880F991FAA1FBB1FEA95D1F7861B970B03
:10216000885E9340C8F22150304040405040685152
:102170007C4F211531054105510571F6089578947C
:1021800084B5826084BD84B5816084BD85B582607C
:1021900085BD85B5816085BDEEE6F0E0808181601A
:1021A0008083E1E8F0E0108280818260808380811A
:1021B00081608083E0E8F0E0808181608083E1EBF2
:1021C000F0E0808184608083E0EBF0E080818160DA
:1021D0008083E1E9F0E0808182608083808181609A
:1021E0008083E0E9F0E0808181608083E1EAF0E0D3
:1021F000808182608083808181608083E0EAF0E07A
:10220000808181608083E1E2F1E08081826080836F
:10221000808181608083E0E2F1E080818160808361
:10222000EAE7F0E08081846080838081826080833F
:102230008081816080838081806880831092C1006A
:102240000895CF93DF93482F50E0CA0187569D4FE2
:10225000FC0134914D5A5D4FFA018491882369F154
:1022600090E0880F991FFC01EB5FFD4FA591B491A1
:10227000FC01E15EFD4FC591D491662351F42FB767
:10228000F8948C91932F909589238C93888189233E
:102290000BC0623061F42FB7F8948C91932F909516
:1022A00089238C938881832B88832FBF06C09FB797
:1022B000F8948C91832B8C939FBFDF91CF910895DD
:1022C000893009F449C08A30A0F4843051F1853056
:1022D00040F4823079F1833000F5813009F063C039
:1022E00026C0873079F1883098F5863009F05BC0D8
:1022F00025C08D3009F442C08E3028F48B30B1F106
:102300008C30C0F52DC0803109F442C0813109F410
:1023100045C08F3009F047C037C0809180008F776B
:1023200003C0809180008F7D80938000089584B5E4
:102330008F7702C084B58F7D84BD08958091B000F1
:102340008F7703C08091B0008F7D8093B000089597
:10235000809190008F7707C0809190008F7D03C09F
:1023600080919000877F8093900008958091A000D5
:102370008F7707C08091A0008F7D03C08091A0005F
:10238000877F8093A0000895809120018F7703C0FC
:10239000809120018F7D80932001089580912001FC
:1023A000877F809320010895FF920F931F93F62E4D
:1023B000482F50E0CA0181529D4FFC012491CA016F
:1023C00087569D4FFC0114914D5A5D4FFA010491BF
:1023D0000023C9F0222319F0822F0E946011E02F00
:1023E000F0E0EE0FFF1FE15EFD4FA591B4919FB7A6
:1023F000F894FF2021F48C911095812302C08C91D8
:10240000812B8C939FBF1F910F91FF90089508958A
:102410001F920F920FB60F920BB60F9211242F93AB
:102420003F934F938F939F93EF93FF938091C000BF
:1024300082FD1DC04091C60020916004309161046E
:102440002F5F3F4F2F73307080916204909163042F
:102450002817390771F0E0916004F0916104E05EA3
:10246000FB4F4083309361042093600402C080914D
:10247000C600FF91EF919F918F914F913F912F91C6
:102480000F900BBE0F900FBE0F901F9018950895E0
:102490001F920F920FB60F920BB60F9211242F932B
:1024A0003F934F938F939F93EF93FF938091C80037
:1024B00082FD1DC04091CE002091E8043091E904D6
:1024C0002F5F3F4F2F7330708091EA049091EB049F
:1024D0002817390771F0E091E804F091E904E85514
:1024E000FB4F40833093E9042093E80402C08091BD
:1024F000CE00FF91EF919F918F914F913F912F913E
:102500000F900BBE0F900FBE0F901F90189508955F
:102510001F920F920FB60F920BB60F9211242F93AA
:102520003F934F938F939F93EF93FF938091D000AE
:1025300082FD1DC04091D60020917005309171053B
:102540002F5F3F4F2F73307080917205909173050C
:102550002817390771F0E0917005F0917105E05D81
:10256000FA4F4083309371052093700502C080912B
:10257000D600FF91EF919F918F914F913F912F91B5
:102580000F900BBE0F900FBE0F901F9018950895DF
:102590001F920F920FB60F920BB60F9211242F932A
:1025A0003F934F938F939F93EF93FF9380913001CD
:1025B00082FD1DC0409136012091F8053091F9054A
:1025C0002F5F3F4F2F7330708091FA059091FB057C
:1025D0002817390771F0E091F805F091F905E854F2
:1025E000FA4F40833093F9052093F80502C080919B
:1025F0003601FF91EF919F918F914F913F912F91D4
:102600000F900BBE0F900FBE0F901F901895E0918A
:102610004C06F0914D06E05CFF4F81919191208135
:102620003181821B930B8F739070892B11F00E9464
:102630000712E0916E06F0916F06E05CFF4F81910A
:10264000919120813181821B930B8F739070892B24
:1026500011F00E944712E0919006F0919106E05C23
:10266000FF4F8191919120813181821B930B8F7358
:102670009070892B11F00E948712E091B206F091C0
:10268000B306E05CFF4F8191919120813181821BE3
:10269000930B8F739070892B11F00E94C7120895CD
:1026A0001F920F920FB60F920BB60F9211242F9319
:1026B0003F938F939F93EF93FF932091A4043091C6
:1026C000A5048091A6049091A7042817390731F436
:1026D0008091C1008F7D8093C10014C0E091A60459
:1026E000F091A704EC59FB4F20818091A6049091B2
:1026F000A70401968F7390709093A7048093A6040B
:102700002093C600FF91EF919F918F913F912F9160
:102710000F900BBE0F900FBE0F901F9018951F9239
:102720000F920FB60F920BB60F9211242F933F9377
:102730008F939F93EF93FF9320912C0530912D055C
:1027400080912E0590912F052817390731F480913B
:10275000C9008F7D8093C90014C0E0912E05F091CF
:102760002F05E451FB4F208180912E0590912F057C
:1027700001968F73907090932F0580932E05209370
:10278000CE00FF91EF919F918F913F912F910F90EC
:102790000BBE0F900FBE0F901F9018951F920F92B7
:1027A0000FB60F920BB60F9211242F933F938F9376
:1027B0009F93EF93FF932091B4053091B5058091DD
:1027C000B6059091B7052817390731F48091D100EB
:1027D0008F7D8093D10014C0E091B605F091B705CC
:1027E000EC58FA4F20818091B6059091B70501967B
:1027F0008F7390709093B7058093B6052093D600A1
:10280000FF91EF919F918F913F912F910F900BBE70
:102810000F900FBE0F901F9018951F920F920FB63A
:102820000F920BB60F9211242F933F938F939F9388
:10283000EF93FF9320913C0630913D0680913E0638
:1028400090913F062817390731F4809131018F7D2F
:102850008093310114C0E0913E06F0913F06E450B0
:10286000FA4F208180913E0690913F0601968F732A
:10287000907090933F0680933E0620933601FF911F
:10288000EF919F918F913F912F910F900BBE0F90E1
:102890000FBE0F901F901895AF92BF92DF92EF92EC
:1028A000FF920F931F93CF93DF93EC017A018B017B
:1028B000DD24403081EE580780E0680780E078072B
:1028C00011F0DD24D39491E0A92EB12CEC89FD897F
:1028D000DD2069F0C50108A002C0880F991F0A9485
:1028E000E2F7808360E079E08DE390E005C010823C
:1028F00060E874E88EE190E0A80197010E949C18BE
:102900002150304040405040569547953795279587
:1029100080E12030380720F0DD2011F0DD24D6CF13
:10292000E889F9893083EA89FB89208319A2EE8935
:10293000FF89408121E030E0C9010C8C02C0880F82
:10294000991F0A94E2F7482B4083EE89FF89408162
:10295000C9010D8C02C0880F991F0A94E2F7482B19
:102960004083EE89FF894081C9010E8C02C0880F27
:10297000991F0A94E2F7482B4083EE89FF898081F2
:102980000F8C02C0220F331F0A94E2F720952823F0
:102990002083DF91CF911F910F91FF90EF90DF90F7
:1029A000BF90AF900895DC011C96ED91FC911D97AE
:1029B000E05CFF4F2191319180819181281B390B7F
:1029C0002F733070C9010895DC011C96ED91FC91C4
:1029D0001D97E05CFF4F20813181E054F040DF0122
:1029E000AE5BBF4F8D919C9111972817390719F451
:1029F0002FEF3FEF07C08D919C91E80FF91F808169
:102A0000282F30E0C9010895DC011C96ED91FC915E
:102A10001D97E05CFF4F20813181E054F040DF01E1
:102A2000AE5BBF4F8D919C9111972817390719F410
:102A30002FEF3FEF10C08D919C911197E80FF91F78
:102A400020818D919C91119701968F7390701196B2
:102A50009C938E9330E0C9010895DC0191968C918E
:102A60009197882339F05496ED91FC915597808188
:102A700086FFF9CF91961C920895CF93DF93EC01D6
:102A8000EE85FF85E05CFF4F20813181E054F0400E
:102A90002F5F3F4F2F733070DF01AE5BBF4F8D91C3
:102AA0009C91119728173907D1F3E05CFF4F808183
:102AB0009181E054F040E80FF91F6083EE85FF85B7
:102AC000E05CFF4F31832083EE89FF89208181E024
:102AD00090E00F8C02C0880F991F0A94E2F7282B10
:102AE000208381E089A3EC89FD89808180648083D3
:102AF00081E090E0DF91CF91089581E008951F93E8
:102B0000109243061092420628EE33E040E050E077
:102B1000209344063093450640934606509347065B
:102B200060E173E0709341066093400680E294E0B8
:102B300090934D0680934C0684E694E090934F0664
:102B400080934E0685EC90E090935106809350065A
:102B500084EC90E0909353068093520680EC90E0D2
:102B6000909355068093540681EC90E0909357061D
:102B70008093560682EC90E0909359068093580615
:102B800086EC90E090935B0680935A0614E01093D5
:102B90005C06B3E0B0935D06A7E0A0935E06F5E0A7
:102BA000F0935F06E1E0E0936006109265061092F4
:102BB0006406209366063093670640936806509338
:102BC0006906709363066093620688EA94E09093C6
:102BD0006F0680936E068CEE94E09093710680935E
:102BE00070068DEC90E090937306809372068CECE7
:102BF00090E0909375068093740688EC90E0909333
:102C000077068093760689EC90E09093790680931E
:102C100078068AEC90E090937B0680937A068EEC9F
:102C200090E090937D0680937C0610937E06B0938F
:102C30007F06A0938006F0938106E09382061092AF
:102C40008706109286062093880630938906409363
:102C50008A0650938B06709385066093840680E302
:102C600095E0909391068093900684E795E0909389
:102C700093068093920685ED90E09093950680935D
:102C8000940684ED90E0909397068093960680EDED
:102C900090E0909399068093980681ED90E0909350
:102CA0009B0680939A0682ED90E090939D06809318
:102CB0009C0686ED90E090939F0680939E0610936D
:102CC000A006B093A106A093A206F093A306E093FA
:102CD000A4061092A9061092A8062093AA06309383
:102CE000AB064093AC065093AD067093A706609375
:102CF000A60688EB95E09093B3068093B2068CEF1E
:102D000095E09093B5068093B40685E391E09093A7
:102D1000B7068093B60684E391E09093B90680935A
:102D2000B80680E391E09093BB068093BA0681E3F6
:102D300091E09093BD068093BC0682E391E090936E
:102D4000BF068093BE0686E391E09093C106809310
:102D5000C0061093C206B093C306A093C406F093B6
:102D6000C506E093C6061F9108950F93FC0180E20B
:102D700093E09183808362834383248305830F914F
:102D8000089580E293E09093C9068093C80610925C
:102D9000CA061092CB061092CC061092CD0608956A
:102DA0008F929F92AF92BF92CF92DF92EF92FF925B
:102DB0000F931F93CF93DF934C016B017C01AA24E7
:102DC000BB24C0E0D0E0C601F70162814AE050E0D8
:102DD0000E9402188C01C6016EE20E944B17080F78
:102DE000191FA00EB11E21960894E11CF11CC330DE
:102DF000D10549F7C601F40165814AE050E00E941F
:102E000002189501280F391FC901DF91CF911F9139
:102E10000F91FF90EF90DF90CF90BF90AF909F9079
:102E20008F900895CF93DF930E94BF100E945E029F
:102E3000C7E0D3E10E94DC012097E1F30E94071371
:102E4000F9CFCF92DF92EF92FF920F931F93CF9320
:102E5000DF937C016B018A01C0E0D0E00FC0D60196
:102E60006D916D01D701ED91FC910190F081E02D04
:102E7000C7011995C80FD91F015010400115110540
:102E800071F7CE01DF91CF911F910F91FF90EF90DD
:102E9000DF90CF900895DC01ED91FC910190F081DD
:102EA000E02D19950895EF92FF920F931F938C01D7
:102EB000DC01ED91FC910190F081E02D6DE0199520
:102EC0007C01D801ED91FC910190F081E02DC801C9
:102ED0006AE019959C012E0D3F1DC9011F910F91AC
:102EE000FF90EF900895CF93DF93EC01611571058A
:102EF00019F420E030E00FC0DB010D900020E9F76D
:102F00001197A61BB70BE881F9810280F381E02DB0
:102F1000AD0119959C01C901DF91CF9108954F92A0
:102F20005F927F928F929F92AF92BF92CF92DF92E9
:102F3000EF92FF920F931F93DF93CF93CDB7DEB73E
:102F4000A1970FB6F894DEBF0FBECDBF2C01742E33
:102F5000CB01223008F42AE019A231E2C32ED12C91
:102F6000CC0EDD1E822E9924AA24BB24672D752F3A
:102F7000A50194010E949C1879018A01C801B7013A
:102F8000A50194010E947D18472D461B0894C10895
:102F9000D1084A3014F4405D01C0495CF601408319
:102FA000E114F1040105110521F07E2C5F2DC8010B
:102FB000DDCFC201B6010E947317A1960FB6F89437
:102FC000DEBF0FBECDBFCF91DF911F910F91FF905C
:102FD000EF90DF90CF90BF90AF909F908F907F90B9
:102FE0005F904F900895DC012115310541F4ED917A
:102FF000FC910190F081E02D642F199508950E94B5
:103000008F170895EF92FF920F931F939A01E62E68
:10301000FF2400E010E0B801A7010E94F3171F9100
:103020000F91FF90EF900895CF92DF92EF92FF9271
:103030000F931F93CF93DF93EC016A017B0121155E
:10304000310541F4E881F9810190F081E02D642F90
:1030500019951FC02A303105D1F477FF17C0E881D8
:10306000F9810190F081E02D6DE219958C014427E2
:103070005527BA014C195D096E097F09CE012AE076
:103080000E948F179801280F391F04C02AE00E9460
:103090008F179C01C901DF91CF911F910F91FF9074
:1030A000EF90DF90CF900895EF92FF920F931F93D0
:1030B0007B019A010027F7FC0095102FB801A701AA
:1030C0000E9414181F910F91FF90EF9008950E9495
:1030D00073170895EF92FF920F931F937C010E9444
:1030E00073178C01C7010E945317080F191FC801DD
:1030F0001F910F91FF90EF900895629FD001739FF1
:10310000F001829FE00DF11D649FE00DF11D929F83
:10311000F00D839FF00D749FF00D659FF00D9927C2
:10312000729FB00DE11DF91F639FB00DE11DF91FE6
:10313000BD01CF0111240895A1E21A2EAA1BBB1BC9
:10314000FD010DC0AA1FBB1FEE1FFF1FA217B30773
:10315000E407F50720F0A21BB30BE40BF50B661F89
:10316000771F881F991F1A9469F76095709580954D
:1031700090959B01AC01BD01CF010895EE0FFF1F9B
:0C3180000590F491E02D1994F894FFCF15
:10318C004D65737361676520726563656976656407
:10319C002066726F6D3A000A454E44204F46204D12
:1031AC00455353414745000A434F4D504C455445F8
:1031BC00210A004D4553534147452044454C455445
:1031CC00454400534D53204D6573736167657320FF
:1031DC0053656E646572004E6F7420636F6E6E651E
:1031EC006374656400343232310047534D20696E8C
:1031FC00697469616C697A6564000D004F4B00203D
:10320C00000D00220D003E000A000D0A0D0A2B00D5
:10321C000D0A0D0A4F4B0052454144222C2200222C
:10322C00002B434D474C3A007C0200000000350552
:10323C008203D5029D022405FEFF000020059002AA
:10324C0000000000E40546065A06FEFF0000420698
:10325C0021170000000054072117D60770077E07BE
:10326C00EC07000000007F09EF08A6080000000032
:10327C006A0E880D110EF90FBB0E910E570FD50E5D
:10328C00840DD20FFEFF0000CE0F90020000000054
:10329C003D152117D3140415E4142D15000000005E
:0232AC00D0163A
:00000001FF
