:100000000C94F7000C941F010C941F010C94550ADA
:100010000C942B0A0C94010A0C941F010C941F01E0
:100020000C941F010C941F010C941F010C941F01D0
:100030000C941F010C941F010C941F010C941F01C0
:100040000C94600F0C941F010C94DE100C942C1176
:100050000C941F010C941F010C941F010C941F01A0
:100060000C941F010C941F0141540041542B434731
:100070005245473F00504F57455220444F574E007E
:1000800041542B434F4C503D3100415445300041C9
:10009000542B434C49503D310041542B434D47466E
:1000A0003D310041542B4946433D312C31002B4317
:1000B000475245473A20302C35002B43475245479D
:1000C0003A20302C310041542B4350494E3D000022
:1000D000C201000100110011000C0000E100000A43
:1000E0000025002500210000960000190039003984
:1000F000003600127A00001F0046004600440080CF
:1001000070000022004D004D004A00004B000036F8
:1001100000750075007200403800004A009C009C89
:10012000009900802500007200EC00EC00E900C09E
:10013000120000E900DA01DA01D70160090000D7F6
:1001400001B603B603B303B0040000B3036E076E39
:10015000076B072C010000DC0EC11DC11DBE1D4137
:10016000542B434D47443D0041542B434D474C3D98
:100170002252454320554E52454144222C310041E4
:10018000542B434D47533D2200000000002400271C
:10019000002A0000000000250028002B00000000BD
:1001A00000230026002900040404040404040402BB
:1001B0000202020202030303030303010204081004
:1001C00020408001020408102001020408102000D1
:1001D0000000070002010000030406000000000008
:1001E0000000000021018A06EA069A12FC1211247E
:1001F0001FBECFEFD8E0DEBFCDBF12E0A0E0B1E080
:10020000E2E0FAE202C005900D92A232B107D9F7FE
:1002100013E0A2E2B2E001C01D92A03DB107E1F7F8
:1002200011E0CEEED1E004C02297FE010E94FB1443
:10023000C43ED107C9F70E944D130C94FF140C94CF
:1002400000000F9387E492E060E040E020E000E0EF
:100250000E94F01282E292E060E00E94F00186E2E9
:1002600092E061E00E948F060F910895CF92DF9295
:10027000EF92FF920F931F93DF93CF93CDB7DEB72B
:10028000C85CD0400FB6F894DEBF0FBECDBF86E28B
:1002900092E00E943407892B09F458C088EA93E061
:1002A00060E071E00E94A51486E292E063E372E0F0
:1002B00044E150E00E94C10688EA93E063E372E003
:1002C0000E94A51486E292E00E9434079C018E01F0
:1002D0000F5F1F4FC801D02EC92E7801E20EF31E0A
:1002E0000CC086E292E00E94CE06682FF80181934E
:1002F0008F0188EA93E00E9486130E151F0589F787
:1003000088EA93E067E171E00E94A51486E292E03A
:1003100063E372E00E94770786E292E06D2D7C2D08
:100320000E94A21486E292E00E94610788EA93E0AC
:1003300067E271E00E94A51486E292E00E944A07FB
:1003400088EA93E063E371E00E94A51468EE73E02D
:1003500080E090E00E94B60FC853DF4F0FB6F894CC
:10036000DEBF0FBECDBFCF91DF911F910F91FF90E8
:10037000EF90DF90CF90089588EA93E040E855E24F
:1003800060E070E00E94671188EA93E00E94981292
:100390008823D1F388EA93E063E471E00E94A51416
:1003A0000CC088EA93E067E571E00E94A51468EE4E
:1003B00073E080E090E00E94B60F82E292E065E692
:1003C00071E041E021E00E949304039751F788EA2D
:1003D00093E06AE671E00E94A514089580E0089514
:1003E000FC018EEA91E0918380830E969383828351
:1003F00060935B02089502960E94E104089581E0F3
:1004000090E090935F0280935E0287E061E00E943B
:10041000891060ED77E080E090E00E94B60F87E001
:1004200060E00E94891081E090E0089581E090E012
:1004300090935F0280935E0287E061E00E948910E2
:1004400060EE7EE280E090E00E94B60F87E060E020
:100450000E94891068EE73E080E090E00E94B60F81
:1004600081E090E008959F92AF92BF92CF92DF9289
:10047000EF92FF920F931F93DF93CF93CDB7DEB729
:1004800063970FB6F894DEBF0FBECDBF8C0187E037
:1004900061E00E944A1087E061E00E9489106CEDE3
:1004A00075E080E090E00E94B60F87E060E00E9477
:1004B000891081E090E090935F0280935E028CE669
:1004C00092E00E94FF070E94A80F5B016C0182E08E
:1004D000E82EF12CEC0EFD1EC801029665E770E0D7
:1004E000A7010E94D3049E2CEF2C8E010F5F1F4F9B
:1004F00013C061E070E080E090E00E94B60F8DE4F0
:1005000092E0B801492D5E2D20E030E00E943306D4
:10051000882311F089810CC00E94A80F6A197B09F9
:100520008C099D09685873418040904010F380E029
:1005300063960FB6F894DEBF0FBECDBFCF91DF91AB
:100540001F910F91FF90EF90DF90CF90BF90AF90F1
:100550009F900895DF93CF930F92CDB7DEB7809130
:100560005802813019F0823039F50BC08DE492E0E9
:1005700068E670E041E00E94180682E0809358022D
:100580001BC08DE492E0BE016F5F7F4F40E050E002
:1005900020E030E00E943306882371F089818823AF
:1005A00029F08DE492E061E070E004C08DE492E017
:1005B00063E070E00E94E9040F90CF91DF9108950D
:1005C0000F931F938C011092570281E08093580281
:1005D000B8016E5F7F4F8DE492E043E050E00E94EF
:1005E0004D05C8010E94AA028091570290E01F9118
:1005F0000F910895CF92DF92EF92FF920F931F9386
:10060000DF93CF93CDB7DEB769970FB6F894DEBF0F
:100610000FBECDBFAC0180915802282F30E02130B1
:10062000310541F482E0809358028DE492E068E65F
:1006300070E033C12230310589F58DE492E0BE01CE
:100640006F5F7F4F40E050E020E030E00E943306D3
:10065000882309F425C18981882309F40CC1E0911C
:100660005302F0915402309709F40CC18081882321
:1006700009F408C18DE492E066EC70E040E00E946D
:10068000180683E0809358026091530270915402DF
:100690008DE492E041E00E94FA0502C12330310569
:1006A000D1F48DE492E0BE016F5F7F4F40E050E0F7
:1006B00020E030E00E943306882309F4F1C08981EC
:1006C000882309F4D8C084E0809358028DE492E036
:1006D0000E947D053EC02430310509F043C08A01E7
:1006E0000E5F1F4F22E0C22ED12CCC0EDD1EC801A2
:1006F0006AEB70E0A6010E94D3049EE0E92EF12C83
:10070000EC0EFD1EC8016EEA70E0A7010E94D30442
:100710008DE492E0BE016F5F7F4FA60197010E94BA
:100720003306882309F4BCC08981882341F085E021
:10073000809358028DE492E063EA70E0AEC08DE4ED
:1007400092E00E947D05695873418040904008F016
:1007500092C08DE492E040ED57E060E070E00E94CE
:10076000580597C025303105F1F48DE492E0BE01C3
:100770006F5F7F4F40E050E020E030E00E943306A2
:10078000882309F48DC08DE492E040ED57E060E0ED
:1007900070E00E94580586E0809358028DE492E054
:1007A00069E970E07AC026303105B1F48DE492E059
:1007B000BE016F5F7F4F40E050E020E030E00E94DC
:1007C0003306882309F46CC087E0809358028DE4D7
:1007D00092E06FE870E061C027303105B1F48DE43C
:1007E00092E0BE016F5F7F4F40E050E020E030E0DC
:1007F0000E943306882309F453C088E0809358028E
:100800008DE492E06AE870E048C028303105A9F430
:100810008DE492E0BE016F5F7F4F40E050E020E04A
:1008200030E00E9433068823D9F189E08093580292
:100830008DE492E060E870E030C02930310581F548
:100840008DE492E0BE016F5F7F4F40E050E020E01A
:1008500030E00E943306882319F18981882359F0FA
:1008600083E090E090935F0280935E028DE492E0DB
:1008700061E070E004C08DE492E063E070E00E940B
:10088000E9040EC084E0809358028DE492E00E9457
:100890007D058DE492E06BE670E041E00E94180671
:1008A00069960FB6F894DEBF0FBECDBFCF91DF9132
:1008B0001F910F91FF90EF90DF90CF9008950F93CD
:1008C0001F938C017093540260935302BC016E5FBE
:1008D0007F4F8DE492E042E050E00E944D0582E0BF
:1008E00090E090935F0280935E02C8010E94FA023A
:1008F0008091570290E01F910F91089502970E94F6
:10090000820408952091590230915A022230310513
:1009100021F02330310531F403C00E94FA0208951A
:100920000E94AA020895EF92FF920F931F93CF9314
:10093000DF93EC017B01142F022F87E061E00E941E
:100940004A10112321F0CE010E94160203C0CE01ED
:100950000E94FF018CE692E040E855E260E070E022
:100960000E948D07CE01B7010E945F04002339F475
:100970000FC068EE73E080E090E00E94B60FE8815F
:10098000F9810680F781E02DCE010995892B89F345
:1009900080915E0290915F02DF91CF911F910F9144
:1009A000FF90EF90089580E090E0FB01E80FF91FC1
:1009B000E491DA01A80FB91FEC930196EE23A9F791
:1009C00008958DE492E00E94E2058091570290E044
:1009D0000895FC016130710551F0809159029091A8
:1009E0005A02029721F410925F0210925E0262870F
:1009F00081E090E095878487128E118E81E0838755
:100A00000895CF92DF92EF92FF920F931F93CF93AF
:100A1000DF937C01D62EC42E8C01C0E0D0E0F8011B
:100A2000A389B489109711F480E009C0ED91FC917D
:100A300011970280F381E02DCD016D2D099521964E
:100A4000C330D10529F00E5F1F4F882341F311C039
:100A5000882379F4F701A18DB28D109751F0ED91B3
:100A6000FC9111970190F081E02DCD016D2D4C2D61
:100A70000995DF91CF911F910F91FF90EF90DF903B
:100A8000CF900895FC018685882319F06787408BF5
:100A90000895CF010E9401050895FC01728F618FB6
:100AA000128681E08387558744871786108A0895C8
:100AB000AF92BF92CF92DF92EF92FF920F931F936C
:100AC0005A016B01EE24FF24870109C088EE93E0F0
:100AD0000E94AC080894E11CF11C011D111DEA14D0
:100AE000FB040C051D0590F31F910F91FF90EF90F3
:100AF000DF90CF90BF90AF900895CF92DF92EF92AA
:100B0000FF920F931F938C010E94A80FF801238D71
:100B1000348D458D568D6B017C01C21AD30AE40ACF
:100B2000F50AA7019601638F748F858F968FB601A2
:100B3000CA011F910F91FF90EF90DF90CF90089521
:100B400002970E94A40508951F93CF93DF93EC01B1
:100B5000162F8E85882319F0862F0E94730CCE01E4
:100B60004F96612F0E940408DF91CF911F91089545
:100B7000EF92FF920F931F93CF93DF937C01042F8B
:100B8000EB01FE011491112349F0D701ED91FC9185
:100B90000280F381E02DC701612F09952196112371
:100BA00081F7002331F0C70102966AE771E00E94E5
:100BB000A21481E090E0DF91CF911F910F91FF90FF
:100BC000EF900895CF93DF93EC018E85882379F021
:100BD0009F858889981759F0CE01C2960E948F0C84
:100BE000CE016F8548890E9401051F86188ADF9112
:100BF000CF910895DF92EF92FF920F931F938C0194
:100C00007B01D42EC2960E94320B0E5F1F4FC8018B
:100C1000B7010E94A214DD2029F0C8016AE771E043
:100C20000E94A2141F910F91FF90EF90DF90089502
:100C3000DF92EF92FF920F931F938C017B01D42ED2
:100C4000C2960E94320BD801ED91FC910480F5818F
:100C5000E02DC801B7014D2D09951F910F91FF900F
:100C6000EF90DF900895EF92FF920F931F93CF9331
:100C7000DF937B01E9014115510539F42115310557
:100C800021F44091A8015091A9018C010E5C1F4FE5
:100C9000C801BA010E94CE0BF7018083882341F47A
:100CA000209731F0C801BE010E94CE0BF70180836E
:100CB00081E0DF91CF911F910F91FF90EF90089508
:100CC0000F931F938C01FC011582148284EC91E038
:100CD000918380830A9693838283C8014F960E94F2
:100CE000C50AF80110A707A31786108A81E082873A
:100CF000138681E090E095878487C8010E947D0576
:100D0000F801148A138A168A158A108E178A1F9181
:100D10000F9108958DE492E00E9460060895FC0111
:100D20001382128288EE93E0A0E0B0E08483958382
:100D3000A683B78386ED91E091838083662319F0C3
:100D40008485816084870895E0911503F0911603EE
:100D5000A081B18150962D913C915197CF01F9011D
:100D600009950895A0911503B0911603ED91FC919A
:100D700011970280F381E02DCD01099581E090E08B
:100D80000895A0911503B0911603ED91FC91119770
:100D90000484F585E02DCD0109950895E0911503B2
:100DA000F0911603A081B1811E962D913C911F9761
:100DB000CF01F90109950895E0911503F09116030B
:100DC000A081B18118962D913C911997CF01F9011D
:100DD000099508950F938DE093E060E040E020E0F6
:100DE00000E00E94F01283E093E00E94C70C0F9194
:100DF0000895EF92FF920F931F93CF93DF93EC012F
:100E00008C8580FF1BC00E94A80F7B018C010E9473
:100E1000A80F6E197F09800B910B605177428040BB
:100E20009040C0F4CE010E94A406892B99F464E698
:100E300070E080E090E00E94B60FE9CFCE010E9402
:100E4000A4069C01C901DF91CF911F910F91FF90E2
:100E5000EF900895CE010E94A40620E030E00197B3
:100E600089F721E030E0EECF0F931F938C01A09122
:100E70001503B0911603ED91FC9111970680F7814F
:100E8000E02DCD010995BC01C8010E94F9061F9112
:100E90000F9108950F931F938C01A0911503B091AA
:100EA0001603ED91FC9111970284F385E02DCD019D
:100EB0000995C80161E070E00E94F9061F910F9149
:100EC00008950F931F938C01A0911503B091160301
:100ED000ED91FC9111970480F581E02DCD010995EC
:100EE000BC01C8010E94F9061F910F9108950F934C
:100EF0001F938C01A0911503B0911603ED91FC9105
:100F000011970190F081E02DCD010995BC01C80138
:100F10000E94F9061F910F910895CF92DF92EF92F0
:100F2000FF920F931F93CF93DF93EC017A018B0114
:100F3000198A188A1F861E861D861C861B861A869D
:100F400020E030E06901CC0CDD1CC20ED31EB601DE
:100F5000660F771F660F771FAB0141535F4FFA0192
:100F600085919591A591B4918E159F05A007B10724
:100F7000E9F4FB01ED52FF4F859194919B878A879D
:100F8000FB01EB52FF4F859194919D878C87FB016C
:100F9000E952FF4F859194919F878E87FB01E7521D
:100FA000FF4F85919491998B888B06C02F5F3F4F9F
:100FB0002C30310509F0C6CF8E859F85892B91F0A5
:100FC0008091680084608093680080916D008460E7
:100FD00080936D008889998920E001972FEF8F3FDA
:100FE0009207D9F7D0931403C0931303DF91CF91E5
:100FF0001F910F91FF90EF90DF90CF900895109286
:101000001403109213030895CF93DF93EC018889A2
:101010009989892B19F420E030E03BC0613181F4DB
:10102000E881F9810280F381E02DCE0167E709951F
:10103000E881F9810280F381E02DCE016EEE27C0B8
:10104000633181F4E881F9810280F381E02DCE01E2
:1010500067E70995E881F9810280F381E02DCE01EF
:101060006CEE15C0E881F981673769F40280F3817D
:10107000E02DCE010995E881F9810280F381E02D10
:10108000CE0168E804C00280F381E02DCE0109950D
:101090009C01C901DF91CF9108950F931F93DC014B
:1010A0001FB7F8941696ED91FC91179790811596BD
:1010B0008C91159780958923808350968D919C9172
:1010C0005197059620E001972FEF8F3F9207D9F7B0
:1010D00031E040E050E070E000E0832F90E08623B4
:1010E00097231696ED91FC91179715962C911597CD
:1010F000892B21F08081822B808304C08081209500
:101100002823208350968D919C915197202F0197F1
:101110002FEF8F3F9207D9F7330F4F5F5F4F483064
:101120005105D9F61696ED91FC9117978081159689
:101130009C911597892B80831FBF50968D919C9110
:10114000519720E001972FEF8F3F9207D9F781E069
:1011500090E01F910F91089520E001972FEF8F3FAE
:101160009207D9F70895FC01DB012C912F3F39F448
:10117000928991FF0BC082E09827928B05C0273798
:1011800029F482898160828B80E00895828980FDC4
:1011900002C081E008952E3E11F481E107C02C3E8B
:1011A00011F483E103C0283811F487E78C93828916
:1011B00091E08927828B81E00895FC01A081B181B3
:1011C00012962D913C91139761E1F90109950895CB
:1011D0004F925F926F927F929F92AF92BF92CF9207
:1011E000DF92EF92FF920F931F93DF93CF930F92B3
:1011F000CDB7DEB78C012F933F934F935F936F93DF
:101200007F93AF93BF931982DC011396ED91FC910C
:101210001497808112969C91892309F0CDC033E107
:10122000A32EB12CA00EB11E99249394EE24CC24AD
:101230002E010894411C511C21E0622E712CF801F2
:101240008489828593852C2D01972FEF8F3F9207FC
:10125000D9F7D80153969C91539754968C915497F3
:10126000FF248095890F8F77863070F4FF24F394E4
:10127000EE2051F41696ED91FC91179790811596FA
:101280008C9180958923808331E040E050E0F80123
:10129000848595852C2D01972FEF8F3F9207D9F7E5
:1012A000D8011396ED91FC911497808112969C9130
:1012B00089239981882311F0932B03C0832F809574
:1012C00098239983FF20A9F0EE2099F4832F83714E
:1012D000D8011696ED91FC91179715969C9188234D
:1012E00021F08081892B808304C080819095982390
:1012F0009083330F4F5F5F4F4830510541F6FF2019
:1013000009F473C0EE2099F4F801848595852E2D9B
:1013100001972FEF8F3F9207D9F7D8011696ED91DD
:10132000FC911797808115969C91892B8083F801F9
:1013300082898260828BEE24E394C801B2010E940C
:10134000B308882351F0C50169810E94E90A9920F8
:1013500021F0D8015496DC909924D8011396ED9190
:10136000FC91149712965C9120E030E0C3014C2D63
:1013700001974FEF8F3F9407D9F78081852309F4B8
:101380005ECF2F5F3F4F2233310581F7FF2029F4D5
:1013900089818A3011F0803279F4F801A085B18515
:1013A000109751F04489ED91FC9111970190F081D3
:1013B000E02DCD016D2D0995BF91AF917F916F917A
:1013C0005F914F913F912F910F90CF91DF911F919E
:1013D0000F91FF90EF90DF90CF90BF90AF909F90D4
:1013E0007F906F905F904F900895D8011E968D91D9
:1013F0009C911F972F2D01972FEF8F3F9207D9F7C1
:101400009CCF1F920F920FB60F9211242F933F93F0
:101410004F935F936F937F938F939F93AF93BF93FC
:10142000EF93FF938091130390911403009711F0B1
:101430000E94E808FF91EF91BF91AF919F918F912A
:101440007F916F915F914F913F912F910F900FBEC0
:101450000F901F9018951F920F920FB60F921124A4
:101460002F933F934F935F936F937F938F939F93AC
:10147000AF93BF93EF93FF93809113039091140365
:10148000009711F00E94E808FF91EF91BF91AF9192
:101490009F918F917F916F915F914F913F912F918C
:1014A0000F900FBE0F901F9018951F920F920FB6BE
:1014B0000F9211242F933F934F935F936F937F93DA
:1014C0008F939F93AF93BF93EF93FF9380911303F9
:1014D00090911403009711F00E94E808FF91EF919A
:1014E000BF91AF919F918F917F916F915F914F913C
:1014F0003F912F910F900FBE0F901F9018950F9353
:101500001F938C0182E060E00E944A1082E061E05B
:101510000E948910EDEBF1E0E491D8011296EC9372
:101520001297E9EAF1E0E491F0E0EE0FFF1FE356D5
:10153000FE4F8591949114969C938E9313971F91CF
:101540000F9108950F931F938C0183E061E00E9437
:101550004A1083E061E00E948910EEEBF1E0E49133
:10156000D8011596EC931597EAEAF1E0E491F0E0E2
:10157000EE0FFF1FED56FE4F8591949117969C93A9
:101580008E9316971F910F9108950F931F938C01BF
:1015900086EE91E0F801918380831386128615868A
:1015A000148617861686118A108AC8014396B801D8
:1015B0000E94E30AC8010E94A20AC8010E947F0A91
:1015C0001F910F910895FC01108211827383628331
:1015D0000895DC0111969C9111979F5F9F778C91E4
:1015E000981719F420E030E00FC011968C911197F4
:1015F000FD01E80FF11D6483FD01E90FF11D148267
:1016000011969C9321E030E0C9010895DC019C9182
:1016100011968C911197981711F490E009C08C9154
:10162000FD01E80FF11D94818C918F5F8F778C9372
:10163000892F0895FC0191818081891718F4918187
:10164000808103C0918180819058981B892F90E000
:101650006817790714F080E008958081E80FF11D84
:1016600084810895FC01818180830895BF92CF9287
:10167000DF92EF92FF920F931F93CF93DF936C0152
:10168000EB01B22F88818823E1F160E070E0A0E0F7
:1016900034C0542FF601E50FF11D248130E0FE0126
:1016A000E60FF71F8081992787FD90952817390746
:1016B000C1F4AA2309F4B52E6F5F7F4FFE01E60F38
:1016C000F71F8081882311F0A1E011C001151105D9
:1016D00011F0F801B082E114F10499F0F7015083A0
:1016E00010C0AA2321F060E070E0A0E004C05F5FBA
:1016F0005F775B1779F64F5F4F774B1751F680E0B6
:1017000001C081E0DF91CF911F910F91FF90EF9089
:10171000DF90CF90BF900895AF92BF92CF92DF92AB
:10172000EF92FF920F931F93DF93CF9300D0CDB72B
:10173000DEB76C01B42EA22EFC01408121818E0106
:101740000F5F1F4F32E0E32EF12CEC0EFD1E0E94C6
:10175000360B8823B1F0AA2051F0BB2021F08A81FA
:101760008F5F8F7701C08981F601808309C0BB201C
:1017700021F08A818F5F8F7701C08981F601818393
:1017800081E00F900F90CF91DF911F910F91FF900B
:10179000EF90DF90CF90BF90AF900895EF92FF92BF
:1017A0000F931F93FC014081218100E010E0EE24A3
:1017B000FF240E94360B1F910F91FF90EF90089528
:1017C0008F929F92AF92BF92CF92DF92EF92FF9251
:1017D0000F931F93DF93CF9300D0CDB7DEB76C018B
:1017E0005A014901FC014081218100E010E07E01A5
:1017F0000894E11CF11C0E94360B882359F14981A1
:101800004F5F4983F6012181C601B5018E010E5F4C
:101810001F4FEE24FF240E94360B8823D9F0498104
:1018200020E030E008C0EC0DFD1D84818C932F5F1B
:101830003F4F4F5F4F77E42FF0E08A8190E08F7742
:101840009070D401A20FB31FE817F90761F71C923B
:1018500081E001C080E00F900F90CF91DF911F9148
:101860000F91FF90EF90DF90CF90BF90AF909F903F
:101870008F900895DC014C914F5F20E030E090E0C4
:1018800060E025C0FD01E40FF11D5481503219F4D0
:10189000992329F41AC05D3211F49923A1F0852F00
:1018A00080538A30C8F4C901E3E0880F991FEA9594
:1018B000E1F7220F331F280F391F20533040250F27
:1018C000311D91E002C091E061E04F5F4F771196CA
:1018D0008C9111974817B1F6662319F03095219530
:1018E0003F4FC90108951F93182F80528F3520F460
:1018F00088EA93E0612F0FC088EA93E065E20E94D6
:10190000861388EA93E0612F4AE050E00E943D147C
:1019100088EA93E065E20E9486131F9108950F9371
:101920001F93CF93DF93EC011881098188EA93E03C
:101930000E948E1388EA93E0612F4AE050E00E94F3
:101940003D1488EA93E06FE771E00E94A21488EAF0
:1019500093E0602F4AE050E00E943D1488EA93E053
:101960006EE30E94861308C0FE01E10FF11D848121
:101970000E94730C1F5F1F771017B1F788EA93E07E
:101980000E948E13DF91CF911F910F910895FC015A
:1019900080EF91E091838083489693838283F093D4
:1019A0001603E0931503089502960E94E10408953A
:1019B0008DE492E00E94A40508950F931F93DF9396
:1019C000CF930F92CDB7DEB78C0180915802813052
:1019D00019F08230B1F51AC082E0809358028DE48C
:1019E00092E06FE571E040E00E941806F801648122
:1019F00075818FE492E04AE050E00E948F148FE4FA
:101A000092E061E871E00E94A2141BC08DE492E0B4
:101A1000BE016F5F7F4F40E050E020E030E00E9469
:101A20003306882371F08981882329F08DE492E0C0
:101A300061E070E004C08DE492E063E070E00E9439
:101A4000E9040F90CF91DF911F910F910895DF93DB
:101A5000CF930F92CDB7DEB780915802813019F045
:101A6000823059F50FC082E0809358028DE492E0F5
:101A70006AE10E94A4058FE492E061E871E00E94AF
:101A8000A2141BC08DE492E0BE016F5F7F4F40E067
:101A900050E020E030E00E943306882371F0898115
:101AA000882329F08DE492E061E070E004C08DE4C9
:101AB00092E063E070E00E94E9040F90CF91DF9123
:101AC00008950F931F938C01BC016E5F7F4F8DE4CF
:101AD00092E045E050E00E944D05C8010E94270DAC
:101AE0008091570290E01F910F910895DF93CF935B
:101AF0000F92CDB7DEB780915802813019F0823055
:101B0000A9F519C082E0809358028DE492E06FE756
:101B100071E040E00E9418066091530270915402F7
:101B20008FE492E00E94A2148FE492E063E871E0F7
:101B30000E94A2141BC08DE492E0BE016F5F7F4F34
:101B400046E851E020E030E00E943306882371F03F
:101B50008981882329F08DE492E061E070E004C07F
:101B60008DE492E063E070E00E94E9040F90CF9171
:101B7000DF910895CF93DF93EC0180915E02909105
:101B80005F028330910541F0049731F022E030E0AC
:101B9000C901DF91CF91089570935402609353026D
:101BA000BE016E5F7F4F8DE492E044E050E00E9402
:101BB0004D05CE010E94760D80915702282F30E00E
:101BC000E7CF0F931F93CF93DF938C01C0E0D0E05A
:101BD0008FE792E00E94320B8CE692E00E94DD08D3
:101BE0006AE070E080E090E00E94B60F2196C53078
:101BF000D10571F7B8016E5F7F4F8DE492E047E049
:101C000050E00E944D05C8010E94DD0CDF91CF918C
:101C10001F910F910895FC018681882351F481E082
:101C200086838FE792E068E871E041E021E00E945E
:101C30008C0B8FE792E060E070E00E941A0B282F77
:101C4000332727FD3095C90108950F931F93CF9334
:101C5000DF93EC018E81882351F481E08E838FE73E
:101C600092E068E871E041E021E00E948C0B8FE790
:101C700092E00E94060B182F8985882341F019866F
:101C80008FE792E06AE871E00E94CE0B8887888532
:101C9000882359F58F81882369F190917F02809183
:101CA00080028095890F8F77012F112707FD1095EE
:101CB0008F3709F045C08FE792E00E94320B1F82F8
:101CC00081E0898722968DE492E0BE0140E050E0F9
:101CD0000E944D058CE692E00E94DD086AE070E00B
:101CE00080E090E00E94B60F2BC08FE792E06AE898
:101CF00071E004C08FE792E060E971E00E94CE0BD2
:101D0000882329F0212F332727FD30951AC08FE72C
:101D100092E00E94320B22968DE492E0BE0140E0F8
:101D200050E00E944D058CE692E00E94DD086AE0DA
:101D300070E080E090E00E94B60F20E030E001C04B
:101D40009801C901DF91CF911F910F9108950F93D1
:101D50001F939B018A018FE792E067E971E04FE9E9
:101D600051E00E94E00B81E090E01F910F910895F7
:101D70000F931F93CF93DF93EC018B0190917F0220
:101D8000809180021F828095890F8F77853010F4B3
:101D900081E08F838FE792E061EA71E041E021E02A
:101DA0000E948C0B882319F4F801108203C081E093
:101DB000F80180838FE792E00E943A0C9D838C8328
:101DC0008FE792E06AE871E00E94CE0B888719865F
:101DD00081E0DF91CF911F910F910895DF93CF9311
:101DE0000F92CDB7DEB720915802213019F0223082
:101DF00009F50BC08DE492E068E671E041E00E94D5
:101E0000180682E08093580215C0BE016F5F7F4FB5
:101E10000E94B80E882371F08981882329F48DE40B
:101E200092E064E070E004C08DE492E061E070E074
:101E30000E94E9040F90CF91DF91089502970E94CC
:101E4000220F08952091590230915A022530310510
:101E5000B9F0263031053CF42130310559F02430F9
:101E60003105B1F40AC02630310569F0273031055B
:101E700079F40CC06093800208950E94760D089555
:101E80000E94270D08950E94EE0E08950E94DD0C19
:101E900008950F931F938C01FC011682BC016E5FA5
:101EA0007F4F8DE492E046E050E00E944D05C8016E
:101EB0000E94EE0E8091570290E01F910F910895BD
:101EC0001F920F920FB60F9211242F933F938F936F
:101ED0009F93AF93BF9380911B0390911C03A0919C
:101EE0001D03B0911E0330911F030196A11DB11D6A
:101EF000232F2D5F2D3720F02D570196A11DB11DE9
:101F000020931F0380931B0390931C03A0931D0336
:101F1000B0931E038091170390911803A0911903A9
:101F2000B0911A030196A11DB11D809317039093E0
:101F30001803A0931903B0931A03BF91AF919F9117
:101F40008F913F912F910F900FBE0F901F9018957A
:101F50008FB7F89420911B0330911C0340911D030F
:101F600050911E038FBFB901CA0108959B01AC01B6
:101F70007FB7F8948091170390911803A0911903EB
:101F8000B0911A0366B5A89B05C06F3F19F0019682
:101F9000A11DB11D7FBFBA2FA92F982F8827860FAB
:101FA000911DA11DB11D62E0880F991FAA1FBB1FC3
:101FB0006A95D1F7BC012DC0FFB7F8948091170343
:101FC00090911803A0911903B0911A03E6B5A89B4C
:101FD00005C0EF3F19F00196A11DB11DFFBFBA2F3B
:101FE000A92F982F88278E0F911DA11DB11DE2E00A
:101FF000880F991FAA1FBB1FEA95D1F7861B970B65
:10200000885E9340C8F221503040404050406851B3
:102010007C4F211531054105510571F608957894DD
:1020200084B5826084BD84B5816084BD85B58260DD
:1020300085BD85B5816085BDEEE6F0E0808181607B
:102040008083E1E8F0E0108280818260808380817B
:1020500081608083E0E8F0E0808181608083E1EB53
:10206000F0E0808184608083E0EBF0E0808181603B
:102070008083EAE7F0E080818460808380818260F1
:1020800080838081816080838081806880831092DA
:10209000C1000895CF93DF93482F50E0CA018554C3
:1020A0009E4FFC01349149555E4FFA01849188237B
:1020B00069F190E0880F991FFC01E757FE4FA59149
:1020C000B491FC01ED56FE4FC591D491662351F4B5
:1020D0002FB7F8948C91932F909589238C938881B6
:1020E00089230BC0623061F42FB7F8948C91932F41
:1020F000909589238C938881832B88832FBF06C07A
:102100009FB7F8948C91832B8C939FBFDF91CF91D5
:102110000895482F50E0CA0181539E4FFC0124913D
:10212000CA0185549E4FFC01949149555E4FFA01B6
:102130003491332309F440C0222351F1233071F04C
:10214000243028F42130A1F0223011F514C02630BB
:10215000B1F02730C1F02430D9F404C08091800060
:102160008F7703C0809180008F7D8093800010C0A6
:1021700084B58F7702C084B58F7D84BD09C08091FE
:10218000B0008F7703C08091B0008F7D8093B00046
:10219000E32FF0E0EE0FFF1FED56FE4FA591B49137
:1021A0002FB7F894662321F48C919095892302C06F
:1021B0008C91892B8C932FBF089508951F920F92B5
:1021C0000FB60F9211242F933F934F938F939F93AA
:1021D000EF93FF938091C00082FD1DC04091C60027
:1021E00020916003309161032F5F3F4F2F73307058
:1021F00080916203909163032817390771F0E09191
:102200006003F0916103E05EFC4F40833093610313
:102210002093600302C08091C600FF91EF919F91CF
:102220008F914F913F912F910F900FBE0F901F9064
:102230001895E091B403F091B503E05CFF4F8191F4
:10224000919120813181821B930B8F739070892B28
:1022500011F00E94DD1008951F920F920FB60F9299
:1022600011242F933F938F939F93EF93FF9320918C
:10227000A4033091A5038091A6039091A70328178A
:10228000390731F48091C1008F7D8093C10014C063
:10229000E091A603F091A703EC59FC4F20818091B7
:1022A000A6039091A70301968F7390709093A70354
:1022B0008093A6032093C600FF91EF919F918F9189
:1022C0003F912F910F900FBE0F901F901895AF92D6
:1022D000BF92DF92EF92FF920F931F93CF93DF9302
:1022E000EC017A018B01DD24403081EE580780E05B
:1022F000680780E0780711F0DD24D39491E0A92EDF
:10230000B12CEC89FD89DD2069F0C50108A002C06F
:10231000880F991F0A94E2F7808360E079E08DE3EB
:1023200090E005C0108260E874E88EE190E0A801BA
:1023300097010E94D714215030404040504056959C
:1023400047953795279580E12030380720F0DD202C
:1023500011F0DD24D6CFE889F9893083EA89FB8939
:10236000208319A2EE89FF89408121E030E0C90174
:102370000C8C02C0880F991F0A94E2F7482B408307
:10238000EE89FF894081C9010D8C02C0880F991F19
:102390000A94E2F7482B4083EE89FF894081C90106
:1023A0000E8C02C0880F991F0A94E2F7482B4083D5
:1023B000EE89FF8980810F8C02C0220F331F0A949F
:1023C000E2F7209528232083DF91CF911F910F9171
:1023D000FF90EF90DF90BF90AF900895DC011C96C6
:1023E000ED91FC911D97E05CFF4F2191319180812F
:1023F0009181281B390B2F733070C9010895DC01BE
:102400001C96ED91FC911D97E05CFF4F208131817E
:10241000E054F040DF01AE5BBF4F8D919C9111976E
:102420002817390719F42FEF3FEF07C08D919C91C2
:10243000E80FF91F8081282F30E0C9010895DC01E1
:102440001C96ED91FC911D97E05CFF4F208131813E
:10245000E054F040DF01AE5BBF4F8D919C9111972E
:102460002817390719F42FEF3FEF10C08D919C9179
:102470001197E80FF91F20818D919C91119701967A
:102480008F73907011969C938E9330E0C9010895DC
:10249000DC0191968C919197882339F05496ED91B7
:1024A000FC915597808186FFF9CF91961C920895F3
:1024B000CF93DF93EC01EE85FF85E05CFF4F208139
:1024C0003181E054F0402F5F3F4F2F733070DF01B8
:1024D000AE5BBF4F8D919C91119728173907D1F3AF
:1024E000E05CFF4F80819181E054F040E80FF91FDC
:1024F0006083EE85FF85E05CFF4F31832083EE89AA
:10250000FF89208181E090E00F8C02C0880F991F25
:102510000A94E2F7282B208381E089A3EC89FD89C6
:1025200080818064808381E090E0DF91CF91089585
:1025300081E008951092AB031092AA0388EE93E015
:10254000A0E0B0E08093AC039093AD03A093AE0302
:10255000B093AF0380E192E09093A9038093A80326
:1025600080E293E09093B5038093B40384E693E014
:102570009093B7038093B60385EC90E09093B903F2
:102580008093B80384EC90E09093BB038093BA03EC
:1025900080EC90E09093BD038093BC0381EC90E0CD
:1025A0009093BF038093BE0382EC90E09093C103AD
:1025B0008093C00386EC90E09093C3038093C203A2
:1025C00084E08093C40383E08093C50387E0809315
:1025D000C60385E08093C70381E08093C803089514
:1025E0000F93FC0180E292E09183808362834383B6
:1025F000248305830F91089580E292E09093CB03AA
:102600008093CA031092CC031092CD031092CE0394
:102610001092CF0308958F929F92AF92BF92CF9264
:10262000DF92EF92FF920F931F93CF93DF934C01B2
:102630006B017C01AA24BB24C0E0D0E0C601F701F5
:1026400062814AE050E00E943D148C01C6016EE2B6
:102650000E948613080F191FA00EB11E2196089420
:10266000E11CF11CC330D10549F7C601F4016581B5
:102670004AE050E00E943D149501280F391FC9011E
:10268000DF91CF911F910F91FF90EF90DF90CF904E
:10269000BF90AF909F908F900895CF93DF930E944B
:1026A0000F100E94BC01C9E1D1E10E9436012097C0
:1026B000E1F30E941911F9CFCF92DF92EF92FF92CE
:1026C0000F931F93CF93DF937C016B018A01C0E0CE
:1026D000D0E00FC0D6016D916D01D701ED91FC9155
:1026E0000190F081E02DC7010995C80FD91F015055
:1026F00010400115110571F7CE01DF91CF911F91A7
:102700000F91FF90EF90DF90CF900895DC01ED9155
:10271000FC910190F081E02D09950895EF92FF92D0
:102720000F931F938C01DC01ED91FC910190F081DE
:10273000E02D6DE009957C01D801ED91FC910190AF
:10274000F081E02DC8016AE009959C012E0D3F1D26
:10275000C9011F910F91FF90EF900895CF93DF93E0
:10276000EC016115710519F420E030E00FC0DB01C8
:102770000D900020E9F71197A61BB70BE881F981AE
:102780000280F381E02DAD0109959C01C901DF9123
:10279000CF9108954F925F927F928F929F92AF92C6
:1027A000BF92CF92DF92EF92FF920F931F93DF932E
:1027B000CF93CDB7DEB7A1970FB6F894DEBF0FBEAB
:1027C000CDBF2C01742ECB01223008F42AE019A2CF
:1027D00031E2C32ED12CCC0EDD1E822E9924AA24E8
:1027E000BB24672D752FA50194010E94D714790190
:1027F0008A01C801B701A50194010E94B814472DB0
:10280000461B0894C108D1084A3014F4405D01C049
:10281000495CF6014083E114F1040105110521F042
:102820007E2C5F2DC801DDCFC201B6010E94AE1320
:10283000A1960FB6F894DEBF0FBECDBFCF91DF914A
:102840001F910F91FF90EF90DF90CF90BF90AF90CE
:102850009F908F907F905F904F900895DC0121159D
:10286000310541F4ED91FC910190F081E02D642F50
:10287000099508950E94CA130895EF92FF920F934D
:102880001F939A01E62EFF2400E010E0B801A70193
:102890000E942E141F910F91FF90EF900895CF92F8
:1028A000DF92EF92FF920F931F93CF93DF93EC0190
:1028B0006A017B012115310541F4E881F98101901C
:1028C000F081E02D642F09951FC02A303105D1F425
:1028D00077FF17C0E881F9810190F081E02D6DE26A
:1028E00009958C0144275527BA014C195D096E09D9
:1028F0007F09CE012AE00E94CA139801280F391FD0
:1029000004C02AE00E94CA139C01C901DF91CF9143
:102910001F910F91FF90EF90DF90CF900895EF926D
:10292000FF920F931F937B019A010027F7FC0095FC
:10293000102FB801A7010E944F141F910F91FF9013
:10294000EF9008950E94AE130895EF92FF920F93B7
:102950001F937C010E94AE138C01C7010E948E134D
:10296000080F191FC8011F910F91FF90EF90089554
:10297000629FD001739FF001829FE00DF11D649F63
:10298000E00DF11D929FF00D839FF00D749FF00DEF
:10299000659FF00D9927729FB00DE11DF91F639F90
:1029A000B00DE11DF91FBD01CF0111240895A1E271
:1029B0001A2EAA1BBB1BFD010DC0AA1FBB1FEE1FB9
:1029C000FF1FA217B307E407F50720F0A21BB30B04
:1029D000E40BF50B661F771F881F991F1A9469F780
:1029E00060957095809590959B01AC01BD01CF01DC
:1029F0000895EE0FFF1F0590F491E02D0994F894CF
:022A0000FFCF06
:102A02004D65737361676520726563656976656498
:102A12002066726F6D3A000A454E44204F46204DA3
:102A2200455353414745000A434F4D504C45544589
:102A3200210A004D4553534147452044454C4554D6
:102A4200454400534D53204D657373616765732090
:102A520053656E646572004E6F7420636F6E6E65AF
:102A62006374656400343232310047534D20696E1D
:102A7200697469616C697A6564000D004F4B0020CE
:102A8200000D00220D003E000A000D0A0D0A2B0067
:102A92000D0A0D0A4F4B0052454144222C220022BE
:102AA200002B434D474C3A007C0100000000930488
:102AB200E0023302FB018204FEFF00007E04EE010D
:102AC200000000004205A405B805FEFF0000A005B5
:102AD2005C1300000000B2065C133407CE06DC066D
:102AE2004A0700000000DD084D080408000000004D
:102AF200BA0DD80C610D490F0B0EE10DA70E250E74
:102B0200D40C220FFEFF00001E0FEE010000000099
:102B120058125C13EE111F12FF1148120000000040
:022B22000B1393
:00000001FF
