:100000000C9498010C94C5010C94C5010C94C50185
:100010000C94C5010C94C5010C94C5010C94C50148
:100020000C94C5010C94B10A0C94830A0C94550AE3
:100030000C94C5010C94C5010C94C5010C94C50128
:100040000C94C5010C94C5010C94C5010C94C50118
:100050000C94C5010C94C5010C94C5010C94C20FFD
:100060000C94C5010C94BA110C9402130C94C501A4
:100070000C94C5010C94C5010C94C5010C94C501E8
:100080000C94C5010C94C5010C94C5010C94C501D8
:100090000C94FA110C9441130C94C5010C94C501F5
:1000A0000C94C5010C94C5010C94C5010C94C501B8
:1000B0000C94C5010C94C5010C94C5010C94C501A8
:1000C0000C94C5010C94C5010C94C5010C943A1212
:1000D0000C9480130C94C5010C947A120C94BF13E9
:1000E0000C94C50141540041542B43475245473FAE
:1000F00000504F57455220444F574E0041542B4318
:100100004F4C503D3100415445300041542B434C3D
:1001100049503D310041542B434D47463D3100414C
:10012000542B4946433D312C31002B434752454720
:100130003A20302C35002B43475245473A20302C8B
:10014000310041542B4350494E3D0000C201000193
:1001500000110011000C0000E100000A002500253C
:100160000021000096000019003900390036001205
:100170007A00001F00460046004400807000002204
:10018000004D004D004A00004B0000360075007520
:10019000007200403800004A009C009C00990080DA
:1001A0002500007200EC00EC00E900C0120000E93C
:1001B00000DA01DA01D70160090000D701B603B601
:1001C00003B303B0040000B3036E076E076B072C84
:1001D000010000DC0EC11DC11DBE1D41542B434D4D
:1001E00047443D0041542B434D474C3D225245432B
:1001F00020554E52454144222C310041542B434D51
:1002000047533D220000002100240027002A002D32
:10021000003000330001010000040107010A010061
:10022000002200250028002B002E0031003400029F
:10023000010000050108010B010000200023002639
:100240000029002C002F00320000010000030106ED
:10025000010901050505050705080808080202024D
:10026000020A0A0808040404040101010101010151
:10027000010303030303030303040707070C0C0C28
:100280000C0C0C0C0C020202020606060606060600
:10029000060B0B0B0B0B0B0B0B010210202008089D
:1002A00010204010204080020102010804020101D8
:1002B00002040810204080804020100804020180C1
:1002C0000402018040201008040201080402010118
:1002D0000204081020408001020408102040800021
:1002E00000090A02080B0C0D0706030401000000B8
:1002F00000000000000000000000000000000000FE
:10030000000000000000000000000011100F0000BD
:1003100000000000000000000000000000000000DD
:10032000000000000000C7010A076A0731157316B4
:1003300011241FBECFEFD1E2DEBFCDBF00E00CBF66
:1003400013E0A0E0B2E0E0EFF0E300E00BBF02C09A
:1003500007900D92AC35B107D9F71BBE17E0ACE59D
:10036000B3E001C01D92A830B107E1F713E0C0E38C
:10037000D3E004C02297FE010E947218C632D10752
:10038000C9F70E94C4160C9476180C9400000F93C1
:1003900081E893E060E040E020E000E00E94671622
:1003A0008CE593E060E00E94700280E693E061E0FB
:1003B0000E940F070F91089580E693E00E94B40712
:1003C000892B09F440C08AE796E060E072E00E9461
:1003D0001C1880E693E06DE673E044E150E00E9473
:1003E00041078AE796E06DE673E00E941C1880E6FC
:1003F00093E00E945C07839779F48AE796E067E1CF
:1004000072E00E941C1880E693E00E94CA0704C0B4
:100410008AE796E00E94FD1680E693E00E944E0770
:10042000682F8823A9F78AE796E065E272E00E94C8
:100430001C1880E693E00E94CA078AE796E065E30D
:1004400072E00E941C1868EE73E080E090E00E9469
:10045000181008958AE796E040E855E260E070E001
:100460000E94FE138AE796E00E942F158823D1F39D
:100470008AE796E065E472E00E941C188AE796E03D
:100480006BE572E00E941C188CE593E06AE672E06E
:1004900041E021E00E941305039799F48AE796E072
:1004A0006FE672E00E941C188AE796E069E772E046
:1004B0000E941C188AE796E069E872E00E941C1806
:1004C00008958AE796E06EE972E00E941C1868EED3
:1004D00073E080E090E00E941810D0CF80E0089593
:1004E000FC0187EE92E0918380830E969383828352
:1004F00060939503089502960E946105089581E036
:1005000090E0909399038093980387E061E00E94C4
:10051000861160ED77E080E090E00E94181087E09F
:1005200060E00E94861181E090E0089581E090E013
:10053000909399038093980387E061E00E9486116D
:1005400060EE7EE280E090E00E94181087E060E0BC
:100550000E94861168EE73E080E090E00E9418101F
:1005600081E090E008959F92AF92BF92CF92DF9288
:10057000EF92FF920F931F93DF93CF93CDB7DEB728
:1005800063970FB6F894DEBF0FBECDBF8C0187E036
:1005900061E00E94D31087E061E00E9486116CED5B
:1005A00075E080E090E00E94181087E060E00E9413
:1005B000861181E090E0909399038093980386EAF6
:1005C00093E00E9453080E940A105B016C0182E0D4
:1005D000E82EF12CEC0EFD1EC801029661EF70E0D2
:1005E000A7010E9453059E2CEF2C8E010F5F1F4F19
:1005F00013C061E070E080E090E00E94181087E88E
:1006000093E0B801492D5E2D20E030E00E94B30652
:10061000882311F089810CC00E940A106A197B0995
:100620008C099D09685873418040904010F380E028
:1006300063960FB6F894DEBF0FBECDBFCF91DF91AA
:100640001F910F91FF90EF90DF90CF90BF90AF90F0
:100650009F900895DF93CF930F92CDB7DEB780912F
:100660009203813019F0823039F50BC087E893E0AE
:1006700064EE70E041E00E94980682E0809392036D
:100680001BC087E893E0BE016F5F7F4F40E050E002
:1006900020E030E00E94B306882371F0898188232E
:1006A00029F087E893E061E070E004C087E893E018
:1006B00063E070E00E9469050F90CF91DF9108958B
:1006C0000F931F938C011092910381E0809392030A
:1006D000B8016E5F7F4F87E893E043E050E00E94EF
:1006E000CD05C8010E942A038091910390E01F91DB
:1006F0000F910895CF92DF92EF92FF920F931F9385
:10070000DF93CF93CDB7DEB769970FB6F894DEBF0E
:100710000FBECDBFAC0180919203282F30E0213075
:10072000310541F482E08093920387E893E064EE20
:1007300070E033C12230310589F587E893E0BE01CE
:100740006F5F7F4F40E050E020E030E00E94B30652
:10075000882309F425C18981882309F40CC1E0911B
:100760008D03F0918E03309709F40CC180818823AA
:1007700009F408C187E893E062E471E040E00E9478
:10078000980683E08093920360918D0370918E03AD
:1007900087E893E041E00E947A0602C123303105E8
:1007A000D1F487E893E0BE016F5F7F4F40E050E0F7
:1007B00020E030E00E94B306882309F4F1C089816B
:1007C000882309F4D8C084E08093920387E893E0FB
:1007D0000E94FD053EC02430310509F043C08A0166
:1007E0000E5F1F4F22E0C22ED12CCC0EDD1EC801A1
:1007F00066E371E0A6010E9453059EE0E92EF12C0C
:10080000EC0EFD1EC8016AE271E0A7010E945305CB
:1008100087E893E0BE016F5F7F4FA60197010E94BA
:10082000B306882309F4BCC08981882341F085E0A0
:100830008093920387E893E06FE171E0AEC087E8B0
:1008400093E00E94FD05695873418040904008F094
:1008500092C087E893E040ED57E060E070E00E94CE
:10086000D80597C025303105F1F487E893E0BE0143
:100870006F5F7F4F40E050E020E030E00E94B30621
:10088000882309F48DC087E893E040ED57E060E0ED
:1008900070E00E94D80586E08093920387E893E099
:1008A00065E171E07AC026303105B1F487E893E064
:1008B000BE016F5F7F4F40E050E020E030E00E94DB
:1008C000B306882309F46CC087E08093920387E81D
:1008D00093E06BE071E061C027303105B1F487E847
:1008E00093E0BE016F5F7F4F40E050E020E030E0DA
:1008F0000E94B306882309F453C088E080939203D2
:1009000087E893E066E071E048C028303105A9F43B
:1009100087E893E0BE016F5F7F4F40E050E020E04A
:1009200030E00E94B3068823D9F189E080939203D6
:1009300087E893E06CEF70E030C02930310581F535
:1009400087E893E0BE016F5F7F4F40E050E020E01A
:1009500030E00E94B306882319F18981882359F079
:1009600083E090E0909399038093980387E893E065
:1009700061E070E004C087E893E063E070E00E940B
:1009800069050EC084E08093920387E893E00E949B
:10099000FD0587E893E067EE70E041E00E9498066D
:1009A00069960FB6F894DEBF0FBECDBFCF91DF9131
:1009B0001F910F91FF90EF90DF90CF9008950F93CC
:1009C0001F938C0170938E0360938D03BC016E5F47
:1009D0007F4F87E893E042E050E00E94CD0582E03F
:1009E00090E09093990380939803C8010E947A0342
:1009F0008091910390E01F910F91089502970E94BA
:100A0000020508952091930330919403223031051B
:100A100021F02330310531F403C00E947A03089598
:100A20000E942A030895EF92FF920F931F93CF9392
:100A3000DF93EC017B01142F022F87E061E00E941D
:100A4000D310112321F0CE010E94960203C0CE01E3
:100A50000E947F0286EA93E040E855E260E070E0A1
:100A60000E94E107CE01B7010E94DF04002339F4A0
:100A70000FC068EE73E080E090E00E941810E881FB
:100A8000F9810680F781E02DCE011995892B89F334
:100A90008091980390919903DF91CF911F910F91CD
:100AA000FF90EF90089580E090E0FB01E80FF91FC0
:100AB000E491DA01A80FB91FEC930196EE23A9F790
:100AC000089587E893E00E9462068091910390E088
:100AD0000895FC016130710551F08091930390916C
:100AE0009403029721F4109299031092980362875D
:100AF00081E090E095878487128E118E81E0838754
:100B00000895CF92DF92EF92FF920F931F93CF93AE
:100B1000DF937C01D62EC42E8C01C0E0D0E0F8011A
:100B2000A389B489109711F480E009C0ED91FC917C
:100B300011970280F381E02DCD016D2D199521963D
:100B4000C330D10529F00E5F1F4F882341F311C038
:100B5000882379F4F701A18DB28D109751F0ED91B2
:100B6000FC9111970190F081E02DCD016D2D4C2D60
:100B70001995DF91CF911F910F91FF90EF90DF902A
:100B8000CF900895FC018685882319F06787408BF4
:100B90000895CF010E9481050895FC01728F618F35
:100BA000128681E08387558744871786108A0895C7
:100BB000AF92BF92CF92DF92EF92FF920F931F936B
:100BC0005A016B01EE24FF24870109C088EE93E0EF
:100BD0000E9400090894E11CF11C011D111DEA147A
:100BE000FB040C051D0590F31F910F91FF90EF90F2
:100BF000DF90CF90BF90AF900895CF92DF92EF92A9
:100C0000FF920F931F938C010E940A10F801238D0D
:100C1000348D458D568D6B017C01C21AD30AE40ACE
:100C2000F50AA7019601638F748F858F968FB601A1
:100C3000CA011F910F91FF90EF90DF90CF90089520
:100C400002970E94240608951F93CF93DF93EC012F
:100C5000162F8E85882319F0862F0E94D50CCE0181
:100C60004F96612F0E945808DF91CF911F910895F0
:100C7000EF92FF920F931F93CF93DF937C01042F8A
:100C8000EB01FE011491112349F0D701ED91FC9184
:100C90000280F381E02DC701612F19952196112360
:100CA00081F7002331F0C701029663EB72E00E94E6
:100CB000191881E090E0DF91CF911F910F91FF9083
:100CC000EF900895CF93DF93EC018E85882379F020
:100CD0009F858889981759F0CE01C2960E94F10C21
:100CE000CE016F8548890E9481051F86188ADF9191
:100CF000CF910895DF92EF92FF920F931F938C0193
:100D00007B01D42EC2960E94920B0E5F1F4FC8012A
:100D1000B7010E941918DD2029F0C80163EB72E0C9
:100D20000E9419181F910F91FF90EF90DF90089586
:100D3000DF92EF92FF920F931F938C017B01D42ED1
:100D4000C2960E94920BD801ED91FC910480F5812E
:100D5000E02DC801B7014D2D19951F910F91FF90FE
:100D6000EF90DF900895EF92FF920F931F93CF9330
:100D7000DF937B01E9014115510539F42115310556
:100D800021F44091E1025091E2028C010E5C1F4F70
:100D9000C801BA010E942F0CF7018083882341F417
:100DA000209731F0C801BE010E942F0CF70180830B
:100DB00081E0DF91CF911F910F91FF90EF90089507
:100DC0000F931F938C01FC01158214828DEF92E02A
:100DD000918380830A9693838283C8014F960E94F1
:100DE000250BF80110A707A31786108A81E08287D8
:100DF000138681E090E095878487C8010E94FD05F5
:100E0000F801148A138A168A158A108E178A1F9180
:100E10000F91089587E893E00E94E0060895FC0191
:100E20001382128288EE93E0A0E0B0E08483958381
:100E3000A683B7838FE093E091838083662319F0C4
:100E40008485816084870895E0914F04F091500477
:100E5000A081B18150962D913C915197CF01F9011C
:100E600019950895A0914F04B0915004ED91FC9113
:100E700011970280F381E02DCD01199581E090E07A
:100E80000895A0914F04B0915004ED91FC911197F9
:100E90000484F585E02DCD0119950895E0914F0466
:100EA000F0915004A081B1811E962D913C911F9725
:100EB000CF01F90119950895E0914F04F091500484
:100EC000A081B18118962D913C911997CF01F9011C
:100ED000199508950F9387E494E060E040E020E0E6
:100EE00000E00E9467168DE394E00E94290D0F91A7
:100EF0000895EF92FF920F931F93CF93DF93EC012E
:100F00008C8580FF1BC00E940A107B018C010E940F
:100F10000A106E197F09800B910B60517742804057
:100F20009040C0F4CE010E942407892B99F464E616
:100F300070E080E090E00E941810E9CFCE010E949E
:100F400024079C01C901DF91CF911F910F91FF9060
:100F5000EF900895CE010E94240720E030E0019731
:100F600089F721E030E0EECF0F931F938C01A09121
:100F70004F04B0915004ED91FC9111970680F781D8
:100F8000E02DCD011995BC01C8010E9479071F9180
:100F90000F9108950F931F938C01A0914F04B0916E
:100FA0005004ED91FC9111970284F385E02DCD0161
:100FB0001995C80161E070E00E9479071F910F91B7
:100FC0000895CF92DF92EF92FF920F931F93CF93EA
:100FD000DF93EC017A018B01198A188A1F861E861D
:100FE0001D861C861B861A8620E030E06901CC0C29
:100FF000DD1CC20ED31EB601660F771F660F771F6A
:10100000AB01455B5E4FFA0185919591A591B49135
:101010008E159F05A007B107E9F4FB01E15BFE4FC8
:10102000859194919B878A87FB01EF5AFE4F8591AA
:1010300094919D878C87FB01ED5AFE4F8591949189
:101040009F878E87FB01EB5AFE4F85919491998B78
:10105000888B06C02F5F3F4F2C30310509F0C6CF7B
:101060008E859F85892B91F08091680081608093A7
:10107000680080916B00806180936B0088899989FA
:1010800020E001972FEF8F3F9207D9F7D0934E04BE
:10109000C0934D04DF91CF911F910F91FF90EF907E
:1010A000DF90CF90089510924E0410924D04089551
:1010B000CF93DF93EC0188899989892B19F420E07B
:1010C00030E03BC0613181F4E881F9810280F38135
:1010D000E02DCE0167E71995E881F9810280F3815F
:1010E000E02DCE016EEE27C0633181F4E881F981F5
:1010F0000280F381E02DCE0167E71995E881F9813F
:101100000280F381E02DCE016CEE15C0E881F981FB
:10111000673769F40280F381E02DCE011995E881EB
:10112000F9810280F381E02DCE0168E804C00280DD
:10113000F381E02DCE0119959C01C901DF91CF917A
:1011400008950F931F93DC011FB7F8941696ED9145
:10115000FC911797908115968C911597809589230E
:10116000808350968D919C915197059620E0019730
:101170002FEF8F3F9207D9F731E040E050E070E069
:1011800000E0832F90E0862397231696ED91FC9143
:10119000179715962C911597892B21F08081822B1A
:1011A000808304C0808120952823208350968D91D0
:1011B0009C915197202F01972FEF8F3F9207D9F7DE
:1011C000330F4F5F5F4F48305105D9F61696ED91BA
:1011D000FC911797808115969C911597892B808398
:1011E0001FBF50968D919C91519720E001972FEF52
:1011F0008F3F9207D9F781E090E01F910F910895FA
:1012000020E001972FEF8F3F9207D9F70895FC0157
:10121000DB012C912F3F39F4928991FF0BC082E0C2
:101220009827928B05C0273729F482898160828BA9
:1012300080E00895828980FD02C081E008952E3EFD
:1012400011F481E107C02C3E11F483E103C028387A
:1012500011F487E78C93828991E08927828B81E062
:101260000895FC01A081B18112962D913C911397B4
:1012700061E1F901199508954F925F926F927F9203
:101280009F92AF92BF92CF92DF92EF92FF920F9315
:101290001F93DF93CF930F92CDB7DEB78C012F93BF
:1012A0003F934F935F936F937F93AF93BF93198255
:1012B000DC011396ED91FC911497808112969C911C
:1012C000892309F0CDC033E1A32EB12CA00EB11EAD
:1012D00099249394EE24CC242E010894411C511C93
:1012E00021E0622E712CF8018489828593852C2D52
:1012F00001972FEF8F3F9207D9F7D80153969C9112
:10130000539754968C915497FF248095890F8F772B
:10131000863070F4FF24F394EE2051F41696ED918C
:10132000FC911797908115968C91809589238083E5
:1013300031E040E050E0F801848595852C2D01973F
:101340002FEF8F3F9207D9F7D8011396ED91FC91BB
:101350001497808112969C9189239981882311F09A
:10136000932B03C0832F809598239983FF20A9F0A6
:10137000EE2099F4832F8371D8011696ED91FC919C
:10138000179715969C91882321F08081892B808363
:1013900004C08081909598239083330F4F5F5F4FF7
:1013A0004830510541F6FF2009F473C0EE2099F44E
:1013B000F801848595852E2D01972FEF8F3F920799
:1013C000D9F7D8011696ED91FC9117978081159663
:1013D0009C91892B8083F80182898260828BEE2424
:1013E000E394C801B2010E940709882351F0C501A6
:1013F00069810E94490B992021F0D8015496DC9014
:101400009924D8011396ED91FC91149712965C9152
:1014100020E030E0C3014C2D01974FEF8F3F940740
:10142000D9F78081852309F45ECF2F5F3F4F2233A8
:10143000310581F7FF2029F489818A3011F080324B
:1014400079F4F801A085B185109751F04489ED91A8
:10145000FC9111970190F081E02DCD016D2D199532
:10146000BF91AF917F916F915F914F913F912F917C
:101470000F90CF91DF911F910F91FF90EF90DF9030
:10148000CF90BF90AF909F907F906F905F904F9064
:101490000895D8011E968D919C911F972F2D01972D
:1014A0002FEF8F3F9207D9F79CCF1F920F920FB665
:1014B0000F920BB60F9211242F933F934F935F938C
:1014C0006F937F938F939F93AF93BF93EF93FF930C
:1014D00080914D0490914E04009711F00E943C09B8
:1014E000FF91EF91BF91AF919F918F917F916F91FC
:1014F0005F914F913F912F910F900BBE0F900FBEB8
:101500000F901F9018951F920F920FB60F920BB667
:101510000F9211242F933F934F935F936F937F9379
:101520008F939F93AF93BF93EF93FF9380914D045D
:1015300090914E04009711F00E943C09FF91EF91A9
:10154000BF91AF919F918F917F916F915F914F91DB
:101550003F912F910F900BBE0F900FBE0F901F90D9
:1015600018951F920F920FB60F920BB60F9211247F
:101570002F933F934F935F936F937F938F939F939B
:10158000AF93BF93EF93FF9380914D0490914E04DE
:10159000009711F00E943C09FF91EF91BF91AF912C
:1015A0009F918F917F916F915F914F913F912F917B
:1015B0000F900BBE0F900FBE0F901F9018950F93BA
:1015C0001F938C018AE060E00E94D3108AE061E002
:1015D0000E948611E3EAF2E0E491D8011296EC93BE
:1015E0001297EDE5F2E0E491F0E0EE0FFF1FE75C0B
:1015F000FD4F8591949114969C938E9313971F9110
:101600000F9108950F931F938C0183E061E00E9476
:10161000D31083E061E00E948611ECE9F2E0E491EE
:10162000D8011596EC931597E6E5F2E0E491F0E029
:10163000EE0FFF1FE15EFD4F8591949117969C93ED
:101640008E9316971F910F9108950F931F938C01FE
:101650008FE193E0F80191838083138612861586CB
:10166000148617861686118A108AC8014396B80117
:101670000E94430BC8010E94020BC8010E94DF0AAE
:101680001F910F910895FC01108211827383628370
:101690000895DC0111969C9111979F5F9F778C9123
:1016A000981719F420E030E00FC011968C91119733
:1016B000FD01E80FF11D6483FD01E90FF11D1482A6
:1016C00011969C9321E030E0C9010895DC019C91C2
:1016D00011968C911197981711F490E009C08C9194
:1016E000FD01E80FF11D94818C918F5F8F778C93B2
:1016F000892F0895FC0191818081891718F49181C7
:10170000808103C0918180819058981B892F90E03F
:101710006817790714F080E008958081E80FF11DC3
:1017200084810895FC01818180830895BF92CF92C6
:10173000DF92EF92FF920F931F93CF93DF936C0191
:10174000EB01B22F88818823E1F160E070E0A0E036
:1017500034C0542FF601E50FF11D248130E0FE0165
:10176000E60FF71F8081992787FD90952817390785
:10177000C1F4AA2309F4B52E6F5F7F4FFE01E60F77
:10178000F71F8081882311F0A1E011C00115110518
:1017900011F0F801B082E114F10499F0F7015083DF
:1017A00010C0AA2321F060E070E0A0E004C05F5FF9
:1017B0005F775B1779F64F5F4F774B1751F680E0F5
:1017C00001C081E0DF91CF911F910F91FF90EF90C9
:1017D000DF90CF90BF900895AF92BF92CF92DF92EB
:1017E000EF92FF920F931F93DF93CF930F920F927D
:1017F000CDB7DEB76C01B42EA22EFC014081218151
:101800008E010F5F1F4F32E0E32EF12CEC0EFD1E18
:101810000E94960B8823B1F0AA2051F0BB2021F042
:101820008A818F5F8F7701C08981F601808309C02B
:10183000BB2021F08A818F5F8F7701C08981F601FB
:10184000818381E00F900F90CF91DF911F910F91D5
:10185000FF90EF90DF90CF90BF90AF900895EF9200
:10186000FF920F931F93FC014081218100E010E063
:10187000EE24FF240E94960B1F910F91FF90EF9092
:1018800008958F929F92AF92BF92CF92DF92EF9284
:10189000FF920F931F93DF93CF930F920F92CDB7C9
:1018A000DEB76C015A014901FC014081218100E051
:1018B00010E07E010894E11CF11C0E94960B882325
:1018C00059F149814F5F4983F6012181C601B50174
:1018D0008E010E5F1F4FEE24FF240E94960B88237B
:1018E000D9F0498120E030E008C0EC0DFD1D848175
:1018F0008C932F5F3F4F4F5F4F77E42FF0E08A814B
:1019000090E08F779070D401A20FB31FE817F9070A
:1019100061F71C9281E001C080E00F900F90CF91A1
:10192000DF911F910F91FF90EF90DF90CF90BF90CC
:10193000AF909F908F900895DC014C914F5F20E015
:1019400030E090E060E025C0FD01E40FF11D54811E
:10195000503219F4992329F41AC05D3211F49923F5
:10196000A1F0852F80538A30C8F4C901E3E0880FC5
:10197000991FEA95E1F7220F331F280F391F2053D3
:101980003040250F311D91E002C091E061E04F5FD2
:101990004F7711968C9111974817B1F6662319F07D
:1019A000309521953F4FC90108951F93182F8052FC
:1019B0008F3520F48AE796E0612F0FC08AE796E022
:1019C00065E20E94FD168AE796E0612F4AE050E04A
:1019D0000E94B4178AE796E065E20E94FD161F9107
:1019E00008950F931F93CF93DF93EC011881098122
:1019F0008AE796E00E9405178AE796E0612F4AE0A1
:101A000050E00E94B4178AE796E068EB72E00E940B
:101A100019188AE796E0602F4AE050E00E94B41758
:101A20008AE796E06EE30E94FD1608C0FE01E10F12
:101A3000F11D84810E94D50C1F5F1F771017B1F72D
:101A40008AE796E00E940517DF91CF911F910F91D1
:101A50000895FC0189E293E0918380834896938303
:101A60008283F0935004E0934F04089502960E94FD
:101A70006105089587E893E00E94240608950F9376
:101A80001F93DF93CF930F92CDB7DEB78C01809178
:101A90009203813019F08230B1F51AC082E0809350
:101AA000920387E893E06BED71E040E00E949806B6
:101AB000F8016481758189E893E04AE050E00E9472
:101AC000061889E893E06AEB72E00E9419181BC0BF
:101AD00087E893E0BE016F5F7F4F40E050E020E079
:101AE00030E00E94B306882371F08981882329F0B1
:101AF00087E893E061E070E004C087E893E063E08A
:101B000070E00E9469050F90CF91DF911F910F91B6
:101B10000895DF93CF930F92CDB7DEB780919203F4
:101B2000813019F0823059F50FC082E08093920322
:101B300087E893E06AE10E94240689E893E06AEB73
:101B400072E00E9419181BC087E893E0BE016F5F26
:101B50007F4F40E050E020E030E00E94B306882351
:101B600071F08981882329F087E893E061E070E0D3
:101B700004C087E893E063E070E00E9469050F907D
:101B8000CF91DF9108950F931F938C01BC016E5F7D
:101B90007F4F87E893E045E050E00E94CD05C80103
:101BA0000E94890D8091910390E01F910F910895FB
:101BB000DF93CF930F92CDB7DEB780919203813040
:101BC00019F08230A9F519C082E08093920387E86A
:101BD00093E06BEF71E040E00E94980660918D0306
:101BE00070918E0389E893E00E94191889E893E0C8
:101BF0006CEB72E00E9419181BC087E893E0BE01ED
:101C00006F5F7F4F4FEB52E020E030E00E94B30661
:101C1000882371F08981882329F087E893E061E0C7
:101C200070E004C087E893E063E070E00E9469051B
:101C30000F90CF91DF910895CF93DF93EC018091C6
:101C40009803909199038330910541F0049731F006
:101C500022E030E0C901DF91CF91089570938E03A7
:101C600060938D03BE016E5F7F4F87E893E044E091
:101C700050E00E94CD05CE010E94D80D80919103C5
:101C8000282F30E0E7CF0F931F93CF93DF938C0182
:101C9000C0E0D0E089EB93E00E94920B86EA93E0EB
:101CA0000E9431096AE070E080E090E00E94181024
:101CB0002196C530D10571F7B8016E5F7F4F87E877
:101CC00093E047E050E00E94CD05C8010E943F0D1F
:101CD000DF91CF911F910F910895FC018681882398
:101CE00051F481E0868389EB93E061EC72E041E09E
:101CF00021E00E94EC0B89EB93E060E070E00E9431
:101D00007A0B282F332727FD3095C90108950F93AB
:101D10001F93CF93DF93EC018E81882351F481E0F0
:101D20008E8389EB93E061EC72E041E021E00E9458
:101D3000EC0B89EB93E00E94660B182F89858823B2
:101D400041F0198689EB93E063EC72E00E942F0C5E
:101D500088878885882359F58F81882369F1909138
:101D6000B9038091BA038095890F8F77012F1127CE
:101D700007FD10958F3709F045C089EB93E00E946D
:101D8000920B1F8281E08987229687E893E0BE014B
:101D900040E050E00E94CD0586EA93E00E943109C0
:101DA0006AE070E080E090E00E9418102BC089EBA0
:101DB00093E063EC72E004C089EB93E069EC72E0BD
:101DC0000E942F0C882329F0212F332727FD3095DF
:101DD0001AC089EB93E00E94920B229687E893E069
:101DE000BE0140E050E00E94CD0586EA93E00E94EB
:101DF00031096AE070E080E090E00E94181020E075
:101E000030E001C09801C901DF91CF911F910F917E
:101E100008950F931F939B018A0189EB93E060ED76
:101E200072E048ED52E00E94410C81E090E01F9189
:101E30000F9108950F931F93CF93DF93EC018B01C4
:101E40009091B9038091BA031F828095890F8F7793
:101E5000853010F481E08F8389EB93E06AED72E0C6
:101E600041E021E00E94EC0B882319F4F801108274
:101E700003C081E0F801808389EB93E00E949C0C11
:101E80009D838C8389EB93E063EC72E00E942F0CBE
:101E90008887198681E0DF91CF911F910F91089576
:101EA000DF93CF930F92CDB7DEB72091920321300D
:101EB00019F0223009F50BC087E893E064EE71E079
:101EC00041E00E94980682E08093920315C0BE0113
:101ED0006F5F7F4F0E941A0F882371F089818823DA
:101EE00029F487E893E064E070E004C087E893E0B9
:101EF00061E070E00E9469050F90CF91DF91089535
:101F000002970E94840F08952091930330919403C7
:101F100025303105B9F0263031053CF4213031054A
:101F200059F024303105B1F40AC02630310569F08A
:101F30002730310579F40CC06093BA0308950E94EC
:101F4000D80D08950E94890D08950E94500F08959C
:101F50000E943F0D08950F931F938C01FC01168280
:101F6000BC016E5F7F4F87E893E046E050E00E943F
:101F7000CD05C8010E94500F8091910390E01F9100
:101F80000F9108951F920F920FB60F9211242F9365
:101F90003F938F939F93AF93BF93809155049091FC
:101FA0005604A0915704B0915804309159040196F9
:101FB000A11DB11D232F2D5F2D3720F02D57019628
:101FC000A11DB11D2093590480935504909356048C
:101FD000A0935704B09358048091510490915204F7
:101FE000A0915304B09154040196A11DB11D80939A
:101FF000510490935204A0935304B0935404BF919E
:10200000AF919F918F913F912F910F900FBE0F90A5
:102010001F9018958FB7F89420915504309156046D
:1020200040915704509158048FBFB901CA010895D7
:102030009B01AC017FB7F8948091510490915204B8
:10204000A0915304B091540466B5A89B05C06F3F9E
:1020500019F00196A11DB11D7FBFBA2FA92F982F8E
:102060008827860F911DA11DB11D62E0880F991F61
:10207000AA1FBB1F6A95D1F7BC012DC0FFB7F8940A
:102080008091510490915204A0915304B091540452
:10209000E6B5A89B05C0EF3F19F00196A11DB11D43
:1020A000FFBFBA2FA92F982F88278E0F911DA11D32
:1020B000B11DE2E0880F991FAA1FBB1FEA95D1F757
:1020C000861B970B885E9340C8F2215030404040F9
:1020D000504068517C4F211531054105510571F67D
:1020E0000895789484B5826084BD84B5816084BD90
:1020F00085B5826085BD85B5816085BDEEE6F0E081
:10210000808181608083E1E8F0E0108280818260DC
:102110008083808181608083E0E8F0E0808181605D
:102120008083E1EBF0E0808184608083E0EBF0E08D
:10213000808181608083E1E9F0E08081826080833A
:10214000808181608083E0E9F0E08081816080832C
:10215000E1EAF0E080818260808380818160808319
:10216000E0EAF0E0808181608083E1E2F1E080815B
:1021700082608083808181608083E0E2F1E0808101
:1021800081608083EAE7F0E08081846080838081E1
:102190008260808380818160808380818068808389
:1021A0001092C1000895CF93DF93482F50E0CA01E9
:1021B00087569D4FFC0134914D5A5D4FFA01849131
:1021C000882369F190E0880F991FFC01EB5FFD4FB8
:1021D000A591B491FC01E15EFD4FC591D4916623B8
:1021E00051F42FB7F8948C91932F909589238C9369
:1021F000888189230BC0623061F42FB7F8948C91E9
:10220000932F909589238C938881832B88832FBF6C
:1022100006C09FB7F8948C91832B8C939FBFDF915E
:10222000CF910895893009F449C08A30A0F48430F0
:1022300051F1853040F4823079F1833000F58130FE
:1022400009F063C026C0873079F1883098F5863070
:1022500009F05BC025C08D3009F442C08E3028F4EF
:102260008B30B1F18C30C0F52DC0803109F442C003
:10227000813109F445C08F3009F047C037C08091E3
:1022800080008F7703C0809180008F7D80938000D5
:10229000089584B58F7702C084B58F7D84BD08957D
:1022A0008091B0008F7703C08091B0008F7D8093C4
:1022B000B0000895809190008F7707C080919000C2
:1022C0008F7D03C080919000877F80939000089558
:1022D0008091A0008F7707C08091A0008F7D03C000
:1022E0008091A000877F8093A000089580912001B5
:1022F0008F7703C0809120018F7D80932001089506
:1023000080912001877F809320010895FF920F9391
:102310001F93F62E482F50E0CA0181529D4FFC01B9
:102320002491CA0187569D4FFC0114914D5A5D4F6F
:10233000FA0104910023C9F0222319F0822F0E9490
:102340001211E02FF0E0EE0FFF1FE15EFD4FA591AF
:10235000B4919FB7F894FF2021F48C9110958123BC
:1023600002C08C91812B8C939FBF1F910F91FF9086
:10237000089508951F920F920FB60F920BB60F9209
:1023800011242F933F934F938F939F93EF93FF933A
:102390008091C00082FD1DC04091C60020919A042A
:1023A00030919B042F5F3F4F2F73307080919C04BE
:1023B00090919D042817390771F0E0919A04F091EB
:1023C0009B04E65AFB4F408330939B0420939A046E
:1023D00002C08091C600FF91EF919F918F914F9124
:1023E0003F912F910F900BBE0F900FBE0F901F903B
:1023F000189508951F920F920FB60F920BB60F9279
:1024000011242F933F934F938F939F93EF93FF93B9
:102410008091C80082FD1DC04091CE002091220510
:10242000309123052F5F3F4F2F733070809124052B
:10243000909125052817390771F0E0912205F09158
:102440002305EE51FB4F4083309323052093220553
:1024500002C08091CE00FF91EF919F918F914F919B
:102460003F912F910F900BBE0F900FBE0F901F90BA
:10247000189508951F920F920FB60F920BB60F92F8
:1024800011242F933F934F938F939F93EF93FF9339
:102490008091D00082FD1DC04091D6002091AA05F8
:1024A0003091AB052F5F3F4F2F7330708091AC059B
:1024B0009091AD052817390771F0E091AA05F091C8
:1024C000AB05E659FA4F40833093AB052093AA053C
:1024D00002C08091D600FF91EF919F918F914F9113
:1024E0003F912F910F900BBE0F900FBE0F901F903A
:1024F000189508951F920F920FB60F920BB60F9278
:1025000011242F933F934F938F939F93EF93FF93B8
:102510008091300182FD1DC040913601209132062C
:10252000309133062F5F3F4F2F7330708091340608
:10253000909135062817390771F0E0913206F09135
:102540003306EE50FA4F4083309333062093320621
:1025500002C080913601FF91EF919F918F914F9131
:102560003F912F910F900BBE0F900FBE0F901F90B9
:102570001895E0918606F0918706E05CFF4F819107
:10258000919120813181821B930B8F739070892BE5
:1025900011F00E94B911E091A806F091A906E05C43
:1025A000FF4F8191919120813181821B930B8F7319
:1025B0009070892B11F00E94F911E091CA06F091F8
:1025C000CB06E05CFF4F8191919120813181821B8C
:1025D000930B8F739070892B11F00E943912E09148
:1025E000EC06F091ED06E05CFF4F81919191208126
:1025F0003181821B930B8F739070892B11F00E9495
:10260000791208951F920F920FB60F920BB60F9288
:1026100011242F933F938F939F93EF93FF932091D8
:10262000DE043091DF048091E0049091E1042817EA
:10263000390731F48091C1008F7D8093C10014C0AF
:10264000E091E004F091E104E256FB4F208180919B
:10265000E0049091E10401968F7390709093E104EF
:102660008093E0042093C600FF91EF919F918F919A
:102670003F912F910F900BBE0F900FBE0F901F90A8
:1026800018951F920F920FB60F920BB60F9211244E
:102690002F933F938F939F93EF93FF932091660522
:1026A0003091670580916805909169052817390771
:1026B00031F48091C9008F7D8093C90014C0E091EE
:1026C0006805F0916905EA5DFA4F208180916805FF
:1026D0009091690501968F7390709093690580932E
:1026E00068052093CE00FF91EF919F918F913F91CC
:1026F0002F910F900BBE0F900FBE0F901F9018954B
:102700001F920F920FB60F920BB60F9211242F93B8
:102710003F938F939F93EF93FF932091EE0530911A
:10272000EF058091F0059091F1052817390731F4F4
:102730008091D1008F7D8093D10014C0E091F0058D
:10274000F091F105E255FA4F20818091F0059091CA
:10275000F10501968F7390709093F1058093F005C9
:102760002093D600FF91EF919F918F913F912F91F0
:102770000F900BBE0F900FBE0F901F9018951F92D9
:102780000F920FB60F920BB60F9211242F933F9317
:102790008F939F93EF93FF93209176063091770666
:1027A00080917806909179062817390731F4809145
:1027B00031018F7D8093310114C0E0917806F09152
:1027C0007906EA5CF94F208180917806909179062C
:1027D00001968F739070909379068093780620937A
:1027E0003601FF91EF919F918F913F912F910F9023
:1027F0000BBE0F900FBE0F901F901895AF92BF9217
:10280000DF92EF92FF920F931F93CF93DF93EC0130
:102810007A018B01DD24403081EE580780E06807A3
:1028200080E0780711F0DD24D39491E0A92EB12C3B
:10283000EC89FD89DD2069F0C50108A002C0880F80
:10284000991F0A94E2F7808360E079E08DE390E0DD
:1028500005C0108260E874E88EE190E0A80197015D
:102860000E944E18215030404040504056954795A8
:102870003795279580E12030380720F0DD2011F0D2
:10288000DD24D6CFE889F9893083EA89FB89208362
:1028900019A2EE89FF89408121E030E0C9010C8C4A
:1028A00002C0880F991F0A94E2F7482B4083EE89F3
:1028B000FF894081C9010D8C02C0880F991F0A94BD
:1028C000E2F7482B4083EE89FF894081C9010E8CD5
:1028D00002C0880F991F0A94E2F7482B4083EE89C3
:1028E000FF8980810F8C02C0220F331F0A94E2F708
:1028F000209528232083DF91CF911F910F91FF9086
:10290000EF90DF90BF90AF900895DC011C96ED91A1
:10291000FC911D97E05CFF4F219131918081918165
:10292000281B390B2F733070C9010895DC011C96E8
:10293000ED91FC911D97E05CFF4F20813181E054C7
:10294000F040DF01AE5BBF4F8D919C91119728172E
:10295000390719F42FEF3FEF07C08D919C91E80FD5
:10296000F91F8081282F30E0C9010895DC011C96F1
:10297000ED91FC911D97E05CFF4F20813181E05487
:10298000F040DF01AE5BBF4F8D919C9111972817EE
:10299000390719F42FEF3FEF10C08D919C911197DB
:1029A000E80FF91F20818D919C91119701968F73EB
:1029B000907011969C938E9330E0C9010895DC01CC
:1029C00091968C919197882339F05496ED91FC91D2
:1029D0005597808186FFF9CF91961C920895CF93E9
:1029E000DF93EC01EE85FF85E05CFF4F20813181B4
:1029F000E054F0402F5F3F4F2F733070DF01AE5B2C
:102A0000BF4F8D919C91119728173907D1F3E05C46
:102A1000FF4F80819181E054F040E80FF91F6083FF
:102A2000EE85FF85E05CFF4F31832083EE89FF89CF
:102A3000208181E090E00F8C02C0880F991F0A94DA
:102A4000E2F7282B208381E089A3EC89FD8980812E
:102A50008064808381E090E0DF91CF91089581E0F0
:102A600008951F9310927D0610927C0628EE33E0A5
:102A700040E050E020937E0630937F06409380062E
:102A80005093810669E473E070937B0660937A0645
:102A90008AE594E090938706809386068EE994E019
:102AA000909389068093880685EC90E090938B063E
:102AB00080938A0684EC90E090938D0680938C0638
:102AC00080EC90E090938F0680938E0681EC90E0EE
:102AD000909391068093900682EC90E090939306F9
:102AE0008093920686EC90E09093950680939406EE
:102AF00014E010939606B3E0B0939706A7E0A09376
:102B00009806F5E0F0939906E1E0E0939A061092BA
:102B10009F0610929E062093A0063093A106409334
:102B2000A2065093A30670939D0660939C0682EEC6
:102B300094E09093A9068093A80686E295E090938E
:102B4000AB068093AA068DEC90E09093AD0680933F
:102B5000AC068CEC90E09093AF068093AE0688ECC8
:102B600090E09093B1068093B00689EC90E090934A
:102B7000B3068093B2068AEC90E09093B5068093FA
:102B8000B4068EEC90E09093B7068093B60610934F
:102B9000B806B093B906A093BA06F093BB06E093CB
:102BA000BC061092C1061092C0062093C206309354
:102BB000C3064093C4065093C5067093BF06609346
:102BC000BE068AE695E09093CB068093CA068EEA0D
:102BD00095E09093CD068093CC0685ED90E09093A0
:102BE000CF068093CE0684ED90E09093D10680933B
:102BF000D00680ED90E09093D3068093D20681EDCD
:102C000090E09093D5068093D40682ED90E0909367
:102C1000D7068093D60686ED90E09093D9068093F0
:102C2000D8061093DA06B093DB06A093DC06F09387
:102C3000DD06E093DE061092E3061092E206209392
:102C4000E4063093E5064093E6065093E70670935A
:102C5000E1066093E00682EF95E09093ED068093A5
:102C6000EC0686E396E09093EF068093EE0685E30C
:102C700091E09093F1068093F00684E391E09093C5
:102C8000F3068093F20680E391E09093F50680933B
:102C9000F40681E391E09093F7068093F60682E3D1
:102CA00091E09093F9068093F80686E391E0909383
:102CB000FB068093FA061093FC06B093FD06A093E2
:102CC000FE06F093FF06E09300071F9108950F930F
:102CD000FC0189E593E091838083628343832483AD
:102CE00005830F91089589E593E0909303078093FE
:102CF000020710920407109205071092060710921F
:102D0000070708958F929F92AF92BF92CF92DF9262
:102D1000EF92FF920F931F93CF93DF934C016B01C0
:102D20007C01AA24BB24C0E0D0E0C601F701628187
:102D30004AE050E00E94B4178C01C6016EE20E9486
:102D4000FD16080F191FA00EB11E21960894E11C54
:102D5000F11CC330D10549F7C601F40165814AE091
:102D600050E00E94B4179501280F391FC901DF9167
:102D7000CF911F910F91FF90EF90DF90CF90BF9078
:102D8000AF909F908F900895CF93DF930E94711022
:102D90000E942A02C9EBD2E10E94DC012097E1F3F4
:102DA0000E94B912F9CFCF92DF92EF92FF920F9368
:102DB0001F93CF93DF937C016B018A01C0E0D0E0C9
:102DC0000FC0D6016D916D01D701ED91FC9101907D
:102DD000F081E02DC7011995C80FD91F015010408F
:102DE0000115110571F7CE01DF91CF911F910F9160
:102DF000FF90EF90DF90CF900895DC01ED91FC9172
:102E00000190F081E02D19950895EF92FF920F93B4
:102E10001F938C01DC01ED91FC910190F081E02D7C
:102E20006DE019957C01D801ED91FC910190F08144
:102E3000E02DC8016AE019959C012E0D3F1DC901C6
:102E40001F910F91FF90EF900895CF93DF93EC01C6
:102E50006115710519F420E030E00FC0DB010D9021
:102E60000020E9F71197A61BB70BE881F9810280D2
:102E7000F381E02DAD0119959C01C901DF91CF913E
:102E800008954F925F927F928F929F92AF92BF92DE
:102E9000CF92DF92EF92FF920F931F93DF93CF9326
:102EA000CDB7DEB7A1970FB6F894DEBF0FBECDBF8A
:102EB0002C01742ECB01223008F42AE019A231E251
:102EC000C32ED12CCC0EDD1E822E9924AA24BB2425
:102ED000672D752FA50194010E944E1879018A0172
:102EE000C801B701A50194010E942F18472D461B68
:102EF0000894C108D1084A3014F4405D01C0495C0F
:102F0000F6014083E114F1040105110521F07E2C46
:102F10005F2DC801DDCFC201B6010E942517A19621
:102F20000FB6F894DEBF0FBECDBFCF91DF911F91DA
:102F30000F91FF90EF90DF90CF90BF90AF909F9058
:102F40008F907F905F904F900895DC01211531059F
:102F500041F4ED91FC910190F081E02D642F1995E1
:102F600008950E9441170895EF92FF920F931F93C7
:102F70009A01E62EFF2400E010E0B801A7010E94AC
:102F8000A5171F910F91FF90EF900895CF92DF92B8
:102F9000EF92FF920F931F93CF93DF93EC016A019F
:102FA0007B012115310541F4E881F9810190F0811F
:102FB000E02D642F19951FC02A303105D1F477FF19
:102FC00017C0E881F9810190F081E02D6DE219953B
:102FD0008C0144275527BA014C195D096E097F09F8
:102FE000CE012AE00E9441179801280F391F04C022
:102FF0002AE00E9441179C01C901DF91CF911F91E6
:103000000F91FF90EF90DF90CF900895EF92FF9295
:103010000F931F937B019A010027F7FC0095102F57
:10302000B801A7010E94C6171F910F91FF90EF9062
:1030300008950E9425170895EF92FF920F931F9312
:103040007C010E9425178C01C7010E940517080FFB
:10305000191FC8011F910F91FF90EF900895629F73
:10306000D001739FF001829FE00DF11D649FE00D80
:10307000F11D929FF00D839FF00D749FF00D659FE1
:10308000F00D9927729FB00DE11DF91F639FB00DE0
:10309000E11DF91FBD01CF0111240895A1E21A2EEF
:1030A000AA1BBB1BFD010DC0AA1FBB1FEE1FFF1FEC
:1030B000A217B307E407F50720F0A21BB30BE40B3C
:1030C000F50B661F771F881F991F1A9469F7609583
:1030D0007095809590959B01AC01BD01CF0108953D
:1030E000EE0FFF1F0590F491E02D1994F894FFCF97
:1030F0004D657373616765207265636569766564A4
:103100002066726F6D3A004469736361726465642E
:1031100020534D53000A454E44204F46204D455301
:1031200053414745004D4553534147452044454C85
:103130004554454400534D53204D65737361676595
:103140007320526563656976657200496E697469BA
:10315000616C697A696E672E2E0034323231004319
:103160006F6E6E65637465640047534D20696E69C8
:103170007469616C697A65640057616974696E6726
:1031800020666F72206D65737361676573004E6FA3
:103190007420636F6E6E6563746564202D206C6FA0
:1031A0006F70000D004F4B0020000D00220D003EFF
:1031B000000A000D0A0D0A2B000D0A0D0A4F4B00E4
:1031C00052454144222C220022002B434D474C3AC9
:1031D00000B5020000000013056003B3027B020289
:1031E00005FEFF0000FE046E0200000000C2052480
:1031F000063806FEFF00002006D31600000000324D
:1032000007D316B4074E075C07CA07000000003159
:1032100009A1085808000000001C0E3A0DC30DABB0
:103220000F6D0E430E090F870E360D840FFEFF0043
:1032300000800F6E0200000000EF14D3168514B654
:0C324000149614DF140000000082160039
:00000001FF
